:100000000C942A000C943F000C943F000C943F0089
:100010000C943F000C943F000C943F000C943F0064
:100020000C943F000C943F000C943F000C943F0054
:100030000C943F000C943F000C943F000C943F0044
:100040000C943F000C943F000C943F000C943F0034
:100050000C943F0011241FBECFE5D8E0DEBFCDBF1A
:1000600010E0A0E6B0E0E2EEF7E202C005900D92EB
:10007000A83AB107D9F70E9484110C94EF130C949D
:100080000000EF92FF920F931F937B018C0120E001
:1000900030E040E05FE40E94410388238CF0C80117
:1000A000B70120E030E040E05FE40E94B9010E9427
:1000B000A1039B01AC01205030404040504806C095
:1000C000C801B7010E94A1039B01AC01B901CA019B
:1000D0001F910F91FF90EF900895A0E0B0E0E3E74B
:1000E000F0E00C94B813DC012B01FA019C919230E2
:1000F00008F439C1EB018881823008F433C19430AF
:1001000069F4843009F02FC111969C91119789816F
:10011000981709F428C1A0E6B0E025C1843009F49D
:1001200021C18230A9F4923009F01DC19A01AD01BC
:1001300088E0EA010990AE01E90109929E0181502F
:10014000C1F7E201898111969C918923818308C1BD
:10015000923009F407C112962D903C901397EB0151
:100160008A819B811496AD90BD90CD90DC901797BD
:10017000EC80FD800E811F819101281B390BB90194
:1001800037FF04C066277727621B730B6032710547
:100190000CF061C0121613066CF537014801062EEB
:1001A00004C096948794779467940A94D2F721E0D8
:1001B00030E040E050E004C0220F331F441F551FC1
:1001C0006A95D2F721503040404050402E213F21C7
:1001D00040235123211531054105510521F021E02E
:1001E00030E040E050E079018A01E628F72808294C
:1001F00019293CC0232BD1F1260E371E35014601AB
:10020000062E04C096948794779467940A94D2F744
:1002100021E030E040E050E004C0220F331F441FD3
:10022000551F6A95D2F721503040404050402A2156
:100230003B214C215D21211531054105510521F05E
:1002400021E030E040E050E059016A01A628B728DB
:10025000C828D9280BC0821593052CF01C01AA24AC
:10026000BB24650103C0EE24FF24870111969C91F5
:10027000D20111968C91981709F445C0992339F051
:10028000A80197012A193B094C095D0906C0A6017E
:1002900095012E193F09400B510B57FD08C01182E3
:1002A0003382228224833583468357831DC081E0B5
:1002B00081833382228288279927DC01821B930B5A
:1002C000A40BB50B84839583A683B7830DC0220F3F
:1002D000331F441F551F24833583468357838281F0
:1002E000938101979383828324813581468157814D
:1002F000DA01C9010197A109B1098F5F9F4FAF4F83
:10030000BF4328F30BC0918333822282EA0CFB1C8B
:100310000C1D1D1DE482F5820683178383E0808314
:10032000248135814681578157FF1AC0C901AA2708
:1003300097FDA095BA2F81709070A070B0705695FF
:10034000479537952795822B932BA42BB52B848328
:100350009583A683B7838281938101969383828359
:10036000DF0101C0D201CD01CDB7DEB7E2E10C94CF
:10037000D413A0E2B0E0EFEBF1E00C94C413698376
:100380007A838B839C832D833E834F835887E9E058
:10039000EE2EF12CEC0EFD1ECE010196B7010E944F
:1003A000CA048E010F5E1F4FCE010596B8010E9450
:1003B000CA048A8991E089278A8BC701B801AE01F6
:1003C000475E5F4F0E946D000E94F503A096E6E035
:1003D0000C94E013A0E2B0E0E0EFF1E00C94C41361
:1003E00069837A838B839C832D833E834F835887D5
:1003F000F9E0EF2EF12CEC0EFD1ECE010196B701B7
:100400000E94CA048E010F5E1F4FCE010596B801EF
:100410000E94CA04C701B801AE01475E5F4F0E9447
:100420006D000E94F503A096E6E00C94E013A0E2B4
:10043000B0E0EDE1F2E00C94B81369837A838B832A
:100440009C832D833E834F835887CE010196BE0146
:10045000675F7F4F0E94CA04CE010596BE016F5EA2
:100460007F4F0E94CA049985923088F08989823032
:10047000C8F0943019F4823051F404C0843029F467
:10048000923081F480E690E0C6C0923049F420E0DA
:100490009A858A89981321E02A87CE010996BBC0E4
:1004A000823049F420E09A858A89981321E02A8BCA
:1004B000CE014196B0C02D843E844F8458886D880B
:1004C0007E888F88988CEE24FF248701AA24BB2481
:1004D000650140E050E060E070E0E0E0F0E0C10184
:1004E00081709070892BE9F0E60CF71C081D191D2E
:1004F0009A01AB012A0D3B1D4C1D5D1D80E090E073
:10050000A0E0B0E0E614F7040805190520F481E046
:1005100090E0A0E0B0E0BA01A901480F591F6A1F9E
:100520007B1FAA0CBB1CCC1CDD1C97FE08C081E005
:1005300090E0A0E0B0E0A82AB92ACA2ADB2A3196C6
:10054000E032F10549F0660C771C881C991C569422
:10055000479437942794C3CFFA85EA892B893C893D
:100560008B859C85280F391F2E5F3F4F17C0CA010E
:1005700081709070892B61F016950795F794E79438
:1005800080E090E0A0E0B0E8E82AF92A0A2B1B2BD3
:1005900076956795579547952F5F3F4F77FDE7CF46
:1005A0000CC0440F551F661F771F17FD4160EE0CEE
:1005B000FF1C001F111F21503040403090E05907B0
:1005C00090E0690790E4790760F32B8F3C8FDB01A3
:1005D000CA018F779070A070B07080349105A1052A
:1005E000B10561F447FD0AC0E114F10401051105EC
:1005F00029F0405C5F4F6F4F7F4F40781A8EFE1797
:1006000011F081E08A8F4D8F5E8F6F8F78A383E02A
:10061000898FCE0149960E94F503A096E2E10C94E1
:10062000D413A8E1B0E0E7E1F3E00C94C4136983CC
:100630007A838B839C832D833E834F83588789E005
:10064000E82EF12CEC0EFD1ECE010196B7010E94A2
:10065000CA048E010F5E1F4FCE010596B8010E949D
:10066000CA048985823040F08989823028F0C70128
:10067000B8010E94420501C08FEF6896E6E00C9435
:10068000E013A8E1B0E0E7E4F3E00C94C41369835D
:100690007A838B839C832D833E834F83588789E0A5
:1006A000E82EF12CEC0EFD1ECE010196B7010E9442
:1006B000CA048E010F5E1F4FCE010596B8010E943D
:1006C000CA048985823040F08989823028F0C701C8
:1006D000B8010E94420501C08FEF6896E6E00C94D5
:1006E000E013A8E1B0E0E7E7F3E00C94C4136983FA
:1006F0007A838B839C832D833E834F83588789E045
:10070000E82EF12CEC0EFD1ECE010196B7010E94E1
:10071000CA048E010F5E1F4FCE010596B8010E94DC
:10072000CA048985823040F08989823028F0C70167
:10073000B8010E94420501C081E06896E6E00C9491
:10074000E013ACE0B0E0E7EAF3E00C94C81369838F
:100750007A838B839C83CE010196BE016B5F7F4FB2
:100760000E94CA048D81823061F1823050F1843060
:1007700021F48E81882351F12EC02F81388537FDD9
:1007800020C06E812F3131051CF06623F9F023C0A3
:100790008EE190E0821B930B29853A854B855C8521
:1007A00004C056954795379527958A95D2F76623C5
:1007B000B1F050954095309521953F4F4F4F5F4F89
:1007C0000EC020E030E040E050E009C02FEF3FEFE6
:1007D0004FEF5FE704C020E030E040E050E8B901AF
:1007E000CA012C96E2E00C94E413DF92EF92FF92A0
:1007F0000F931F93FC01E480F58006811781D1805F
:100800008081823048F480E090E0A0E1B0E0E82A06
:10081000F92A0A2B1B2BA5C0843009F49FC0823013
:1008200021F4EE24FF24870105C0E114F104010541
:10083000110519F4E0E0F0E096C0628173819FEF4A
:10084000623879070CF05BC022E83FEF261B370BBC
:100850002A3131052CF020E030E040E050E02AC0A1
:10086000B801A701022E04C0769567955795479564
:100870000A94D2F781E090E0A0E0B0E004C0880FD5
:10088000991FAA1FBB1F2A95D2F70197A109B10989
:100890008E219F21A023B1230097A105B10521F04E
:1008A00081E090E0A0E0B0E09A01AB01282B392B69
:1008B0004A2B5B2BDA01C9018F779070A070B07062
:1008C00080349105A105B10539F427FF09C0205CEA
:1008D0003F4F4F4F5F4F04C0215C3F4F4F4F5F4F23
:1008E000E0E0F0E02030A0E03A07A0E04A07A0E412
:1008F0005A0710F0E1E0F0E079018A0127C0603882
:10090000710564F5FB01E158FF4FD801C7018F77EE
:100910009070A070B07080349105A105B10539F4D4
:10092000E7FE0DC080E490E0A0E0B0E004C08FE3FB
:1009300090E0A0E0B0E0E80EF91E0A1F1B1F17FFB1
:1009400005C016950795F794E794319687E01695BC
:100950000795F794E7948A95D1F705C0EE24FF2414
:100960008701EFEFF0E06E2F679566276795902F70
:100970009F77D794DD24D7948E2F8695492F462BC9
:10098000582F5D29B701CA011F910F91FF90EF9079
:10099000DF900895FC01DB01408151812281622FAB
:1009A0006F7770E0221F2227221F9381892F880FE3
:1009B000822B282F30E0991F9927991F11969C931D
:1009C000119721153105A9F54115510561057105ED
:1009D00011F482E037C082E89FEF13969C938E93C8
:1009E00012979A01AB0167E0220F331F441F551F76
:1009F0006A95D1F783E08C930DC0220F331F441FFB
:100A0000551F12968D919C911397019713969C9365
:100A10008E931297203080E0380780E0480780E40A
:100A2000580758F314962D933D934D935C93179765
:100A300008952F3F310579F4411551056105710580
:100A400019F484E08C93089564FF03C081E08C93D3
:100A500012C01C9210C02F57304013963C932E9317
:100A6000129783E08C9387E0440F551F661F771F12
:100A70008A95D1F7706414964D935D936D937C9332
:100A8000179708951F93DC01FB019C91923008F4A5
:100A900047C08081823008F443C0943051F41196ED
:100AA0001C91843099F58181682F70E0611B710978
:100AB0003FC0843021F0923031F48230B9F181812D
:100AC000882389F12DC011961C9111978230F1F085
:100AD00081811817D9F412962D913C911397828138
:100AE00093818217930794F028173907BCF0149666
:100AF0008D919D910D90BC91A02D248135814681D1
:100B00005781281739074A075B0718F4112341F06A
:100B10000AC082179307A407B50740F4112319F000
:100B200061E070E005C06FEF7FEF02C060E070E051
:100B3000CB011F910895DF93CF93CDB7DEB72797F1
:100B40000FB6F894DEBF0FBECDBF8C836D8381E0FE
:100B50008B838C818695869586958A838C81877018
:100B600089838C81813208F0E1C08A81282F30E0AE
:100B70003F832E838E819F818130910509F447C088
:100B80002E813F81223031052CF48E819F81009788
:100B900071F0CEC02E813F812230310509F467C04B
:100BA0008E819F818330910509F491C0C1C08D81F0
:100BB0008130A1F4ABE3B0E0EBE3F0E08081482FBB
:100BC0008981282F30E081E090E0022E02C0880F5A
:100BD000991F0A94E2F7842B8C93AAC08D818823F5
:100BE00009F0A6C0ABE3B0E0EBE3F0E08081482F72
:100BF0008981282F30E081E090E0022E02C0880F2A
:100C0000991F0A94E2F7809584238C9391C08D817B
:100C10008130A1F4A8E3B0E0E8E3F0E08081482F60
:100C20008981282F30E081E090E0022E02C0880FF9
:100C3000991F0A94E2F7842B8C937AC08D818823C4
:100C400009F076C0A8E3B0E0E8E3F0E08081482F47
:100C50008981282F30E081E090E0022E02C0880FC9
:100C6000991F0A94E2F7809584238C9361C08D814B
:100C70008130A1F4A5E3B0E0E5E3F0E08081482F06
:100C80008981282F30E081E090E0022E02C0880F99
:100C9000991F0A94E2F7842B8C934AC08D81882394
:100CA00009F046C0A5E3B0E0E5E3F0E08081482F1D
:100CB0008981282F30E081E090E0022E02C0880F69
:100CC000991F0A94E2F7809584238C9331C08D811B
:100CD0008130A1F4A2E3B0E0E2E3F0E08081482FAC
:100CE0008981282F30E081E090E0022E02C0880F39
:100CF000991F0A94E2F7842B8C931AC08D81882364
:100D0000B9F4A2E3B0E0E2E3F0E08081482F89810A
:100D1000282F30E081E090E0022E02C0880F991F5A
:100D20000A94E2F7809584238C9302C083E08B833E
:100D30008B8127960FB6F894DEBF0FBECDBFCF9143
:100D4000DF910895DF93CF93CDB7DEB728970FB625
:100D5000F894DEBF0FBECDBF8C837E836D8381E0B0
:100D60008B838C81813208F079C08C818695869541
:100D700086958A838C81877089838A81282F30E0C9
:100D800038872F834F8158854130510559F18F8124
:100D900098858230910534F42F81388521153105ED
:100DA00069F05EC04F8158854230510579F18F81DD
:100DB00098858330910509F43DC052C0E9E3F0E025
:100DC0008081282F30E08981882F90E0A90102C01E
:100DD000559547958A95E2F7CA018170ED81FE81AC
:100DE00080833EC0E6E3F0E08081282F30E08981F7
:100DF000882F90E0A90102C0559547958A95E2F7A2
:100E0000CA018170ED81FE8180832AC0E3E3F0E0B6
:100E10008081282F30E08981882F90E0A90102C0CD
:100E2000559547958A95E2F7CA018170ED81FE815B
:100E3000808316C0E0E3F0E08081282F30E08981D4
:100E4000882F90E0A90102C0559547958A95E2F751
:100E5000CA018170ED81FE81808302C082E08B83B4
:100E60008B8128960FB6F894DEBF0FBECDBFCF9111
:100E7000DF910895DF93CF9300D000D00F92CDB7CC
:100E8000DEB78A836B8381E089838A81853098F518
:100E90008A81282F30E03D832C838C819D81813095
:100EA0009105D1F02C813D81223031052CF48C81CB
:100EB0009D81009761F021C02C813D812230310558
:100EC00081F08C819D818330910581F016C0EBE328
:100ED000F0E08B81808311C0E8E3F0E08B818083B8
:100EE0000CC0E5E3F0E08B81808307C0E2E3F0E033
:100EF0008B81808302C083E0898389810F900F906A
:100F00000F900F900F90CF91DF910895DF93CF93C3
:100F100000D000D000D0CDB7DEB78A837C836B834E
:100F200081E089838A818530D8F58A81282F30E055
:100F30003E832D838D819E8181309105E1F02D814D
:100F40003E81223031052CF48D819E81009761F025
:100F500029C02D813E8122303105A1F08D819E81F5
:100F600083309105B1F01EC0EBE3F0E08081EB81AE
:100F7000FC81808317C0E8E3F0E08081EB81FC8195
:100F8000808310C0E5E3F0E08081EB81FC81808309
:100F900009C0E2E3F0E08081EB81FC81808302C044
:100FA00082E08983898126960FB6F894DEBF0FBE52
:100FB000CDBFCF91DF910895DF93CF9300D000D0C4
:100FC00000D0CDB7DEB78C8381E08B838C818132FA
:100FD00008F077C08C818695869586958A838C816A
:100FE000877089838A81282F30E03E832D838D810D
:100FF0009E818130910549F12D813E81223031055C
:101000002CF48D819E81009761F05DC02D813E8121
:101010002230310571F18D819E8183309105E9F196
:1010200052C0ABE3B0E0EBE3F0E08081482F898170
:10103000282F30E081E090E0022E02C0880F991F37
:101040000A94E2F784278C933EC0ABE3B0E0EBE375
:10105000F0E08081482F8981282F30E081E090E006
:10106000022E02C0880F991F0A94E2F784278C93FE
:101070002AC0ABE3B0E0EBE3F0E08081482F898148
:10108000282F30E081E090E0022E02C0880F991FE7
:101090000A94E2F784278C9316C0ABE3B0E0EBE34D
:1010A000F0E08081482F8981282F30E081E090E0B6
:1010B000022E02C0880F991F0A94E2F784278C93AE
:1010C00002C082E08B838B8126960FB6F894DEBF38
:1010D0000FBECDBFCF91DF910895DF93CF93CDB7F2
:1010E000DEB727970FB6F894DEBF0FBECDBF8C8357
:1010F0006D8383E08B838C81803210F01B82DFC094
:101100008D81823018F081E08B83D9C08C8187700B
:101110008A838C8186958695869589838981282FF7
:1011200030E03F832E838E819F818130910509F4C9
:1011300043C02E813F81223031052CF48E819F8166
:10114000009771F0BCC02E813F812230310509F437
:101150005FC08E819F818330910509F485C0AFC047
:101160008D818130A1F4AAE3B0E0EAE3F0E0808170
:10117000482F8A81282F30E081E090E0022E02C0C3
:10118000880F991F0A94E2F7842B8C9398C0AAE3E6
:10119000B0E0EAE3F0E08081482F8A81282F30E038
:1011A00081E090E0022E02C0880F991F0A94E2F7B6
:1011B000809584238C9383C08D818130A1F4A7E333
:1011C000B0E0E7E3F0E08081482F8A81282F30E00B
:1011D00081E090E0022E02C0880F991F0A94E2F786
:1011E000842B8C936CC0A7E3B0E0E7E3F0E0808150
:1011F000482F8A81282F30E081E090E0022E02C043
:10120000880F991F0A94E2F7809584238C9357C026
:101210008D818130A1F4A4E3B0E0E4E3F0E08081CB
:10122000482F8A81282F30E081E090E0022E02C012
:10123000880F991F0A94E2F7842B8C9340C0A4E393
:10124000B0E0E4E3F0E08081482F8A81282F30E08D
:1012500081E090E0022E02C0880F991F0A94E2F705
:10126000809584238C932BC08D818130A1F4A1E3E0
:10127000B0E0E1E3F0E08081482F8A81282F30E060
:1012800081E090E0022E02C0880F991F0A94E2F7D5
:10129000842B8C9314C0A1E3B0E0E1E3F0E0808103
:1012A000482F8A81282F30E081E090E0022E02C092
:1012B000880F991F0A94E2F7809584238C938B8181
:1012C00027960FB6F894DEBF0FBECDBFCF91DF914A
:1012D0000895DF93CF93CDB7DEB72F970FB6F8946D
:1012E000DEBF0FBECDBF8C836D8383E08B838D818A
:1012F000853018F082E08B8323C38C81803210F01C
:101300001B821EC38C818695869586958A838C81E7
:10131000877089838A81282F30E03F872E878E85CA
:101320009F858130910509F4D4C02E853F852230F8
:1013300031052CF48E859F85009771F001C32E85B1
:101340003F852230310509F481C18E859F85833028
:10135000910509F439C2F4C28D81282F30E03D8710
:101360002C878C859D8581309105B9F02C853D8534
:10137000223031052CF48C859D850097A1F1E0C2C7
:101380002C853D852230310509F454C08C859D851E
:101390008330910509F475C0D3C2AAE3B0E0EAE353
:1013A000F0E08081482F8981282F30E081E090E0B3
:1013B00002C0880F991F2A95E2F7842B8C93ABE328
:1013C000B0E0EBE3F0E08081482F8981282F30E006
:1013D00081E090E0022E02C0880F991F0A94E2F784
:1013E000842B8C93ADC2AAE3B0E0EAE3F0E0808105
:1013F000482F8981282F30E081E090E002C0880FDB
:10140000991F2A95E2F7842B8C93ABE3B0E0EBE3D2
:10141000F0E08081482F8981282F30E081E090E042
:10142000022E02C0880F991F0A94E2F78095842348
:101430008C9386C2AAE3B0E0EAE3F0E08081482F13
:101440008981282F30E081E090E002C0880F991F49
:101450002A95E2F7809584238C93ABE3B0E0EBE32D
:10146000F0E08081482F8981282F30E081E090E0F2
:10147000022E02C0880F991F0A94E2F7842B8C93E6
:101480005FC2AAE3B0E0EAE3F0E08081482F8981FF
:10149000282F30E081E090E002C0880F991F2A9544
:1014A000E2F7809584238C93ABE3B0E0EBE3F0E0CC
:1014B0008081482F8981282F30E081E090E0022E42
:1014C00002C0880F991F0A94E2F7809584238C93B9
:1014D00037C28D81282F30E03B872A878A859B85FC
:1014E00081309105B9F02A853B85223031052CF4F5
:1014F0008A859B850097A1F123C22A853B852230EE
:10150000310509F454C08A859B858330910509F41F
:1015100075C016C2A7E3B0E0E7E3F0E08081482F92
:101520008981282F30E081E090E002C0880F991F68
:101530002A95E2F7842B8C93A8E3B0E0E8E3F0E08F
:101540008081482F8981282F30E081E090E0022EB1
:1015500002C0880F991F0A94E2F7842B8C93F0C184
:10156000A7E3B0E0E7E3F0E08081482F8981282FEE
:1015700030E081E090E002C0880F991F2A95E2F7E1
:10158000842B8C93A8E3B0E0E8E3F0E08081482F5F
:101590008981282F30E081E090E0022E02C0880F80
:1015A000991F0A94E2F7809584238C93C9C1A7E31D
:1015B000B0E0E7E3F0E08081482F8981282F30E018
:1015C00081E090E002C0880F991F2A95E2F780958C
:1015D00084238C93A8E3B0E0E8E3F0E08081482F17
:1015E0008981282F30E081E090E0022E02C0880F30
:1015F000991F0A94E2F7842B8C93A2C1A7E3B0E071
:10160000E7E3F0E08081482F8981282F30E081E0F6
:1016100090E002C0880F991F2A95E2F780958423F5
:101620008C93A8E3B0E0E8E3F0E08081482F898163
:10163000282F30E081E090E0022E02C0880F991F31
:101640000A94E2F7809584238C937AC18D81282FA8
:1016500030E0398728878885998581309105B9F0F0
:1016600028853985223031052CF4888599850097A5
:10167000A1F166C1288539852230310509F455C0AC
:10168000888599858330910509F476C059C1A4E312
:10169000B0E0E4E3F0E08081482F8981282F30E03A
:1016A00081E090E002C0880F991F2A95E2F7842B11
:1016B0008C93A5E3B0E0E5E3F0E08081482F8981D9
:1016C000282F30E081E090E0022E02C0880F991FA1
:1016D0000A94E2F7842B8C9333C1A4E3B0E0E4E3F3
:1016E000F0E08081482F8981282F30E081E090E070
:1016F00002C0880F991F2A95E2F7809584238C9366
:10170000A5E3B0E0E5E3F0E08081482F8981282F50
:1017100030E081E090E0022E02C0880F991F0A9409
:10172000E2F7809584238C930BC1A4E3B0E0E4E35B
:10173000F0E08081482F8981282F30E081E090E01F
:1017400002C0880F991F2A95E2F7809584238C9315
:10175000A5E3B0E0E5E3F0E08081482F8981282F00
:1017600030E081E090E0022E02C0880F991F0A94B9
:10177000E2F7842B8C93E4C0A4E3B0E0E4E3F0E070
:101780008081482F8981282F30E081E090E002C0DD
:10179000880F991F2A95E2F7809584238C93A5E3FF
:1017A000B0E0E5E3F0E08081482F8981282F30E028
:1017B00081E090E0022E02C0880F991F0A94E2F7A0
:1017C000809584238C93BCC08D81282F30E03F838B
:1017D0002E838E819F8181309105B9F02E813F81CA
:1017E000223031052CF48E819F810097A1F1A8C091
:1017F0002E813F812230310509F454C08E819F81B2
:101800008330910509F475C09BC0A1E3B0E0E1E32A
:10181000F0E08081482F8981282F30E081E090E03E
:1018200002C0880F991F2A95E2F7842B8C93A2E3BC
:10183000B0E0E2E3F0E08081482F8981282F30E09A
:1018400081E090E0022E02C0880F991F0A94E2F70F
:10185000842B8C9375C0A1E3B0E0E1E3F0E08081DC
:10186000482F8981282F30E081E090E002C0880F66
:10187000991F2A95E2F7842B8C93A2E3B0E0E2E370
:10188000F0E08081482F8981282F30E081E090E0CE
:10189000022E02C0880F991F0A94E2F780958423D4
:1018A0008C934EC0A1E3B0E0E1E3F0E08081482FEB
:1018B0008981282F30E081E090E002C0880F991FD5
:1018C0002A95E2F7809584238C93ABE3B0E0EBE3B9
:1018D000F0E08081482F8981282F30E081E090E07E
:1018E000022E02C0880F991F0A94E2F7842B8C9372
:1018F00027C0A1E3B0E0E1E3F0E08081482F8981D7
:10190000282F30E081E090E002C0880F991F2A95CF
:10191000E2F7809584238C93A2E3B0E0E2E3F0E069
:101920008081482F8981282F30E081E090E0022ECD
:1019300002C0880F991F0A94E2F7809584238C9344
:101940008B812F960FB6F894DEBF0FBECDBFCF911F
:10195000DF910895DF93CF93CDB7DEB7EAE3F0E0F0
:101960008FEF8083EBE3F0E01082E7E3F0E08FEFAE
:101970008083E8E3F0E08FEF8083E4E3F0E08FEF33
:101980008083E5E3F0E01082E1E3F0E08FEF808315
:10199000E1E3F0E01082CF91DF910895DF93CF93E0
:1019A000CDB7DEB7AB970FB6F894DEBF0FBECDBF95
:1019B0001BA680E18BA707C08BA561E00E946D0884
:1019C0008BA58F5F8BA78BA58831B0F388E061E092
:1019D0000E946D0889E061E00E946D088AE061E084
:1019E0000E946D0888E30E945A0E80E090E0A0E01B
:1019F000B0E48FA398A7A9A7BAA76FA178A589A5D6
:101A00009AA520E030E04AE753E40E941702DC0187
:101A1000CB018BA39CA3ADA3BEA36BA17CA18DA185
:101A20009EA120E030E040E85FE30E94710388233C
:101A30002CF481E090E09AA389A33FC06BA17CA124
:101A40008DA19EA120E03FEF4FE757E40E941103D4
:101A500018164CF56FA178A589A59AA520E030E06D
:101A600040E251E40E941702DC01CB01BC01CD0130
:101A70000E944100DC01CB019AA389A30FC089E138
:101A800090E098A38F8F8F8D98A10197F1F798A37D
:101A90008F8F89A19AA101979AA389A389A19AA15D
:101AA000009769F714C06BA17CA18DA19EA10E9433
:101AB0004100DC01CB019AA389A389A19AA19E8F41
:101AC0008D8F8D8D9E8D0197F1F79E8F8D8F8CE080
:101AD0000E945A0E80E090E0A0E0B0E4898F9A8FD7
:101AE000AB8FBC8F698D7A8D8B8D9C8D20E030E023
:101AF0004AE753E40E941702DC01CB018D8B9E8BD9
:101B0000AF8BB88F6D897E898F89988D20E030E00A
:101B100040E85FE30E94710388232CF481E090E0A9
:101B20009C8B8B8B3FC06D897E898F89988D20E03F
:101B30003FEF4FE757E40E94110318164CF5698DEB
:101B40007A8D8B8D9C8D20E030E040E251E40E9444
:101B50001702DC01CB01BC01CD010E944100DC0178
:101B6000CB019C8B8B8B0FC089E190E09A8B898B8A
:101B700089899A890197F1F79A8B898B8B899C893E
:101B800001979C8B8B8B8B899C89009769F714C07C
:101B90006D897E898F89988D0E944100DC01CB017F
:101BA0009C8B8B8B8B899C89988B8F878F85988951
:101BB0000197F1F7988B8F8781E00E945A0E80E0A1
:101BC00090E0A0E0B0E48B879C87AD87BE876B85F3
:101BD0007C858D859E8520E030E04AE753E40E94B5
:101BE0001702DC01CB018F839887A987BA876F81A1
:101BF000788589859A8520E030E040E85FE30E949F
:101C0000710388232CF481E090E09E838D833FC094
:101C10006F81788589859A8520E03FEF4FE757E40B
:101C20000E94110318164CF56B857C858D859E8569
:101C300020E030E040E251E40E941702DC01CB01D9
:101C4000BC01CD010E944100DC01CB019E838D834C
:101C50000FC089E190E09C838B838B819C810197ED
:101C6000F1F79C838B838D819E8101979E838D8369
:101C70008D819E81009769F714C06F817885898571
:101C80009A850E944100DC01CB019E838D838D816A
:101C90009E819A83898389819A810197F1F79A833A
:101CA0008983AB960FB6F894DEBF0FBECDBFCF9140
:101CB000DF910895DF93CF93CDB7DEB76D970FB661
:101CC000F894DEBF0FBECDBF8D8F88E060E00E942C
:101CD0009B0589E060E00E949B058D8D982F917097
:101CE00080E1692F0E949B058D8D8695982F9170BC
:101CF00081E1692F0E949B058D8D86958695982F91
:101D0000917082E1692F0E949B058D8D8695869545
:101D10008695982F917083E1692F0E949B058D8D88
:101D200082958F70982F917084E1692F0E949B0596
:101D30008D8D829586958770982F917085E1692F9A
:101D40000E949B058D8D8295869586958370982F30
:101D5000917086E1692F0E949B058D8D982F991FA8
:101D60009927991F87E1692F0E949B058AE061E00E
:101D70000E949B0580E090E0A0E0B0E4898F9A8FFC
:101D8000AB8FBC8F698D7A8D8B8D9C8D20E030E080
:101D90004AE753E40E941702DC01CB018D8B9E8B36
:101DA000AF8BB88F6D897E898F89988D20E030E068
:101DB00040E85FE30E94710388232CF481E090E007
:101DC0009C8B8B8B3FC06D897E898F89988D20E09D
:101DD0003FEF4FE757E40E94110318164CF5698D49
:101DE0007A8D8B8D9C8D20E030E040E251E40E94A2
:101DF0001702DC01CB01BC01CD010E944100DC01D6
:101E0000CB019C8B8B8B0FC089E190E09A8B898BE7
:101E100089899A890197F1F79A8B898B8B899C899B
:101E200001979C8B8B8B8B899C89009769F714C0D9
:101E30006D897E898F89988D0E944100DC01CB01DC
:101E40009C8B8B8B8B899C89988B8F878F859889AE
:101E50000197F1F7988B8F878AE060E00E949B05DD
:101E600080E090E0A0E0B0E48B879C87AD87BE87E0
:101E70006B857C858D859E8520E030E04AE753E4C4
:101E80000E941702DC01CB018F839887A987BA874C
:101E90006F81788589859A8520E030E040E85FE3AE
:101EA0000E94710388232CF481E090E09E838D834F
:101EB0003FC06F81788589859A8520E03FEF4FE7A5
:101EC00057E40E94110318164CF56B857C858D85AF
:101ED0009E8520E030E040E251E40E941702DC01E0
:101EE000CB01BC01CD010E944100DC01CB019E83EE
:101EF0008D830FC089E190E09C838B838B819C81D3
:101F00000197F1F79C838B838D819E8101979E833E
:101F10008D838D819E81009769F714C06F817885CC
:101F200089859A850E944100DC01CB019E838D83C7
:101F30008D819E819A83898389819A810197F1F7A6
:101F40009A8389836D960FB6F894DEBF0FBECDBF1E
:101F5000CF91DF910895DF93CF93CDB7DEB76D9723
:101F60000FB6F894DEBF0FBECDBF8D8F88E061E065
:101F70000E949B0589E060E00E949B058D8D982F53
:101F8000917080E1692F0E949B058D8D8695982F19
:101F9000917081E1692F0E949B058D8D86958695B4
:101FA000982F917082E1692F0E949B058D8D8695F7
:101FB00086958695982F917083E1692F0E949B05E5
:101FC0008D8D82958F70982F917084E1692F0E947A
:101FD0009B058D8D829586958770982F917085E1F0
:101FE000692F0E949B058D8D8295869586958370BD
:101FF000982F917086E1692F0E949B058D8D982FF7
:10200000991F9927991F87E1692F0E949B058AE0F4
:1020100061E00E949B0580E090E0A0E0B0E4898F41
:102020009A8FAB8FBC8F698D7A8D8B8D9C8D20E0C4
:1020300030E04AE753E40E941702DC01CB018D8BAC
:102040009E8BAF8BB88F6D897E898F89988D20E0AC
:1020500030E040E85FE30E94710388232CF481E0C4
:1020600090E09C8B8B8B3FC06D897E898F89988D8A
:1020700020E03FEF4FE757E40E94110318164CF59C
:10208000698D7A8D8B8D9C8D20E030E040E251E4AB
:102090000E941702DC01CB01BC01CD010E9441006E
:1020A000DC01CB019C8B8B8B0FC089E190E09A8B7C
:1020B000898B89899A890197F1F79A8B898B8B890A
:1020C0009C8901979C8B8B8B8B899C89009769F7E6
:1020D00014C06D897E898F89988D0E944100DC0132
:1020E000CB019C8B8B8B8B899C89988B8F878F8561
:1020F00098890197F1F7988B8F878AE060E00E94BA
:102100009B0580E090E0A0E0B0E48B879C87AD87E2
:10211000BE876B857C858D859E8520E030E04AE713
:1021200053E40E941702DC01CB018F839887A987B3
:10213000BA876F81788589859A8520E030E040E80C
:102140005FE30E94710388232CF481E090E09E837A
:102150008D833FC06F81788589859A8520E03FEF28
:102160004FE757E40E94110318164CF56B857C85E8
:102170008D859E8520E030E040E251E40E94170208
:10218000DC01CB01BC01CD010E944100DC01CB018F
:102190009E838D830FC089E190E09C838B838B812C
:1021A0009C810197F1F79C838B838D819E810197A0
:1021B0009E838D838D819E81009769F714C06F8106
:1021C000788589859A850E944100DC01CB019E8338
:1021D0008D838D819E819A83898389819A810197DC
:1021E000F1F79A8389836D960FB6F894DEBF0FBE20
:1021F000CDBFCF91DF910895DF93CF9300D000D072
:10220000CDB7DEB789836A838981282F30E03C838C
:102210002B838B819C81009731F02B813C81213075
:10222000310549F00FC08A81803160F48A8180587D
:102230000E945A0E07C08A81803120F48A8180541E
:102240000E945A0E0F900F900F900F90CF91DF9138
:102250000895DF93CF9300D000D0CDB7DEB78A8347
:102260007C836B838A818830F8F48A81882F90E0A0
:102270000896880F991F880F991F880F991F0E9431
:102280005A0E19820EC08981282F30E08B819C81E3
:10229000FC01E20FF31F80810E94AB0F89818F5FE9
:1022A00089838981883078F30F900F900F900F9079
:1022B000CF91DF910895DF93CF9300D00F92CDB7E8
:1022C000DEB79B838A8319820EC08981282F30E074
:1022D0008A819B81FC01E20FF31F80810E94AB0F7A
:1022E00089818F5F89838981282F30E08A819B8152
:1022F000FC01E20FF31F8081882339F70F900F90C4
:102300000F90CF91DF910895DF93CF93CDB7DEB7D4
:10231000CC56D0400FB6F894DEBF0FBECDBF0E94A2
:10232000CE0C81E00E945A0ECE01059627969FAFF3
:102330008EAF2797E0EAF0E02996FFAFEEAF29973E
:10234000F8E02A96FFAF2A972996EEADFFAD2997C0
:10235000008029968EAD9FAD2997019629969FAF53
:102360008EAF29972796EEADFFAD2797008227966F
:102370008EAD9FAD2797019627969FAF8EAF27977B
:102380002A969FAD2A9791502A969FAF2A972A9610
:10239000EFAD2A97EE23C1F6CE010D962C969FAF96
:1023A0008EAF2C97E8E9F0E02E96FFAFEEAF2E97B8
:1023B000F8E02F96FFAF2F972E96EEADFFAD2E973C
:1023C00000802E968EAD9FAD2E9701962E969FAFD4
:1023D0008EAF2E972C96EEADFFAD2C9700822C96EB
:1023E0008EAD9FAD2C9701962C969FAF8EAF2C97FC
:1023F0002F969FAD2F9791502F969FAF2F972F9687
:10240000EFAD2F97EE23C1F6CE01459661969FAFB3
:102410008EAF6197E0E9F0E06396FFAFEEAF6397B0
:10242000F8E06496FFAF64976396EEADFFAD6397F7
:10243000008063968EAD9FAD6397019663969FAFC4
:102440008EAF63976196EEADFFAD619700826196A6
:102450008EAD9FAD6197019661969FAF8EAF6197EC
:1024600064969FAD6497915064969FAF649764960D
:10247000EFAD6497EE23C1F6CE014D9666969FAF01
:102480008EAF6697E8E8F0E06896FFAFEEAF68972A
:10249000F8E06996FFAF69976896EEADFFAD689773
:1024A000008068968EAD9FAD6897019668969FAF45
:1024B0008EAF68976696EEADFFAD66970082669622
:1024C0008EAD9FAD6697019666969FAF8EAF66976D
:1024D00069969FAD6997915069969FAF6997699684
:1024E000EFAD6997EE23C1F69E012B5F3F4F80E071
:1024F000B9010E9429119E01235F3F4F81E0B9017C
:102500000E9429119E012B5E3F4F82E0B9010E947B
:1025100029119E01235E3F4F83E0B9010E942911DA
:102520008AE08C831B820EC09C8180E0692F0E9410
:10253000FC108B810E94AB0F8C8181508C838B812E
:102540008F5F8B838C8187307CF7CE0185966B966D
:102550009FAF8EAF6B97E0E8F0E06D96FFAFEEAF08
:102560006D97F8E06E96FFAF6E976D96EEADFFAD8E
:102570006D9700806D968EAD9FAD6D9701966D96AF
:102580009FAF8EAF6D976B96EEADFFAD6B970082F0
:102590006B968EAD9FAD6B9701966B969FAF8EAF8E
:1025A0006B976E969FAD6E9791506E969FAF6E979C
:1025B0006E96EFAD6E97EE23C1F6CE018D96A09686
:1025C0009FAF8EAFA097E8E7F0E0A296FFAFEEAF27
:1025D000A297F8E0A396FFAFA397A296EEADFFAD4A
:1025E000A2970080A2968EAD9FADA2970196A2966B
:1025F0009FAF8EAFA297A096EEADFFADA0970082E1
:10260000A0968EAD9FADA0970196A0969FAF8EAF7E
:10261000A097A3969FADA3979150A3969FAFA39722
:10262000A396EFADA397EE23C1F6CE01C596A5966E
:102630009FAF8EAFA597E0E7F0E0A796FFAFEEAFB4
:10264000A797F8E0A896FFAFA897A796EEADFFADC5
:10265000A7970080A7968EAD9FADA7970196A796E6
:102660009FAF8EAFA797A596EEADFFADA597008261
:10267000A5968EAD9FADA5970196A5969FAF8EAFFF
:10268000A597A8969FADA8979150A8969FAFA89799
:10269000A896EFADA897EE23C1F6CE01CD96AA96E7
:1026A0009FAF8EAFAA97E8E6F0E0AC96FFAFEEAF33
:1026B000AC97F8E0AD96FFAFAD97AC96EEADFFAD41
:1026C000AC970080AC968EAD9FADAC970196AC9662
:1026D0009FAF8EAFAC97AA96EEADFFADAA970082E2
:1026E000AA968EAD9FADAA970196AA969FAF8EAF80
:1026F000AA97AD969FADAD979150AD969FAFAD9710
:10270000AD96EFADAD97EE23C1F69E012B5D3F4F29
:1027100084E0B9010E9429119E01235D3F4F85E0AD
:10272000B9010E9429119E012B5C3F4F86E0B9013F
:102730000E9429119E01235C3F4F87E0B9010E944E
:1027400029118AE08A8384E089830EC09A8181E01E
:10275000692F0E94FC1089810E94AB0F8A818150F1
:102760008A8389818F5F89838A8187307CF7FFCF55
:102770002F923F924F925F926F927F928F929F9291
:10278000AF92BF92CF92DF92EF92FF920F931F937F
:10279000CF93DF93CDB7DEB7CA1BDB0B0FB6F89430
:1027A000DEBF0FBECDBF09942A88398848885F8470
:1027B0006E847D848C849B84AA84B984C884DF80E1
:1027C000EE80FD800C811B81AA81B981CE0FD11DC5
:1027D0000FB6F894DEBF0FBECDBFED010895F8949B
:0227E000FFCF29
:1027E20000000000000000000000000112110E00B5
:1027F2000000000003020418000015150A00000082
:10280200000001011E000C000000000E11110E005C
:102812000000000003010F000000000001011F047E
:082822000003040804031F0079
:00000001FF
