:100000000C942A000C943F000C943F000C943F0089
:100010000C943F000C943F000C943F000C943F0064
:100020000C943F000C943F000C943F000C943F0054
:100030000C943F000C943F000C943F000C943F0044
:100040000C943F000C943F000C943F000C943F0034
:100050000C943F0011241FBECFE5D8E0DEBFCDBF1A
:1000600011E0A0E6B0E0E4EFFDE202C005900D92E1
:10007000A637B107D9F70E946D150C94F8160C94A9
:100080000000EF92FF920F931F937B018C0120E001
:1000900030E040E05FE40E94410388238CF0C80117
:1000A000B70120E030E040E05FE40E94B9010E9427
:1000B000A1039B01AC01205030404040504806C095
:1000C000C801B7010E94A1039B01AC01B901CA019B
:1000D0001F910F91FF90EF900895A0E0B0E0E3E74B
:1000E000F0E00C949016DC012B01FA019C91923007
:1000F00008F439C1EB018881823008F433C19430AF
:1001000069F4843009F02FC111969C91119789816F
:10011000981709F428C1ADE6B0E025C1843009F490
:1001200021C18230A9F4923009F01DC19A01AD01BC
:1001300088E0EA010990AE01E90109929E0181502F
:10014000C1F7E201898111969C918923818308C1BD
:10015000923009F407C112962D903C901397EB0151
:100160008A819B811496AD90BD90CD90DC901797BD
:10017000EC80FD800E811F819101281B390BB90194
:1001800037FF04C066277727621B730B6032710547
:100190000CF061C0121613066CF537014801062EEB
:1001A00004C096948794779467940A94D2F721E0D8
:1001B00030E040E050E004C0220F331F441F551FC1
:1001C0006A95D2F721503040404050402E213F21C7
:1001D00040235123211531054105510521F021E02E
:1001E00030E040E050E079018A01E628F72808294C
:1001F00019293CC0232BD1F1260E371E35014601AB
:10020000062E04C096948794779467940A94D2F744
:1002100021E030E040E050E004C0220F331F441FD3
:10022000551F6A95D2F721503040404050402A2156
:100230003B214C215D21211531054105510521F05E
:1002400021E030E040E050E059016A01A628B728DB
:10025000C828D9280BC0821593052CF01C01AA24AC
:10026000BB24650103C0EE24FF24870111969C91F5
:10027000D20111968C91981709F445C0992339F051
:10028000A80197012A193B094C095D0906C0A6017E
:1002900095012E193F09400B510B57FD08C01182E3
:1002A0003382228224833583468357831DC081E0B5
:1002B00081833382228288279927DC01821B930B5A
:1002C000A40BB50B84839583A683B7830DC0220F3F
:1002D000331F441F551F24833583468357838281F0
:1002E000938101979383828324813581468157814D
:1002F000DA01C9010197A109B1098F5F9F4FAF4F83
:10030000BF4328F30BC0918333822282EA0CFB1C8B
:100310000C1D1D1DE482F5820683178383E0808314
:10032000248135814681578157FF1AC0C901AA2708
:1003300097FDA095BA2F81709070A070B0705695FF
:10034000479537952795822B932BA42BB52B848328
:100350009583A683B7838281938101969383828359
:10036000DF0101C0D201CD01CDB7DEB7E2E10C94CF
:10037000AC16A0E2B0E0EFEBF1E00C949C166983C0
:100380007A838B839C832D833E834F835887E9E058
:10039000EE2EF12CEC0EFD1ECE010196B7010E944F
:1003A00092058E010F5E1F4FCE010596B8010E9487
:1003B00092058A8991E089278A8BC701B801AE012D
:1003C000475E5F4F0E946D000E94BD04A096E6E06C
:1003D0000C94B816A0E2B0E0E0EFF1E00C949C16AB
:1003E00069837A838B839C832D833E834F835887D5
:1003F000F9E0EF2EF12CEC0EFD1ECE010196B701B7
:100400000E9492058E010F5E1F4FCE010596B80126
:100410000E949205C701B801AE01475E5F4F0E947E
:100420006D000E94BD04A096E6E00C94B816A0E210
:10043000B0E0EDE1F2E00C94901669837A838B834F
:100440009C832D833E834F835887CE010196BE0146
:10045000675F7F4F0E949205CE010596BE016F5ED9
:100460007F4F0E9492059985923088F08989823069
:10047000C8F0943019F4823051F404C0843029F467
:10048000923081F48DE690E0C6C0923049F420E0CD
:100490009A858A89981321E02A87CE010996BBC0E4
:1004A000823049F420E09A858A89981321E02A8BCA
:1004B000CE014196B0C02D843E844F8458886D880B
:1004C0007E888F88988CEE24FF248701AA24BB2481
:1004D000650140E050E060E070E0E0E0F0E0C10184
:1004E00081709070892BE9F0E60CF71C081D191D2E
:1004F0009A01AB012A0D3B1D4C1D5D1D80E090E073
:10050000A0E0B0E0E614F7040805190520F481E046
:1005100090E0A0E0B0E0BA01A901480F591F6A1F9E
:100520007B1FAA0CBB1CCC1CDD1C97FE08C081E005
:1005300090E0A0E0B0E0A82AB92ACA2ADB2A3196C6
:10054000E032F10549F0660C771C881C991C569422
:10055000479437942794C3CFFA85EA892B893C893D
:100560008B859C85280F391F2E5F3F4F17C0CA010E
:1005700081709070892B61F016950795F794E79438
:1005800080E090E0A0E0B0E8E82AF92A0A2B1B2BD3
:1005900076956795579547952F5F3F4F77FDE7CF46
:1005A0000CC0440F551F661F771F17FD4160EE0CEE
:1005B000FF1C001F111F21503040403090E05907B0
:1005C00090E0690790E4790760F32B8F3C8FDB01A3
:1005D000CA018F779070A070B07080349105A1052A
:1005E000B10561F447FD0AC0E114F10401051105EC
:1005F00029F0405C5F4F6F4F7F4F40781A8EFE1797
:1006000011F081E08A8F4D8F5E8F6F8F78A383E02A
:10061000898FCE0149960E94BD04A096E2E10C9418
:10062000AC16A8E1B0E0E7E1F3E00C949C16698316
:100630007A838B839C832D833E834F83588789E005
:10064000E82EF12CEC0EFD1ECE010196B7010E94A2
:1006500092058E010F5E1F4FCE010596B8010E94D4
:1006600092058985823040F08989823028F0C7015F
:10067000B8010E940A0601C08FEF6896E6E00C946C
:10068000B816A8E1B0E0E7E4F3E00C949C166983A7
:100690007A838B839C832D833E834F83588789E0A5
:1006A000E82EF12CEC0EFD1ECE010196B7010E9442
:1006B00092058E010F5E1F4FCE010596B8010E9474
:1006C00092058985823040F08989823028F0C701FF
:1006D000B8010E940A0601C08FEF6896E6E00C940C
:1006E000B816A8E1B0E0E7E7F3E00C949C16698344
:1006F0007A838B839C832D833E834F83588789E045
:10070000E82EF12CEC0EFD1ECE010196B7010E94E1
:1007100092058E010F5E1F4FCE010596B8010E9413
:1007200092058985823040F08989823028F0C7019E
:10073000B8010E940A0601C081E06896E6E00C94C8
:10074000B816ACE0B0E0E7EAF3E00C94A0166983D9
:100750007A838B839C83CE010196BE016B5F7F4FB2
:100760000E9492058D81823061F1823050F1843097
:1007700021F48E81882351F12EC02F81388537FDD9
:1007800020C06E812F3131051CF06623F9F023C0A3
:100790008EE190E0821B930B29853A854B855C8521
:1007A00004C056954795379527958A95D2F76623C5
:1007B000B1F050954095309521953F4F4F4F5F4F89
:1007C0000EC020E030E040E050E009C02FEF3FEFE6
:1007D0004FEF5FE704C020E030E040E050E8B901AF
:1007E000CA012C96E2E00C94BC16A8E0B0E0EBEF56
:1007F000F3E00C9498167B018C016115710581055D
:10080000910519F482E0898360C083E089838EE1D9
:10081000C82ED12CDC82CB82ED82FE820F8318871A
:10082000C801B7010E946E04FC013197F7FF3BC07D
:10083000222733272E1B3F0B57016801022E04C0CD
:10084000D694C794B794A7940A94D2F740E050E0A6
:1008500060E070E081E090E0A0E0B0E004C0880FCC
:10086000991FAA1FBB1F2A95D2F70197A109B109A9
:100870008E219F21A023B1230097A105B10521F06E
:1008800041E050E060E070E04A295B296C297D2955
:100890004D835E836F8378878EE190E08E1B9F0B84
:1008A0009C838B8312C0309781F00E2E04C0EE0C17
:1008B000FF1C001F111F0A94D2F7ED82FE820F83E6
:1008C0001887CE1ADF0ADC82CB821A82CE0101960B
:1008D0000E94BD042896EAE00C94B416EF92FF92B1
:1008E0000F931F937B018C0180E0E81680E0F806EF
:1008F00081E0080780E0180788F48FEFE816F1041C
:100900000105110531F028F088E090E0A0E0B0E0AA
:1009100017C080E090E0A0E0B0E012C080E0E816F0
:1009200080E0F80680E0080781E0180728F088E1F9
:1009300090E0A0E0B0E004C080E190E0A0E0B0E092
:1009400020E230E040E050E0281B390B4A0B5B0B03
:1009500004C016950795F794E7948A95D2F7F701A6
:10096000EB58FF4F8081281B310941095109C9010A
:100970001F910F91FF90EF900895DF92EF92FF92F9
:100980000F931F93FC01E480F58006811781D180CD
:100990008081823048F480E090E0A0E1B0E0E82A75
:1009A000F92A0A2B1B2BA5C0843009F49FC0823082
:1009B00021F4EE24FF24870105C0E114F1040105B0
:1009C000110519F4E0E0F0E096C0628173819FEFB9
:1009D000623879070CF05BC022E83FEF261B370B2B
:1009E0002A3131052CF020E030E040E050E02AC010
:1009F000B801A701022E04C07695679557954795D3
:100A00000A94D2F781E090E0A0E0B0E004C0880F43
:100A1000991FAA1FBB1F2A95D2F70197A109B109F7
:100A20008E219F21A023B1230097A105B10521F0BC
:100A300081E090E0A0E0B0E09A01AB01282B392BD7
:100A40004A2B5B2BDA01C9018F779070A070B070D0
:100A500080349105A105B10539F427FF09C0205C58
:100A60003F4F4F4F5F4F04C0215C3F4F4F4F5F4F91
:100A7000E0E0F0E02030A0E03A07A0E04A07A0E480
:100A80005A0710F0E1E0F0E079018A0127C06038F0
:100A9000710564F5FB01E158FF4FD801C7018F775D
:100AA0009070A070B07080349105A105B10539F443
:100AB000E7FE0DC080E490E0A0E0B0E004C08FE36A
:100AC00090E0A0E0B0E0E80EF91E0A1F1B1F17FF20
:100AD00005C016950795F794E794319687E016952B
:100AE0000795F794E7948A95D1F705C0EE24FF2483
:100AF0008701EFEFF0E06E2F679566276795902FDF
:100B00009F77D794DD24D7948E2F8695492F462B37
:100B1000582F5D29B701CA011F910F91FF90EF90E7
:100B2000DF900895FC01DB01408151812281622F19
:100B30006F7770E0221F2227221F9381892F880F51
:100B4000822B282F30E0991F9927991F11969C938B
:100B5000119721153105A9F541155105610571055B
:100B600011F482E037C082E89FEF13969C938E9336
:100B700012979A01AB0167E0220F331F441F551FE4
:100B80006A95D1F783E08C930DC0220F331F441F69
:100B9000551F12968D919C911397019713969C93D4
:100BA0008E931297203080E0380780E0480780E479
:100BB000580758F314962D933D934D935C931797D4
:100BC00008952F3F310579F44115510561057105EF
:100BD00019F484E08C93089564FF03C081E08C9342
:100BE00012C01C9210C02F57304013963C932E9386
:100BF000129783E08C9387E0440F551F661F771F81
:100C00008A95D1F7706414964D935D936D937C93A0
:100C1000179708951F93DC01FB019C91923008F413
:100C200047C08081823008F443C0943051F411965B
:100C30001C91843099F58181682F70E0611B7109E6
:100C40003FC0843021F0923031F48230B9F181819B
:100C5000882389F12DC011961C9111978230F1F0F3
:100C600081811817D9F412962D913C9113978281A6
:100C700093818217930794F028173907BCF01496D4
:100C80008D919D910D90BC91A02D2481358146813F
:100C90005781281739074A075B0718F4112341F0D9
:100CA0000AC082179307A407B50740F4112319F06F
:100CB00061E070E005C06FEF7FEF02C060E070E0C0
:100CC000CB011F910895DF93CF930F92CDB7DEB77D
:100CD000E7E2F0E080E48083E6E2F0E08BE080830E
:100CE000E0E5F0E08081E0E5F0E010820F90CF9148
:100CF000DF910895DF93CF930F92CDB7DEB789834D
:100D0000A6E2B0E0E6E2F0E0808180688C930F908C
:100D1000CF91DF910895DF93CF93CDB7DEB7A6E2F1
:100D2000B0E0E6E2F0E0808180648C93CF91DF91C7
:100D30000895DF93CF9300D0CDB7DEB70E94BB06F6
:100D40008823E1F30E94C806E4E2F0E08081282FC6
:100D500030E0E5E2F0E08081882F90E0982F88274E
:100D6000822B932B9A83898389819A810F900F908C
:100D7000CF91DF910895DF93CF93CDB7DEB7E6E251
:100D8000F0E0808182958F708170CF91DF9108951E
:100D9000DF93CF93CDB7DEB7A6E2B0E0E6E2F0E0B6
:100DA000808180618C93CF91DF910895DF93CF9301
:100DB000CDB7DEB727970FB6F894DEBF0FBECDBF15
:100DC0008C836D8381E08B838C8186958695869557
:100DD0008A838C81877089838C81813208F0E1C09D
:100DE0008A81282F30E03F832E838E819F8181303E
:100DF000910509F447C02E813F81223031052CF442
:100E00008E819F81009771F0CEC02E813F8122306C
:100E1000310509F467C08E819F818330910509F403
:100E200091C0C1C08D818130A1F4ABE3B0E0EBE3B0
:100E3000F0E08081482F8981282F30E081E090E028
:100E4000022E02C0880F991F0A94E2F7842B8C931C
:100E5000AAC08D81882309F0A6C0ABE3B0E0EBE324
:100E6000F0E08081482F8981282F30E081E090E0F8
:100E7000022E02C0880F991F0A94E2F780958423FE
:100E80008C9391C08D818130A1F4A8E3B0E0E8E3B8
:100E9000F0E08081482F8981282F30E081E090E0C8
:100EA000022E02C0880F991F0A94E2F7842B8C93BC
:100EB0007AC08D81882309F076C0A8E3B0E0E8E32A
:100EC000F0E08081482F8981282F30E081E090E098
:100ED000022E02C0880F991F0A94E2F7809584239E
:100EE0008C9361C08D818130A1F4A5E3B0E0E5E38E
:100EF000F0E08081482F8981282F30E081E090E068
:100F0000022E02C0880F991F0A94E2F7842B8C935B
:100F10004AC08D81882309F046C0A5E3B0E0E5E32F
:100F2000F0E08081482F8981282F30E081E090E037
:100F3000022E02C0880F991F0A94E2F7809584233D
:100F40008C9331C08D818130A1F4A2E3B0E0E2E363
:100F5000F0E08081482F8981282F30E081E090E007
:100F6000022E02C0880F991F0A94E2F7842B8C93FB
:100F70001AC08D818823B9F4A2E3B0E0E2E3F0E087
:100F80008081482F8981282F30E081E090E0022E77
:100F900002C0880F991F0A94E2F7809584238C93EE
:100FA00002C083E08B838B8127960FB6F894DEBF57
:100FB0000FBECDBFCF91DF910895DF93CF93CDB713
:100FC000DEB728970FB6F894DEBF0FBECDBF8C8377
:100FD0007E836D8381E08B838C81813208F079C0C0
:100FE0008C818695869586958A838C818770898386
:100FF0008A81282F30E038872F834F8158854130F0
:10100000510559F18F8198858230910534F42F81F3
:1010100038852115310569F05EC04F815885423011
:10102000510579F18F8198858330910509F43DC090
:1010300052C0E9E3F0E08081282F30E08981882FD9
:1010400090E0A90102C0559547958A95E2F7CA013B
:101050008170ED81FE8180833EC0E6E3F0E0808117
:10106000282F30E08981882F90E0A90102C0559592
:1010700047958A95E2F7CA018170ED81FE818083F0
:101080002AC0E3E3F0E08081282F30E08981882FB7
:1010900090E0A90102C0559547958A95E2F7CA01EB
:1010A0008170ED81FE81808316C0E0E3F0E08081F5
:1010B000282F30E08981882F90E0A90102C0559542
:1010C00047958A95E2F7CA018170ED81FE818083A0
:1010D00002C082E08B838B8128960FB6F894DEBF26
:1010E0000FBECDBFCF91DF910895DF93CF9300D096
:1010F00000D00F92CDB7DEB78A836B8381E08983FE
:101100008A81853098F58A81282F30E03D832C83B1
:101110008C819D8181309105D1F02C813D812230DF
:1011200031052CF48C819D81009761F021C02C81C8
:101130003D812230310581F08C819D818330910584
:1011400081F016C0EBE3F0E08B81808311C0E8E30F
:10115000F0E08B8180830CC0E5E3F0E08B8180833D
:1011600007C0E2E3F0E08B81808302C083E08983E3
:1011700089810F900F900F900F900F90CF91DF917A
:101180000895DF93CF9300D000D000D0CDB7DEB765
:101190008A837C836B8381E089838A818530D8F55B
:1011A0008A81282F30E03E832D838D819E8181307E
:1011B0009105E1F02D813E81223031052CF48D81A5
:1011C0009E81009761F029C02D813E81223031053A
:1011D000A1F08D819E8183309105B1F01EC0EBE3BB
:1011E000F0E08081EB81FC81808317C0E8E3F0E0D0
:1011F0008081EB81FC81808310C0E5E3F0E0808199
:10120000EB81FC81808309C0E2E3F0E08081EB8127
:10121000FC81808302C082E08983898126960FB693
:10122000F894DEBF0FBECDBFCF91DF910895DF935D
:10123000CF9300D000D000D0CDB7DEB78C8381E053
:101240008B838C81813208F077C08C81869586955E
:1012500086958A838C81877089838A81282F30E0E4
:101260003E832D838D819E818130910549F12D81B1
:101270003E81223031052CF48D819E81009761F0F2
:101280005DC02D813E812230310571F18D819E81BD
:1012900083309105E9F152C0ABE3B0E0EBE3F0E05D
:1012A0008081482F8981282F30E081E090E0022E54
:1012B00002C0880F991F0A94E2F784278C933EC0DE
:1012C000ABE3B0E0EBE3F0E08081482F8981282F89
:1012D00030E081E090E0022E02C0880F991F0A944E
:1012E000E2F784278C932AC0ABE3B0E0EBE3F0E0B5
:1012F0008081482F8981282F30E081E090E0022E04
:1013000002C0880F991F0A94E2F784278C9316C0B5
:10131000ABE3B0E0EBE3F0E08081482F8981282F38
:1013200030E081E090E0022E02C0880F991F0A94FD
:10133000E2F784278C9302C082E08B838B81269610
:101340000FB6F894DEBF0FBECDBFCF91DF910895E9
:10135000DF93CF93CDB7DEB727970FB6F894DEBFF4
:101360000FBECDBF8C836D8383E08B838C818032F5
:1013700010F01B82DFC08D81823018F081E08B83FA
:10138000D9C08C8187708A838C8186958695869555
:1013900089838981282F30E03F832E838E819F812E
:1013A0008130910509F443C02E813F8122303105FF
:1013B0002CF48E819F81009771F0BCC02E813F81FB
:1013C0002230310509F45FC08E819F818330910501
:1013D00009F485C0AFC08D818130A1F4AAE3B0E0EB
:1013E000EAE3F0E08081482F8A81282F30E081E015
:1013F00090E0022E02C0880F991F0A94E2F7842B16
:101400008C9398C0AAE3B0E0EAE3F0E08081482F33
:101410008A81282F30E081E090E0022E02C0880F00
:10142000991F0A94E2F7809584238C9383C08D8161
:101430008130A1F4A7E3B0E0E7E3F0E08081482F3A
:101440008A81282F30E081E090E0022E02C0880FD0
:10145000991F0A94E2F7842B8C936CC0A7E3B0E049
:10146000E7E3F0E08081482F8A81282F30E081E097
:1014700090E0022E02C0880F991F0A94E2F780952F
:1014800084238C9357C08D818130A1F4A4E3B0E014
:10149000E4E3F0E08081482F8A81282F30E081E06A
:1014A00090E0022E02C0880F991F0A94E2F7842B65
:1014B0008C9340C0A4E3B0E0E4E3F0E08081482FE7
:1014C0008A81282F30E081E090E0022E02C0880F50
:1014D000991F0A94E2F7809584238C932BC08D8109
:1014E0008130A1F4A1E3B0E0E1E3F0E08081482F96
:1014F0008A81282F30E081E090E0022E02C0880F20
:10150000991F0A94E2F7842B8C9314C0A1E3B0E0F6
:10151000E1E3F0E08081482F8A81282F30E081E0EC
:1015200090E0022E02C0880F991F0A94E2F780957E
:1015300084238C938B8127960FB6F894DEBF0FBE61
:10154000CDBFCF91DF910895DF93CF93CDB7DEB7B5
:101550002F970FB6F894DEBF0FBECDBF8C836D837F
:1015600083E08B838D81853018F082E08B8323C3E9
:101570008C81803210F01B821EC38C8186958695EB
:1015800086958A838C81877089838A81282F30E0B1
:101590003F872E878E859F858130910509F4D4C0C1
:1015A0002E853F85223031052CF48E859F8500974E
:1015B00071F001C32E853F852230310509F481C1C8
:1015C0008E859F858330910509F439C2F4C28D81DF
:1015D000282F30E03D872C878C859D8581309105B3
:1015E000B9F02C853D85223031052CF48C859D8504
:1015F0000097A1F1E0C22C853D852230310509F428
:1016000054C08C859D858330910509F475C0D3C283
:10161000AAE3B0E0EAE3F0E08081482F8981282F37
:1016200030E081E090E002C0880F991F2A95E2F730
:10163000842B8C93ABE3B0E0EBE3F0E08081482FA8
:101640008981282F30E081E090E0022E02C0880FCF
:10165000991F0A94E2F7842B8C93ADC2AAE3B0E001
:10166000EAE3F0E08081482F8981282F30E081E093
:1016700090E002C0880F991F2A95E2F7842B8C9383
:10168000ABE3B0E0EBE3F0E08081482F8981282FC5
:1016900030E081E090E0022E02C0880F991F0A948A
:1016A000E2F7809584238C9386C2AAE3B0E0EAE354
:1016B000F0E08081482F8981282F30E081E090E0A0
:1016C00002C0880F991F2A95E2F7809584238C9396
:1016D000ABE3B0E0EBE3F0E08081482F8981282F75
:1016E00030E081E090E0022E02C0880F991F0A943A
:1016F000E2F7842B8C935FC2AAE3B0E0EAE3F0E068
:101700008081482F8981282F30E081E090E002C05D
:10171000880F991F2A95E2F7809584238C93ABE379
:10172000B0E0EBE3F0E08081482F8981282F30E0A2
:1017300081E090E0022E02C0880F991F0A94E2F720
:10174000809584238C9337C28D81282F30E03B878E
:101750002A878A859B8581309105B9F02A853B854A
:10176000223031052CF48A859B850097A1F123C294
:101770002A853B852230310509F454C08A859B8532
:101780008330910509F475C016C2A7E3B0E0E7E322
:10179000F0E08081482F8981282F30E081E090E0BF
:1017A00002C0880F991F2A95E2F7842B8C93A8E337
:1017B000B0E0E8E3F0E08081482F8981282F30E015
:1017C00081E090E0022E02C0880F991F0A94E2F790
:1017D000842B8C93F0C1A7E3B0E0E7E3F0E08081D5
:1017E000482F8981282F30E081E090E002C0880FE7
:1017F000991F2A95E2F7842B8C93A8E3B0E0E8E3E5
:10180000F0E08081482F8981282F30E081E090E04E
:10181000022E02C0880F991F0A94E2F78095842354
:101820008C93C9C1A7E3B0E0E7E3F0E08081482FE3
:101830008981282F30E081E090E002C0880F991F55
:101840002A95E2F7809584238C93A8E3B0E0E8E33F
:10185000F0E08081482F8981282F30E081E090E0FE
:10186000022E02C0880F991F0A94E2F7842B8C93F2
:10187000A2C1A7E3B0E0E7E3F0E08081482F8981CF
:10188000282F30E081E090E002C0880F991F2A9550
:10189000E2F7809584238C93A8E3B0E0E8E3F0E0DE
:1018A0008081482F8981282F30E081E090E0022E4E
:1018B00002C0880F991F0A94E2F7809584238C93C5
:1018C0007AC18D81282F30E03987288788859985CE
:1018D00081309105B9F028853985223031052CF405
:1018E000888599850097A1F166C1288539852230C0
:1018F000310509F455C0888599858330910509F42F
:1019000076C059C1A4E3B0E0E4E3F0E08081482F61
:101910008981282F30E081E090E002C0880F991F74
:101920002A95E2F7842B8C93A5E3B0E0E5E3F0E0A1
:101930008081482F8981282F30E081E090E0022EBD
:1019400002C0880F991F0A94E2F7842B8C9333C14D
:10195000A4E3B0E0E4E3F0E08081482F8981282F00
:1019600030E081E090E002C0880F991F2A95E2F7ED
:10197000809584238C93A5E3B0E0E5E3F0E08081DB
:10198000482F8981282F30E081E090E0022E02C0AC
:10199000880F991F0A94E2F7809584238C930BC1DA
:1019A000A4E3B0E0E4E3F0E08081482F8981282FB0
:1019B00030E081E090E002C0880F991F2A95E2F79D
:1019C000809584238C93A5E3B0E0E5E3F0E080818B
:1019D000482F8981282F30E081E090E0022E02C05C
:1019E000880F991F0A94E2F7842B8C93E4C0A4E338
:1019F000B0E0E4E3F0E08081482F8981282F30E0D7
:101A000081E090E002C0880F991F2A95E2F7809547
:101A100084238C93A5E3B0E0E5E3F0E08081482FD8
:101A20008981282F30E081E090E0022E02C0880FEB
:101A3000991F0A94E2F7809584238C93BCC08D8112
:101A4000282F30E03F832E838E819F818130910546
:101A5000B9F02E813F81223031052CF48E819F8197
:101A60000097A1F1A8C02E813F812230310509F4F1
:101A700054C08E819F818330910509F475C09BC04D
:101A8000A1E3B0E0E1E3F0E08081482F8981282FD5
:101A900030E081E090E002C0880F991F2A95E2F7BC
:101AA000842B8C93A2E3B0E0E2E3F0E08081482F46
:101AB0008981282F30E081E090E0022E02C0880F5B
:101AC000991F0A94E2F7842B8C9375C0A1E3B0E0D0
:101AD000E1E3F0E08081482F8981282F30E081E028
:101AE00090E002C0880F991F2A95E2F7842B8C930F
:101AF000A2E3B0E0E2E3F0E08081482F8981282F63
:101B000030E081E090E0022E02C0880F991F0A9415
:101B1000E2F7809584238C934EC0A1E3B0E0E1E32B
:101B2000F0E08081482F8981282F30E081E090E02B
:101B300002C0880F991F2A95E2F7809584238C9321
:101B4000ABE3B0E0EBE3F0E08081482F8981282F00
:101B500030E081E090E0022E02C0880F991F0A94C5
:101B6000E2F7842B8C9327C0A1E3B0E0E1E3F0E03F
:101B70008081482F8981282F30E081E090E002C0E9
:101B8000880F991F2A95E2F7809584238C93A2E30E
:101B9000B0E0E2E3F0E08081482F8981282F30E037
:101BA00081E090E0022E02C0880F991F0A94E2F7AC
:101BB000809584238C938B812F960FB6F894DEBF8B
:101BC0000FBECDBFCF91DF910895DF93CF93CDB7F7
:101BD000DEB7EAE3F0E08EEF8083EBE3F0E081E054
:101BE0008083E7E3F0E08FEF8083E8E3F0E080EFCD
:101BF0008083E4E3F0E08FEF8083E5E3F0E01082A0
:101C0000E1E3F0E08EEF8083E2E3F0E081E08083C7
:101C1000CF91DF9108950F931F93DF93CF93CDB7AB
:101C2000DEB7C654D0400FB6F894DEBF0FBECDBFAE
:101C3000FE01ED5BFF4F80E090E0A0EFB1E4808318
:101C40009183A283B3838E01015C1F4FFE01ED5B84
:101C5000FF4F608171818281938120E030E04AEF03
:101C600054E40E941702DC01CB01F80180839183C8
:101C7000A283B383FE01FF9660817181828193818B
:101C800020E030E040E85FE30E94710388232CF4F9
:101C900081E090E09EAF8DAF46C0FE01FF9660816F
:101CA00071818281938120E03FEF4FE757E40E94EA
:101CB0001103181664F5FE01ED5BFF4F6081718121
:101CC0008281938120E030E040E251E40E941702DB
:101CD000DC01CB01BC01CD010E944100DC01CB0144
:101CE0009EAF8DAF0FC088EC90E09CAF8BAF8BADFB
:101CF0009CAD0197F1F79CAF8BAF8DAD9EAD019779
:101D00009EAF8DAF8DAD9EAD009769F716C0FE01F9
:101D1000FF9660817181828193810E944100DC0184
:101D2000CB019EAF8DAF8DAD9EAD9AAF89AF89AD22
:101D30009AAD0197F1F79AAF89AF88E30E947D10C1
:101D400080E090E0A0E8BFE38DAB9EABAFABB8AF57
:101D50006DA97EA98FA998AD20E030E04AEF54E448
:101D60000E941702DC01CB0189AB9AABABABBCABD9
:101D700069A97AA98BA99CA920E030E040E85FE33B
:101D80000E94710388232CF481E090E098AB8FA728
:101D90003FC069A97AA98BA99CA920E03FEF4FE732
:101DA00057E40E94110318164CF56DA97EA98FA95E
:101DB00098AD20E030E040E251E40E941702DC01DF
:101DC000CB01BC01CD010E944100DC01CB0198ABED
:101DD0008FA70FC088EC90E09EA78DA78DA59EA52C
:101DE0000197F1F79EA78DA78FA598A9019798ABAA
:101DF0008FA78FA598A9009769F714C069A97AA938
:101E00008BA99CA90E944100DC01CB0198AB8FA754
:101E10008FA598A99CA78BA78BA59CA50197F1F7E7
:101E20009CA78BA78CE00E947D1080E090E0A0E84A
:101E3000BFE38FA398A7A9A7BAA76FA178A589A583
:101E40009AA520E030E04AEF54E40E941702DC013A
:101E5000CB018BA39CA3ADA3BEA36BA17CA18DA141
:101E60009EA120E030E040E85FE30E9471038823F8
:101E70002CF481E090E09AA389A33FC06BA17CA1E0
:101E80008DA19EA120E03FEF4FE757E40E94110390
:101E900018164CF56FA178A589A59AA520E030E029
:101EA00040E251E40E941702DC01CB01BC01CD01EC
:101EB0000E944100DC01CB019AA389A30FC088ECEA
:101EC00090E098A38F8F8F8D98A10197F1F798A339
:101ED0008F8F89A19AA101979AA389A389A19AA119
:101EE000009769F714C06BA17CA18DA19EA10E94EF
:101EF0004100DC01CB019AA389A389A19AA19E8FFD
:101F00008D8F8D8D9E8D0197F1F79E8F8D8F81E046
:101F10000E947D1080E090E0A0E8BFE3898F9A8F57
:101F2000AB8FBC8F698D7A8D8B8D9C8D20E030E0DE
:101F30004AEF54E40E941702DC01CB018D8B9E8B8B
:101F4000AF8BB88F6D897E898F89988D20E030E0C6
:101F500040E85FE30E94710388232CF481E090E065
:101F60009C8B8B8B3FC06D897E898F89988D20E0FB
:101F70003FEF4FE757E40E94110318164CF5698DA7
:101F80007A8D8B8D9C8D20E030E040E251E40E9400
:101F90001702DC01CB01BC01CD010E944100DC0134
:101FA000CB019C8B8B8B0FC088EC90E09A8B898B3C
:101FB00089899A890197F1F79A8B898B8B899C89FA
:101FC00001979C8B8B8B8B899C89009769F714C038
:101FD0006D897E898F89988D0E944100DC01CB013B
:101FE0009C8B8B8B8B899C89988B8F878F8598890D
:101FF0000197F1F7988B8F8786E00E947D1080E033
:1020000090E0A0E8BFE38B879C87AD87BE876B8598
:102010007C858D859E8520E030E04AEF54E40E9467
:102020001702DC01CB018F839887A987BA876F815C
:10203000788589859A8520E030E040E85FE30E945A
:10204000710388232CF481E090E09E838D833FC050
:102050006F81788589859A8520E03FEF4FE757E4C7
:102060000E94110318164CF56B857C858D859E8525
:1020700020E030E040E251E40E941702DC01CB0195
:10208000BC01CD010E944100DC01CB019E838D8308
:102090000FC088EC90E09C838B838B819C8101979F
:1020A000F1F79C838B838D819E8101979E838D8325
:1020B0008D819E81009769F714C06F81788589852D
:1020C0009A850E944100DC01CB019E838D838D8126
:1020D0009E819A83898389819A810197F1F79A83F6
:1020E0008983CA5BDF4F0FB6F894DEBF0FBECDBF4A
:1020F000CF91DF911F910F910895DF93CF93CDB7CB
:10210000DEB7AB970FB6F894DEBF0FBECDBF8BA77F
:102110008AE060E00E94D60688E060E00E94D60671
:1021200089E060E00E94D6068BA50E941A158AE01D
:1021300061E00E94D60680E090E0A0E0B0E48FA3CA
:1021400098A7A9A7BAA76FA178A589A59AA520E005
:1021500030E04AEF54E40E941702DC01CB018BA36C
:102160009CA3ADA3BEA36BA17CA18DA19EA120E0E9
:1021700030E040E85FE30E94710388232CF481E0A3
:1021800090E09AA389A33FC06BA17CA18DA19EA1E1
:1021900020E03FEF4FE757E40E94110318164CF57B
:1021A0006FA178A589A59AA520E030E040E251E42E
:1021B0000E941702DC01CB01BC01CD010E9441004D
:1021C000DC01CB019AA389A30FC088EC90E098A30F
:1021D0008F8F8F8D98A10197F1F798A38F8F89A189
:1021E0009AA101979AA389A389A19AA1009769F757
:1021F00014C06BA17CA18DA19EA10E944100DC01B5
:10220000CB019AA389A389A19AA19E8F8D8F8D8DD1
:102210009E8D0197F1F79E8F8D8F8AE060E00E947E
:10222000D60680E090E0A0E0B0E4898F9A8FAB8F73
:10223000BC8F698D7A8D8B8D9C8D20E030E04AEFCC
:1022400054E40E941702DC01CB018D8B9E8BAF8B77
:10225000B88F6D897E898F89988D20E030E040E8C5
:102260005FE30E94710388232CF481E090E09C8B53
:102270008B8B3FC06D897E898F89988D20E03FEFE1
:102280004FE757E40E94110318164CF5698D7A8DBB
:102290008B8D9C8D20E030E040E251E40E941702DB
:1022A000DC01CB01BC01CD010E944100DC01CB016E
:1022B0009C8B8B8B0FC088EC90E09A8B898B8989E3
:1022C0009A890197F1F79A8B898B8B899C89019761
:1022D0009C8B8B8B8B899C89009769F714C06D89C7
:1022E0007E898F89988D0E944100DC01CB019C8BF7
:1022F0008B8B8B899C89988B8F878F859889019789
:10230000F1F7988B8F8780E090E0A0E8BFE38B87A0
:102310009C87AD87BE876B857C858D859E8520E0FB
:1023200030E04AEF54E40E941702DC01CB018F83B6
:102330009887A987BA876F81788589859A8520E0F3
:1023400030E040E85FE30E94710388232CF481E0D1
:1023500090E09E838D833FC06F81788589859A85C3
:1023600020E03FEF4FE757E40E94110318164CF5A9
:102370006B857C858D859E8520E030E040E251E4D0
:102380000E941702DC01CB01BC01CD010E9441007B
:10239000DC01CB019E838D830FC088EC90E09C8391
:1023A0008B838B819C810197F1F79C838B838D813B
:1023B0009E8101979E838D838D819E81009769F711
:1023C00014C06F81788589859A850E944100DC015F
:1023D000CB019E838D838D819E819A8389838981A0
:1023E0009A810197F1F79A838983AB960FB6F89497
:1023F000DEBF0FBECDBFCF91DF910895DF93CF93A6
:10240000CDB7DEB7AB970FB6F894DEBF0FBECDBF2A
:102410008BA78AE060E00E94D60688E061E00E9417
:10242000D60689E060E00E94D6068BA50E941A15A8
:102430008AE061E00E94D60680E090E0A0E0B0E48F
:102440008FA398A7A9A7BAA76FA178A589A59AA5D0
:1024500020E030E04AEF54E40E941702DC01CB0197
:102460008BA39CA3ADA3BEA36BA17CA18DA19EA1B8
:1024700020E030E040E85FE30E94710388232CF401
:1024800081E090E09AA389A33FC06BA17CA18DA1BC
:102490009EA120E03FEF4FE757E40E94110318167A
:1024A0004CF56FA178A589A59AA520E030E040E21F
:1024B00051E40E941702DC01CB01BC01CD010E9456
:1024C0004100DC01CB019AA389A30FC088EC90E006
:1024D00098A38F8F8F8D98A10197F1F798A38F8F75
:1024E00089A19AA101979AA389A389A19AA100978A
:1024F00069F714C06BA17CA18DA19EA10E9441002F
:10250000DC01CB019AA389A389A19AA19E8F8D8F0B
:102510008D8D9E8D0197F1F79E8F8D8F8AE060E003
:102520000E94D60680E090E0A0E0B0E4898F9A8F08
:10253000AB8FBC8F698D7A8D8B8D9C8D20E030E0C8
:102540004AEF54E40E941702DC01CB018D8B9E8B75
:10255000AF8BB88F6D897E898F89988D20E030E0B0
:1025600040E85FE30E94710388232CF481E090E04F
:102570009C8B8B8B3FC06D897E898F89988D20E0E5
:102580003FEF4FE757E40E94110318164CF5698D91
:102590007A8D8B8D9C8D20E030E040E251E40E94EA
:1025A0001702DC01CB01BC01CD010E944100DC011E
:1025B000CB019C8B8B8B0FC088EC90E09A8B898B26
:1025C00089899A890197F1F79A8B898B8B899C89E4
:1025D00001979C8B8B8B8B899C89009769F714C022
:1025E0006D897E898F89988D0E944100DC01CB0125
:1025F0009C8B8B8B8B899C89988B8F878F859889F7
:102600000197F1F7988B8F8780E090E0A0E8BFE317
:102610008B879C87AD87BE876B857C858D859E85E6
:1026200020E030E04AEF54E40E941702DC01CB01C5
:102630008F839887A987BA876F81788589859A85DE
:1026400020E030E040E85FE30E94710388232CF42F
:1026500081E090E09E838D833FC06F81788589857E
:102660009A8520E03FEF4FE757E40E9411031816C8
:102670004CF56B857C858D859E8520E030E040E2C1
:1026800051E40E941702DC01CB01BC01CD010E9484
:102690004100DC01CB019E838D830FC088EC90E06C
:1026A0009C838B838B819C810197F1F79C838B8327
:1026B0008D819E8101979E838D838D819E81009760
:1026C00069F714C06F81788589859A850E944100D9
:1026D000DC01CB019E838D838D819E819A838983CA
:1026E00089819A810197F1F79A838983AB960FB616
:1026F000F894DEBF0FBECDBFCF91DF910895DF9379
:10270000CF93CDB7DEB76E970FB6F894DEBF0FBE8E
:10271000CDBF8D8F6E8F8D8D882309F077C08E8D04
:1027200080580E947D1080E090E0A0E0B0E4898FA6
:102730009A8FAB8FBC8F698D7A8D8B8D9C8D20E0AD
:1027400030E04AEF54E40E941702DC01CB018D8B8C
:102750009E8BAF8BB88F6D897E898F89988D20E095
:1027600030E040E85FE30E94710388232CF481E0AD
:1027700090E09C8B8B8B3FC06D897E898F89988D73
:1027800020E03FEF4FE757E40E94110318164CF585
:10279000698D7A8D8B8D9C8D20E030E040E251E494
:1027A0000E941702DC01CB01BC01CD010E94410057
:1027B000DC01CB019C8B8B8B0FC088EC90E09A8B5B
:1027C000898B89899A890197F1F79A8B898B8B89F3
:1027D0009C8901979C8B8B8B8B899C89009769F7CF
:1027E0008FC06D897E898F89988D0E944100DC01A0
:1027F000CB019C8B8B8B8B899C89988B8F878F854A
:1028000098890197F1F7988B8F877AC08D8D8130E9
:1028100009F076C08E8D80540E947D1080E090E09B
:10282000A0E0B0E48B879C87AD87BE876B857C85F5
:102830008D859E8520E030E04AEF54E40E94170227
:10284000DC01CB018F839887A987BA876F81788550
:1028500089859A8520E030E040E85FE30E947103BB
:1028600088232CF481E090E09E838D833FC06F81AC
:10287000788589859A8520E03FEF4FE757E40E94ED
:10288000110318164CF56B857C858D859E8520E09F
:1028900030E040E251E40E941702DC01CB01BC01B0
:1028A000CD010E944100DC01CB019E838D830FC0CE
:1028B00088EC90E09C838B838B819C810197F1F75E
:1028C0009C838B838D819E8101979E838D838D81D7
:1028D0009E81009769F714C06F81788589859A85F4
:1028E0000E944100DC01CB019E838D838D819E81FE
:1028F0009A83898389819A810197F1F79A838983E1
:102900006E960FB6F894DEBF0FBECDBFCF91DF91AC
:102910000895DF93CF9300D000D0CDB7DEB79B836F
:102920008A836C8319828C81882F90E00896880FA7
:10293000991F880F991F880F991F0E947D10198277
:102940000EC08981282F30E08A819B81FC01E20F33
:10295000F31F80810E94FE1189818F5F89838981A5
:10296000883078F30F900F900F900F90CF91DF91F8
:102970000895DF93CF9300D000D0CDB7DEB79C830E
:102980008B831A8219828B819C81009721F480E3CA
:102990000E94FE111FC08B819C810097D9F08B8112
:1029A0009C812AE030E0B9010E947C16CB019A8319
:1029B00089838981805D0E94FE118B819C812AE040
:1029C00030E0B9010E947C169A8389838981805DF9
:1029D0000E94FE110F900F900F900F90CF91DF91FA
:1029E0000895DF93CF9300D00F92CDB7DEB79B83CE
:1029F0008A8319820EC08981282F30E08A819B81C9
:102A0000FC01E20FF31F80810E94FE1189818F5F1C
:102A100089838981282F30E08A819B81FC01E20F24
:102A2000F31F8081882339F70F900F900F90CF917B
:102A3000DF910895DF93CF930F92CDB7DEB78983EF
:102A40008981982F917080E1692F0E94D606898133
:102A50008695982F917081E1692F0E94D606898111
:102A600086958695982F917082E1692F0E94D606EF
:102A70008981869586958695982F917083E1692F37
:102A80000E94D606898182958F70982F917084E17B
:102A9000692F0E94D6068981829586958770982F26
:102AA000917085E1692F0E94D6068981829586956D
:102AB00086958370982F917086E1692F0E94D606C3
:102AC0008981982F991F9927991F87E1692F0E9463
:102AD000D6060F90CF91DF910895DF93CF93CDB7B6
:102AE000DEB7AC970FB6F894DEBF0FBECDBF80E067
:102AF00090E0A0E0B0E08C8B9D8BAE8BBF8B188AF2
:102B0000198A1A8A1B8A1F860E94E50D0E94630695
:102B100081E00E947A060E940B0E80E690E00E94FF
:102B2000F1141CA60E948B060E949906CC01A0E01D
:102B3000B0E0BC01CD010E94F503DC01CB018C8B20
:102B40009D8BAE8BBF8B6C897D898E899F8920E0A0
:102B500030E040E850E40E941702DC01CB01BC01E8
:102B6000CD010E944100DC01CB01888B998BAA8B9F
:102B7000BB8B888999899E01285E3F4FB9014AE045
:102B800050E00E94C7169E01245D3F4F88E1B901C5
:102B90000E94DD078CA5882309F076C09F8581E01F
:102BA00089278F8780E090E0A8E4B3E48B879C8737
:102BB000AD87BE876B857C858D859E8520E030E066
:102BC0004AEF54E40E941702DC01CB018F839887FF
:102BD000A987BA876F81788589859A8520E030E05A
:102BE00040E85FE30E94710388232CF481E090E0C9
:102BF0009E838D833FC06F81788589859A8520E08B
:102C00003FEF4FE757E40E94110318164CF56B8510
:102C10007C858D859E8520E030E040E251E40E9475
:102C20001702DC01CB01BC01CD010E944100DC0197
:102C3000CB019E838D830FC088EC90E09C838B83B7
:102C40008B819C810197F1F79C838B838D819E8181
:102C500001979E838D838D819E81009769F714C0B3
:102C60006F81788589859A850E944100DC01CB01BE
:102C70009E838D838D819E819A83898389819A81A8
:102C80000197F1F79A8389838F85882389F481E0FE
:102C900068E00E947F13CE0148960E94F11481E003
:102CA0006EE00E947F1385E690E00E94F11439CF18
:102CB00081E068E00E947F13888D0E94FE118EE201
:102CC0000E94FE11898D0E94FE118A8D0E94FE11C4
:102CD0008B8D0E94FE1181E06EE00E947F1388E6DA
:102CE00090E00E94F11481E06EE00E947F138BE679
:102CF00090E00E94F11415CFAA1BBB1B51E107C045
:102D0000AA1FBB1FA617B70710F0A61BB70B881F7B
:102D1000991F5A95A9F780959095BC01CD0108950A
:102D20002F923F924F925F926F927F928F929F92DB
:102D3000AF92BF92CF92DF92EF92FF920F931F93C9
:102D4000CF93DF93CDB7DEB7CA1BDB0B0FB6F8947A
:102D5000DEBF0FBECDBF09942A88398848885F84BA
:102D60006E847D848C849B84AA84B984C884DF802B
:102D7000EE80FD800C811B81AA81B981CE0FD11D0F
:102D80000FB6F894DEBF0FBECDBFED010895FB0175
:102D90009F01E8944230C4F04532B4F44A3029F43B
:102DA00097FB1EF4909581959F4F642F77270E9483
:102DB0007C16805D8A330CF0895D8193CB0100978E
:102DC000A1F716F45DE251931082C9010C94E81644
:102DD000DC01FC01672F71917723E1F7329704C082
:102DE0007C916D9370836291AE17BF07C8F308950D
:042DF000F894FFCF85
:102DF400566F6C74006D7600202000760000000091
:102E040000000000000001020203030303040404A1
:102E14000404040404050505050505050505050563
:102E24000505050505060606060606060606060643
:102E3400060606060606060606060606060606062E
:102E44000606060606070707070707070707070713
:102E540007070707070707070707070707070707FE
:102E640007070707070707070707070707070707EE
:102E740007070707070707070707070707070707DE
:102E840007070707070808080808080808080808C3
:102E940008080808080808080808080808080808AE
:102EA400080808080808080808080808080808089E
:102EB400080808080808080808080808080808088E
:102EC400080808080808080808080808080808087E
:102ED400080808080808080808080808080808086E
:102EE400080808080808080808080808080808085E
:102EF400080808080808080808080808080808084E
:062F04000808080808009F
:00000001FF
