:100000000C942A000C943F000C943F000C943F0089
:100010000C943F000C943F000C943F000C943F0064
:100020000C943F000C943F000C943F000C943F0054
:100030000C943F000C943F000C943F000C943F0044
:100040000C943F000C943F000C943F000C943F0034
:100050000C943F0011241FBECFE5D8E0DEBFCDBF1A
:1000600010E0A0E6B0E0ECEFF8E302C005900D92DE
:10007000A836B107D9F70E9484110C947C1C0C940B
:100080000000EF92FF920F931F937B018C0120E001
:1000900030E040E05FE40E94410388238CF0C80117
:1000A000B70120E030E040E05FE40E94B9010E9427
:1000B000A1039B01AC01205030404040504806C095
:1000C000C801B7010E94A1039B01AC01B901CA019B
:1000D0001F910F91FF90EF900895A0E0B0E0E3E74B
:1000E000F0E00C94451CDC012B01FA019C9192304C
:1000F00008F439C1EB018881823008F433C19430AF
:1001000069F4843009F02FC111969C91119789816F
:10011000981709F428C1A0E6B0E025C1843009F49D
:1001200021C18230A9F4923009F01DC19A01AD01BC
:1001300088E0EA010990AE01E90109929E0181502F
:10014000C1F7E201898111969C918923818308C1BD
:10015000923009F407C112962D903C901397EB0151
:100160008A819B811496AD90BD90CD90DC901797BD
:10017000EC80FD800E811F819101281B390BB90194
:1001800037FF04C066277727621B730B6032710547
:100190000CF061C0121613066CF537014801062EEB
:1001A00004C096948794779467940A94D2F721E0D8
:1001B00030E040E050E004C0220F331F441F551FC1
:1001C0006A95D2F721503040404050402E213F21C7
:1001D00040235123211531054105510521F021E02E
:1001E00030E040E050E079018A01E628F72808294C
:1001F00019293CC0232BD1F1260E371E35014601AB
:10020000062E04C096948794779467940A94D2F744
:1002100021E030E040E050E004C0220F331F441FD3
:10022000551F6A95D2F721503040404050402A2156
:100230003B214C215D21211531054105510521F05E
:1002400021E030E040E050E059016A01A628B728DB
:10025000C828D9280BC0821593052CF01C01AA24AC
:10026000BB24650103C0EE24FF24870111969C91F5
:10027000D20111968C91981709F445C0992339F051
:10028000A80197012A193B094C095D0906C0A6017E
:1002900095012E193F09400B510B57FD08C01182E3
:1002A0003382228224833583468357831DC081E0B5
:1002B00081833382228288279927DC01821B930B5A
:1002C000A40BB50B84839583A683B7830DC0220F3F
:1002D000331F441F551F24833583468357838281F0
:1002E000938101979383828324813581468157814D
:1002F000DA01C9010197A109B1098F5F9F4FAF4F83
:10030000BF4328F30BC0918333822282EA0CFB1C8B
:100310000C1D1D1DE482F5820683178383E0808314
:10032000248135814681578157FF1AC0C901AA2708
:1003300097FDA095BA2F81709070A070B0705695FF
:10034000479537952795822B932BA42BB52B848328
:100350009583A683B7838281938101969383828359
:10036000DF0101C0D201CD01CDB7DEB7E2E10C94CF
:10037000611CA0E2B0E0EFEBF1E00C94511C69834A
:100380007A838B839C832D833E834F835887E9E058
:10039000EE2EF12CEC0EFD1ECE010196B7010E944F
:1003A000CA048E010F5E1F4FCE010596B8010E9450
:1003B000CA048A8991E089278A8BC701B801AE01F6
:1003C000475E5F4F0E946D000E94F503A096E6E035
:1003D0000C946D1CA0E2B0E0E0EFF1E00C94511C35
:1003E00069837A838B839C832D833E834F835887D5
:1003F000F9E0EF2EF12CEC0EFD1ECE010196B701B7
:100400000E94CA048E010F5E1F4FCE010596B801EF
:100410000E94CA04C701B801AE01475E5F4F0E9447
:100420006D000E94F503A096E6E00C946D1CA0E21E
:10043000B0E0EDE1F2E00C94451C69837A838B8394
:100440009C832D833E834F835887CE010196BE0146
:10045000675F7F4F0E94CA04CE010596BE016F5EA2
:100460007F4F0E94CA049985923088F08989823032
:10047000C8F0943019F4823051F404C0843029F467
:10048000923081F480E690E0C6C0923049F420E0DA
:100490009A858A89981321E02A87CE010996BBC0E4
:1004A000823049F420E09A858A89981321E02A8BCA
:1004B000CE014196B0C02D843E844F8458886D880B
:1004C0007E888F88988CEE24FF248701AA24BB2481
:1004D000650140E050E060E070E0E0E0F0E0C10184
:1004E00081709070892BE9F0E60CF71C081D191D2E
:1004F0009A01AB012A0D3B1D4C1D5D1D80E090E073
:10050000A0E0B0E0E614F7040805190520F481E046
:1005100090E0A0E0B0E0BA01A901480F591F6A1F9E
:100520007B1FAA0CBB1CCC1CDD1C97FE08C081E005
:1005300090E0A0E0B0E0A82AB92ACA2ADB2A3196C6
:10054000E032F10549F0660C771C881C991C569422
:10055000479437942794C3CFFA85EA892B893C893D
:100560008B859C85280F391F2E5F3F4F17C0CA010E
:1005700081709070892B61F016950795F794E79438
:1005800080E090E0A0E0B0E8E82AF92A0A2B1B2BD3
:1005900076956795579547952F5F3F4F77FDE7CF46
:1005A0000CC0440F551F661F771F17FD4160EE0CEE
:1005B000FF1C001F111F21503040403090E05907B0
:1005C00090E0690790E4790760F32B8F3C8FDB01A3
:1005D000CA018F779070A070B07080349105A1052A
:1005E000B10561F447FD0AC0E114F10401051105EC
:1005F00029F0405C5F4F6F4F7F4F40781A8EFE1797
:1006000011F081E08A8F4D8F5E8F6F8F78A383E02A
:10061000898FCE0149960E94F503A096E2E10C94E1
:10062000611CA8E1B0E0E7E1F3E00C94511C6983A0
:100630007A838B839C832D833E834F83588789E005
:10064000E82EF12CEC0EFD1ECE010196B7010E94A2
:10065000CA048E010F5E1F4FCE010596B8010E949D
:10066000CA048985823040F08989823028F0C70128
:10067000B8010E94420501C08FEF6896E6E00C9435
:100680006D1CA8E1B0E0E7E4F3E00C94511C698331
:100690007A838B839C832D833E834F83588789E0A5
:1006A000E82EF12CEC0EFD1ECE010196B7010E9442
:1006B000CA048E010F5E1F4FCE010596B8010E943D
:1006C000CA048985823040F08989823028F0C701C8
:1006D000B8010E94420501C08FEF6896E6E00C94D5
:1006E0006D1CA8E1B0E0E7E7F3E00C94511C6983CE
:1006F0007A838B839C832D833E834F83588789E045
:10070000E82EF12CEC0EFD1ECE010196B7010E94E1
:10071000CA048E010F5E1F4FCE010596B8010E94DC
:10072000CA048985823040F08989823028F0C70167
:10073000B8010E94420501C081E06896E6E00C9491
:100740006D1CACE0B0E0E7EAF3E00C94551C698363
:100750007A838B839C83CE010196BE016B5F7F4FB2
:100760000E94CA048D81823061F1823050F1843060
:1007700021F48E81882351F12EC02F81388537FDD9
:1007800020C06E812F3131051CF06623F9F023C0A3
:100790008EE190E0821B930B29853A854B855C8521
:1007A00004C056954795379527958A95D2F76623C5
:1007B000B1F050954095309521953F4F4F4F5F4F89
:1007C0000EC020E030E040E050E009C02FEF3FEFE6
:1007D0004FEF5FE704C020E030E040E050E8B901AF
:1007E000CA012C96E2E00C94711CDF92EF92FF920A
:1007F0000F931F93FC01E480F58006811781D1805F
:100800008081823048F480E090E0A0E1B0E0E82A06
:10081000F92A0A2B1B2BA5C0843009F49FC0823013
:1008200021F4EE24FF24870105C0E114F104010541
:10083000110519F4E0E0F0E096C0628173819FEF4A
:10084000623879070CF05BC022E83FEF261B370BBC
:100850002A3131052CF020E030E040E050E02AC0A1
:10086000B801A701022E04C0769567955795479564
:100870000A94D2F781E090E0A0E0B0E004C0880FD5
:10088000991FAA1FBB1F2A95D2F70197A109B10989
:100890008E219F21A023B1230097A105B10521F04E
:1008A00081E090E0A0E0B0E09A01AB01282B392B69
:1008B0004A2B5B2BDA01C9018F779070A070B07062
:1008C00080349105A105B10539F427FF09C0205CEA
:1008D0003F4F4F4F5F4F04C0215C3F4F4F4F5F4F23
:1008E000E0E0F0E02030A0E03A07A0E04A07A0E412
:1008F0005A0710F0E1E0F0E079018A0127C0603882
:10090000710564F5FB01E158FF4FD801C7018F77EE
:100910009070A070B07080349105A105B10539F4D4
:10092000E7FE0DC080E490E0A0E0B0E004C08FE3FB
:1009300090E0A0E0B0E0E80EF91E0A1F1B1F17FFB1
:1009400005C016950795F794E794319687E01695BC
:100950000795F794E7948A95D1F705C0EE24FF2414
:100960008701EFEFF0E06E2F679566276795902F70
:100970009F77D794DD24D7948E2F8695492F462BC9
:10098000582F5D29B701CA011F910F91FF90EF9079
:10099000DF900895FC01DB01408151812281622FAB
:1009A0006F7770E0221F2227221F9381892F880FE3
:1009B000822B282F30E0991F9927991F11969C931D
:1009C000119721153105A9F54115510561057105ED
:1009D00011F482E037C082E89FEF13969C938E93C8
:1009E00012979A01AB0167E0220F331F441F551F76
:1009F0006A95D1F783E08C930DC0220F331F441FFB
:100A0000551F12968D919C911397019713969C9365
:100A10008E931297203080E0380780E0480780E40A
:100A2000580758F314962D933D934D935C93179765
:100A300008952F3F310579F4411551056105710580
:100A400019F484E08C93089564FF03C081E08C93D3
:100A500012C01C9210C02F57304013963C932E9317
:100A6000129783E08C9387E0440F551F661F771F12
:100A70008A95D1F7706414964D935D936D937C9332
:100A8000179708951F93DC01FB019C91923008F4A5
:100A900047C08081823008F443C0943051F41196ED
:100AA0001C91843099F58181682F70E0611B710978
:100AB0003FC0843021F0923031F48230B9F181812D
:100AC000882389F12DC011961C9111978230F1F085
:100AD00081811817D9F412962D913C911397828138
:100AE00093818217930794F028173907BCF0149666
:100AF0008D919D910D90BC91A02D248135814681D1
:100B00005781281739074A075B0718F4112341F06A
:100B10000AC082179307A407B50740F4112319F000
:100B200061E070E005C06FEF7FEF02C060E070E051
:100B3000CB011F910895DF93CF93CDB7DEB72797F1
:100B40000FB6F894DEBF0FBECDBF8C836D8381E0FE
:100B50008B838C818695869586958A838C81877018
:100B600089838C81813208F0E1C08A81282F30E0AE
:100B70003F832E838E819F818130910509F447C088
:100B80002E813F81223031052CF48E819F81009788
:100B900071F0CEC02E813F812230310509F467C04B
:100BA0008E819F818330910509F491C0C1C08D81F0
:100BB0008130A1F4ABE3B0E0EBE3F0E08081482FBB
:100BC0008981282F30E081E090E0022E02C0880F5A
:100BD000991F0A94E2F7842B8C93AAC08D818823F5
:100BE00009F0A6C0ABE3B0E0EBE3F0E08081482F72
:100BF0008981282F30E081E090E0022E02C0880F2A
:100C0000991F0A94E2F7809584238C9391C08D817B
:100C10008130A1F4A8E3B0E0E8E3F0E08081482F60
:100C20008981282F30E081E090E0022E02C0880FF9
:100C3000991F0A94E2F7842B8C937AC08D818823C4
:100C400009F076C0A8E3B0E0E8E3F0E08081482F47
:100C50008981282F30E081E090E0022E02C0880FC9
:100C6000991F0A94E2F7809584238C9361C08D814B
:100C70008130A1F4A5E3B0E0E5E3F0E08081482F06
:100C80008981282F30E081E090E0022E02C0880F99
:100C9000991F0A94E2F7842B8C934AC08D81882394
:100CA00009F046C0A5E3B0E0E5E3F0E08081482F1D
:100CB0008981282F30E081E090E0022E02C0880F69
:100CC000991F0A94E2F7809584238C9331C08D811B
:100CD0008130A1F4A2E3B0E0E2E3F0E08081482FAC
:100CE0008981282F30E081E090E0022E02C0880F39
:100CF000991F0A94E2F7842B8C931AC08D81882364
:100D0000B9F4A2E3B0E0E2E3F0E08081482F89810A
:100D1000282F30E081E090E0022E02C0880F991F5A
:100D20000A94E2F7809584238C9302C083E08B833E
:100D30008B8127960FB6F894DEBF0FBECDBFCF9143
:100D4000DF910895DF93CF93CDB7DEB728970FB625
:100D5000F894DEBF0FBECDBF8C837E836D8381E0B0
:100D60008B838C81813208F079C08C818695869541
:100D700086958A838C81877089838A81282F30E0C9
:100D800038872F834F8158854130510559F18F8124
:100D900098858230910534F42F81388521153105ED
:100DA00069F05EC04F8158854230510579F18F81DD
:100DB00098858330910509F43DC052C0E9E3F0E025
:100DC0008081282F30E08981882F90E0A90102C01E
:100DD000559547958A95E2F7CA018170ED81FE81AC
:100DE00080833EC0E6E3F0E08081282F30E08981F7
:100DF000882F90E0A90102C0559547958A95E2F7A2
:100E0000CA018170ED81FE8180832AC0E3E3F0E0B6
:100E10008081282F30E08981882F90E0A90102C0CD
:100E2000559547958A95E2F7CA018170ED81FE815B
:100E3000808316C0E0E3F0E08081282F30E08981D4
:100E4000882F90E0A90102C0559547958A95E2F751
:100E5000CA018170ED81FE81808302C082E08B83B4
:100E60008B8128960FB6F894DEBF0FBECDBFCF9111
:100E7000DF910895DF93CF9300D000D00F92CDB7CC
:100E8000DEB78A836B8381E089838A81853098F518
:100E90008A81282F30E03D832C838C819D81813095
:100EA0009105D1F02C813D81223031052CF48C81CB
:100EB0009D81009761F021C02C813D812230310558
:100EC00081F08C819D818330910581F016C0EBE328
:100ED000F0E08B81808311C0E8E3F0E08B818083B8
:100EE0000CC0E5E3F0E08B81808307C0E2E3F0E033
:100EF0008B81808302C083E0898389810F900F906A
:100F00000F900F900F90CF91DF910895DF93CF93C3
:100F100000D000D000D0CDB7DEB78A837C836B834E
:100F200081E089838A818530D8F58A81282F30E055
:100F30003E832D838D819E8181309105E1F02D814D
:100F40003E81223031052CF48D819E81009761F025
:100F500029C02D813E8122303105A1F08D819E81F5
:100F600083309105B1F01EC0EBE3F0E08081EB81AE
:100F7000FC81808317C0E8E3F0E08081EB81FC8195
:100F8000808310C0E5E3F0E08081EB81FC81808309
:100F900009C0E2E3F0E08081EB81FC81808302C044
:100FA00082E08983898126960FB6F894DEBF0FBE52
:100FB000CDBFCF91DF910895DF93CF9300D000D0C4
:100FC00000D0CDB7DEB78C8381E08B838C818132FA
:100FD00008F077C08C818695869586958A838C816A
:100FE000877089838A81282F30E03E832D838D810D
:100FF0009E818130910549F12D813E81223031055C
:101000002CF48D819E81009761F05DC02D813E8121
:101010002230310571F18D819E8183309105E9F196
:1010200052C0ABE3B0E0EBE3F0E08081482F898170
:10103000282F30E081E090E0022E02C0880F991F37
:101040000A94E2F784278C933EC0ABE3B0E0EBE375
:10105000F0E08081482F8981282F30E081E090E006
:10106000022E02C0880F991F0A94E2F784278C93FE
:101070002AC0ABE3B0E0EBE3F0E08081482F898148
:10108000282F30E081E090E0022E02C0880F991FE7
:101090000A94E2F784278C9316C0ABE3B0E0EBE34D
:1010A000F0E08081482F8981282F30E081E090E0B6
:1010B000022E02C0880F991F0A94E2F784278C93AE
:1010C00002C082E08B838B8126960FB6F894DEBF38
:1010D0000FBECDBFCF91DF910895DF93CF93CDB7F2
:1010E000DEB727970FB6F894DEBF0FBECDBF8C8357
:1010F0006D8383E08B838C81803210F01B82DFC094
:101100008D81823018F081E08B83D9C08C8187700B
:101110008A838C8186958695869589838981282FF7
:1011200030E03F832E838E819F818130910509F4C9
:1011300043C02E813F81223031052CF48E819F8166
:10114000009771F0BCC02E813F812230310509F437
:101150005FC08E819F818330910509F485C0AFC047
:101160008D818130A1F4AAE3B0E0EAE3F0E0808170
:10117000482F8A81282F30E081E090E0022E02C0C3
:10118000880F991F0A94E2F7842B8C9398C0AAE3E6
:10119000B0E0EAE3F0E08081482F8A81282F30E038
:1011A00081E090E0022E02C0880F991F0A94E2F7B6
:1011B000809584238C9383C08D818130A1F4A7E333
:1011C000B0E0E7E3F0E08081482F8A81282F30E00B
:1011D00081E090E0022E02C0880F991F0A94E2F786
:1011E000842B8C936CC0A7E3B0E0E7E3F0E0808150
:1011F000482F8A81282F30E081E090E0022E02C043
:10120000880F991F0A94E2F7809584238C9357C026
:101210008D818130A1F4A4E3B0E0E4E3F0E08081CB
:10122000482F8A81282F30E081E090E0022E02C012
:10123000880F991F0A94E2F7842B8C9340C0A4E393
:10124000B0E0E4E3F0E08081482F8A81282F30E08D
:1012500081E090E0022E02C0880F991F0A94E2F705
:10126000809584238C932BC08D818130A1F4A1E3E0
:10127000B0E0E1E3F0E08081482F8A81282F30E060
:1012800081E090E0022E02C0880F991F0A94E2F7D5
:10129000842B8C9314C0A1E3B0E0E1E3F0E0808103
:1012A000482F8A81282F30E081E090E0022E02C092
:1012B000880F991F0A94E2F7809584238C938B8181
:1012C00027960FB6F894DEBF0FBECDBFCF91DF914A
:1012D0000895DF93CF93CDB7DEB72F970FB6F8946D
:1012E000DEBF0FBECDBF8C836D8383E08B838D818A
:1012F000853018F082E08B8323C38C81803210F01C
:101300001B821EC38C818695869586958A838C81E7
:10131000877089838A81282F30E03F872E878E85CA
:101320009F858130910509F4D4C02E853F852230F8
:1013300031052CF48E859F85009771F001C32E85B1
:101340003F852230310509F481C18E859F85833028
:10135000910509F439C2F4C28D81282F30E03D8710
:101360002C878C859D8581309105B9F02C853D8534
:10137000223031052CF48C859D850097A1F1E0C2C7
:101380002C853D852230310509F454C08C859D851E
:101390008330910509F475C0D3C2AAE3B0E0EAE353
:1013A000F0E08081482F8981282F30E081E090E0B3
:1013B00002C0880F991F2A95E2F7842B8C93ABE328
:1013C000B0E0EBE3F0E08081482F8981282F30E006
:1013D00081E090E0022E02C0880F991F0A94E2F784
:1013E000842B8C93ADC2AAE3B0E0EAE3F0E0808105
:1013F000482F8981282F30E081E090E002C0880FDB
:10140000991F2A95E2F7842B8C93ABE3B0E0EBE3D2
:10141000F0E08081482F8981282F30E081E090E042
:10142000022E02C0880F991F0A94E2F78095842348
:101430008C9386C2AAE3B0E0EAE3F0E08081482F13
:101440008981282F30E081E090E002C0880F991F49
:101450002A95E2F7809584238C93ABE3B0E0EBE32D
:10146000F0E08081482F8981282F30E081E090E0F2
:10147000022E02C0880F991F0A94E2F7842B8C93E6
:101480005FC2AAE3B0E0EAE3F0E08081482F8981FF
:10149000282F30E081E090E002C0880F991F2A9544
:1014A000E2F7809584238C93ABE3B0E0EBE3F0E0CC
:1014B0008081482F8981282F30E081E090E0022E42
:1014C00002C0880F991F0A94E2F7809584238C93B9
:1014D00037C28D81282F30E03B872A878A859B85FC
:1014E00081309105B9F02A853B85223031052CF4F5
:1014F0008A859B850097A1F123C22A853B852230EE
:10150000310509F454C08A859B858330910509F41F
:1015100075C016C2A7E3B0E0E7E3F0E08081482F92
:101520008981282F30E081E090E002C0880F991F68
:101530002A95E2F7842B8C93A8E3B0E0E8E3F0E08F
:101540008081482F8981282F30E081E090E0022EB1
:1015500002C0880F991F0A94E2F7842B8C93F0C184
:10156000A7E3B0E0E7E3F0E08081482F8981282FEE
:1015700030E081E090E002C0880F991F2A95E2F7E1
:10158000842B8C93A8E3B0E0E8E3F0E08081482F5F
:101590008981282F30E081E090E0022E02C0880F80
:1015A000991F0A94E2F7809584238C93C9C1A7E31D
:1015B000B0E0E7E3F0E08081482F8981282F30E018
:1015C00081E090E002C0880F991F2A95E2F780958C
:1015D00084238C93A8E3B0E0E8E3F0E08081482F17
:1015E0008981282F30E081E090E0022E02C0880F30
:1015F000991F0A94E2F7842B8C93A2C1A7E3B0E071
:10160000E7E3F0E08081482F8981282F30E081E0F6
:1016100090E002C0880F991F2A95E2F780958423F5
:101620008C93A8E3B0E0E8E3F0E08081482F898163
:10163000282F30E081E090E0022E02C0880F991F31
:101640000A94E2F7809584238C937AC18D81282FA8
:1016500030E0398728878885998581309105B9F0F0
:1016600028853985223031052CF4888599850097A5
:10167000A1F166C1288539852230310509F455C0AC
:10168000888599858330910509F476C059C1A4E312
:10169000B0E0E4E3F0E08081482F8981282F30E03A
:1016A00081E090E002C0880F991F2A95E2F7842B11
:1016B0008C93A5E3B0E0E5E3F0E08081482F8981D9
:1016C000282F30E081E090E0022E02C0880F991FA1
:1016D0000A94E2F7842B8C9333C1A4E3B0E0E4E3F3
:1016E000F0E08081482F8981282F30E081E090E070
:1016F00002C0880F991F2A95E2F7809584238C9366
:10170000A5E3B0E0E5E3F0E08081482F8981282F50
:1017100030E081E090E0022E02C0880F991F0A9409
:10172000E2F7809584238C930BC1A4E3B0E0E4E35B
:10173000F0E08081482F8981282F30E081E090E01F
:1017400002C0880F991F2A95E2F7809584238C9315
:10175000A5E3B0E0E5E3F0E08081482F8981282F00
:1017600030E081E090E0022E02C0880F991F0A94B9
:10177000E2F7842B8C93E4C0A4E3B0E0E4E3F0E070
:101780008081482F8981282F30E081E090E002C0DD
:10179000880F991F2A95E2F7809584238C93A5E3FF
:1017A000B0E0E5E3F0E08081482F8981282F30E028
:1017B00081E090E0022E02C0880F991F0A94E2F7A0
:1017C000809584238C93BCC08D81282F30E03F838B
:1017D0002E838E819F8181309105B9F02E813F81CA
:1017E000223031052CF48E819F810097A1F1A8C091
:1017F0002E813F812230310509F454C08E819F81B2
:101800008330910509F475C09BC0A1E3B0E0E1E32A
:10181000F0E08081482F8981282F30E081E090E03E
:1018200002C0880F991F2A95E2F7842B8C93A2E3BC
:10183000B0E0E2E3F0E08081482F8981282F30E09A
:1018400081E090E0022E02C0880F991F0A94E2F70F
:10185000842B8C9375C0A1E3B0E0E1E3F0E08081DC
:10186000482F8981282F30E081E090E002C0880F66
:10187000991F2A95E2F7842B8C93A2E3B0E0E2E370
:10188000F0E08081482F8981282F30E081E090E0CE
:10189000022E02C0880F991F0A94E2F780958423D4
:1018A0008C934EC0A1E3B0E0E1E3F0E08081482FEB
:1018B0008981282F30E081E090E002C0880F991FD5
:1018C0002A95E2F7809584238C93ABE3B0E0EBE3B9
:1018D000F0E08081482F8981282F30E081E090E07E
:1018E000022E02C0880F991F0A94E2F7842B8C9372
:1018F00027C0A1E3B0E0E1E3F0E08081482F8981D7
:10190000282F30E081E090E002C0880F991F2A95CF
:10191000E2F7809584238C93A2E3B0E0E2E3F0E069
:101920008081482F8981282F30E081E090E0022ECD
:1019300002C0880F991F0A94E2F7809584238C9344
:101940008B812F960FB6F894DEBF0FBECDBFCF911F
:10195000DF910895DF93CF93CDB7DEB7EAE3F0E0F0
:101960008FEF8083EBE3F0E01082E7E3F0E08FEFAE
:101970008083E8E3F0E08FEF8083E4E3F0E08FEF33
:101980008083E5E3F0E01082E1E3F0E08FEF808315
:10199000E1E3F0E01082CF91DF910895DF93CF93E0
:1019A000CDB7DEB7AB970FB6F894DEBF0FBECDBF95
:1019B0001BA680E18BA707C08BA561E00E946D0884
:1019C0008BA58F5F8BA78BA58831B0F388E061E092
:1019D0000E946D0889E061E00E946D088AE061E084
:1019E0000E946D0888E30E945A0E80E090E0A0E01B
:1019F000B0E48FA398A7A9A7BAA76FA178A589A5D6
:101A00009AA520E030E04AE753E40E941702DC0187
:101A1000CB018BA39CA3ADA3BEA36BA17CA18DA185
:101A20009EA120E030E040E85FE30E94710388233C
:101A30002CF481E090E09AA389A33FC06BA17CA124
:101A40008DA19EA120E03FEF4FE757E40E941103D4
:101A500018164CF56FA178A589A59AA520E030E06D
:101A600040E251E40E941702DC01CB01BC01CD0130
:101A70000E944100DC01CB019AA389A30FC089E138
:101A800090E098A38F8F8F8D98A10197F1F798A37D
:101A90008F8F89A19AA101979AA389A389A19AA15D
:101AA000009769F714C06BA17CA18DA19EA10E9433
:101AB0004100DC01CB019AA389A389A19AA19E8F41
:101AC0008D8F8D8D9E8D0197F1F79E8F8D8F8CE080
:101AD0000E945A0E80E090E0A0E0B0E4898F9A8FD7
:101AE000AB8FBC8F698D7A8D8B8D9C8D20E030E023
:101AF0004AE753E40E941702DC01CB018D8B9E8BD9
:101B0000AF8BB88F6D897E898F89988D20E030E00A
:101B100040E85FE30E94710388232CF481E090E0A9
:101B20009C8B8B8B3FC06D897E898F89988D20E03F
:101B30003FEF4FE757E40E94110318164CF5698DEB
:101B40007A8D8B8D9C8D20E030E040E251E40E9444
:101B50001702DC01CB01BC01CD010E944100DC0178
:101B6000CB019C8B8B8B0FC089E190E09A8B898B8A
:101B700089899A890197F1F79A8B898B8B899C893E
:101B800001979C8B8B8B8B899C89009769F714C07C
:101B90006D897E898F89988D0E944100DC01CB017F
:101BA0009C8B8B8B8B899C89988B8F878F85988951
:101BB0000197F1F7988B8F8781E00E945A0E80E0A1
:101BC00090E0A0E0B0E48B879C87AD87BE876B85F3
:101BD0007C858D859E8520E030E04AE753E40E94B5
:101BE0001702DC01CB018F839887A987BA876F81A1
:101BF000788589859A8520E030E040E85FE30E949F
:101C0000710388232CF481E090E09E838D833FC094
:101C10006F81788589859A8520E03FEF4FE757E40B
:101C20000E94110318164CF56B857C858D859E8569
:101C300020E030E040E251E40E941702DC01CB01D9
:101C4000BC01CD010E944100DC01CB019E838D834C
:101C50000FC089E190E09C838B838B819C810197ED
:101C6000F1F79C838B838D819E8101979E838D8369
:101C70008D819E81009769F714C06F817885898571
:101C80009A850E944100DC01CB019E838D838D816A
:101C90009E819A83898389819A810197F1F79A833A
:101CA0008983AB960FB6F894DEBF0FBECDBFCF9140
:101CB000DF910895DF93CF93CDB7DEB76D970FB661
:101CC000F894DEBF0FBECDBF8D8F88E060E00E942C
:101CD0009B0589E060E00E949B058D8D982F917097
:101CE00080E1692F0E949B058D8D8695982F9170BC
:101CF00081E1692F0E949B058D8D86958695982F91
:101D0000917082E1692F0E949B058D8D8695869545
:101D10008695982F917083E1692F0E949B058D8D88
:101D200082958F70982F917084E1692F0E949B0596
:101D30008D8D829586958770982F917085E1692F9A
:101D40000E949B058D8D8295869586958370982F30
:101D5000917086E1692F0E949B058D8D982F991FA8
:101D60009927991F87E1692F0E949B058AE061E00E
:101D70000E949B0580E090E0A0E0B0E4898F9A8FFC
:101D8000AB8FBC8F698D7A8D8B8D9C8D20E030E080
:101D90004AE753E40E941702DC01CB018D8B9E8B36
:101DA000AF8BB88F6D897E898F89988D20E030E068
:101DB00040E85FE30E94710388232CF481E090E007
:101DC0009C8B8B8B3FC06D897E898F89988D20E09D
:101DD0003FEF4FE757E40E94110318164CF5698D49
:101DE0007A8D8B8D9C8D20E030E040E251E40E94A2
:101DF0001702DC01CB01BC01CD010E944100DC01D6
:101E0000CB019C8B8B8B0FC089E190E09A8B898BE7
:101E100089899A890197F1F79A8B898B8B899C899B
:101E200001979C8B8B8B8B899C89009769F714C0D9
:101E30006D897E898F89988D0E944100DC01CB01DC
:101E40009C8B8B8B8B899C89988B8F878F859889AE
:101E50000197F1F7988B8F878AE060E00E949B05DD
:101E600080E090E0A0E0B0E48B879C87AD87BE87E0
:101E70006B857C858D859E8520E030E04AE753E4C4
:101E80000E941702DC01CB018F839887A987BA874C
:101E90006F81788589859A8520E030E040E85FE3AE
:101EA0000E94710388232CF481E090E09E838D834F
:101EB0003FC06F81788589859A8520E03FEF4FE7A5
:101EC00057E40E94110318164CF56B857C858D85AF
:101ED0009E8520E030E040E251E40E941702DC01E0
:101EE000CB01BC01CD010E944100DC01CB019E83EE
:101EF0008D830FC089E190E09C838B838B819C81D3
:101F00000197F1F79C838B838D819E8101979E833E
:101F10008D838D819E81009769F714C06F817885CC
:101F200089859A850E944100DC01CB019E838D83C7
:101F30008D819E819A83898389819A810197F1F7A6
:101F40009A8389836D960FB6F894DEBF0FBECDBF1E
:101F5000CF91DF910895DF93CF93CDB7DEB76D9723
:101F60000FB6F894DEBF0FBECDBF8D8F88E061E065
:101F70000E949B0589E060E00E949B058D8D982F53
:101F8000917080E1692F0E949B058D8D8695982F19
:101F9000917081E1692F0E949B058D8D86958695B4
:101FA000982F917082E1692F0E949B058D8D8695F7
:101FB00086958695982F917083E1692F0E949B05E5
:101FC0008D8D82958F70982F917084E1692F0E947A
:101FD0009B058D8D829586958770982F917085E1F0
:101FE000692F0E949B058D8D8295869586958370BD
:101FF000982F917086E1692F0E949B058D8D982FF7
:10200000991F9927991F87E1692F0E949B058AE0F4
:1020100061E00E949B0580E090E0A0E0B0E4898F41
:102020009A8FAB8FBC8F698D7A8D8B8D9C8D20E0C4
:1020300030E04AE753E40E941702DC01CB018D8BAC
:102040009E8BAF8BB88F6D897E898F89988D20E0AC
:1020500030E040E85FE30E94710388232CF481E0C4
:1020600090E09C8B8B8B3FC06D897E898F89988D8A
:1020700020E03FEF4FE757E40E94110318164CF59C
:10208000698D7A8D8B8D9C8D20E030E040E251E4AB
:102090000E941702DC01CB01BC01CD010E9441006E
:1020A000DC01CB019C8B8B8B0FC089E190E09A8B7C
:1020B000898B89899A890197F1F79A8B898B8B890A
:1020C0009C8901979C8B8B8B8B899C89009769F7E6
:1020D00014C06D897E898F89988D0E944100DC0132
:1020E000CB019C8B8B8B8B899C89988B8F878F8561
:1020F00098890197F1F7988B8F878AE060E00E94BA
:102100009B0580E090E0A0E0B0E48B879C87AD87E2
:10211000BE876B857C858D859E8520E030E04AE713
:1021200053E40E941702DC01CB018F839887A987B3
:10213000BA876F81788589859A8520E030E040E80C
:102140005FE30E94710388232CF481E090E09E837A
:102150008D833FC06F81788589859A8520E03FEF28
:102160004FE757E40E94110318164CF56B857C85E8
:102170008D859E8520E030E040E251E40E94170208
:10218000DC01CB01BC01CD010E944100DC01CB018F
:102190009E838D830FC089E190E09C838B838B812C
:1021A0009C810197F1F79C838B838D819E810197A0
:1021B0009E838D838D819E81009769F714C06F8106
:1021C000788589859A850E944100DC01CB019E8338
:1021D0008D838D819E819A83898389819A810197DC
:1021E000F1F79A8389836D960FB6F894DEBF0FBE20
:1021F000CDBFCF91DF910895DF93CF9300D000D072
:10220000CDB7DEB789836A838981282F30E03C838C
:102210002B838B819C81009731F02B813C81213075
:10222000310549F00FC08A81803160F48A8180587D
:102230000E945A0E07C08A81803120F48A8180541E
:102240000E945A0E0F900F900F900F90CF91DF9138
:102250000895DF93CF9300D000D0CDB7DEB78A8347
:102260007C836B838A818830F8F48A81882F90E0A0
:102270000896880F991F880F991F880F991F0E9431
:102280005A0E19820EC08981282F30E08B819C81E3
:10229000FC01E20FF31F80810E94AB0F89818F5FE9
:1022A00089838981883078F30F900F900F900F9079
:1022B000CF91DF910895DF93CF9300D00F92CDB7E8
:1022C000DEB79B838A8319820EC08981282F30E074
:1022D0008A819B81FC01E20FF31F80810E94AB0F7A
:1022E00089818F5F89838981282F30E08A819B8152
:1022F000FC01E20FF31F8081882339F70F900F90C4
:102300000F90CF91DF9108950F931F93DF93CF9399
:10231000CDB7DEB7C35DD0400FB6F894DEBF0FBEB9
:10232000CDBF0E94CE0CFE01EA53FF4F1082FE018A
:10233000EB53FF4F1082FE01EB53FF4F80818F3034
:1023400009F4D2C5FE01EB53FF4F8081992787FD29
:102350009095039799230CF4E2C0FE01EB53FF4FD5
:102360008081992787FD90950397803191050CF026
:10237000D6C0C653DF4F1882CA5CD040FE01EA5374
:10238000FF4F8081882331F481E0C653DF4F88837B
:10239000CA5CD040FE01EB53FF4F8081982F9350D1
:1023A000C653DF4F8881CA5CD040692F0E94FC1061
:1023B00081E40E94AB0FFE01EF53FF4F80E090E0FD
:1023C000AAEFB3E480839183A283B3838E01035485
:1023D0001F4FFE01EF53FF4F608171818281938116
:1023E00020E030E04AE753E40E941702DC01CB0111
:1023F000F80180839183A283B383FE01E354FF4FEE
:10240000608171818281938120E030E040E85FE368
:102410000E947103882344F4FE01E554FF4F81E0DC
:1024200090E09183808364C0FE01E354FF4F60819C
:1024300071818281938120E03FEF4FE757E40E9452
:10244000110318160CF043C0FE01EF53FF4F6081DB
:1024500071818281938120E030E040E251E40E946A
:102460001702DC01CB018E0105541F4FBC01CD01C9
:102470000E944100DC01CB01F801918380831FC0E1
:10248000FE01E754FF4F89E190E091838083FE01D4
:10249000E754FF4F808191810197F1F7FE01E754E6
:1024A000FF4F91838083DE01A554BF4FFE01E554A9
:1024B000FF4F80819181019711969C938E93FE012D
:1024C000E554FF4F808191810097D1F628C08E019D
:1024D00005541F4FFE01E354FF4F608171818281DB
:1024E00093810E944100DC01CB01F801918380833C
:1024F000DE01A954BF4FFE01E554FF4F8081918159
:1025000011969C938E93FE01E954FF4F8081918137
:102510000197F1F7FE01E954FF4F91838083FE019B
:10252000EB53FF4F8081992787FD90950297992360
:102530000CF4D1C0FE01EB53FF4F8081992787FD3A
:1025400090950297803191050CF0C5C0FE01EA53C9
:10255000FF4F2081FE01EB53FF4F8081982F925057
:10256000822F692F0E94FC1082E40E94AB0FFE01B3
:10257000ED54FF4F80E090E0AAEFB3E480839183B5
:10258000A283B3838E0101551F4FFE01ED54FF4F0F
:10259000608171818281938120E030E04AE753E4D9
:1025A0000E941702DC01CB01F80180839183A28392
:1025B000B383FE01E155FF4F608171818281938178
:1025C00020E030E040E85FE30E947103882344F498
:1025D000FE01E355FF4F81E090E09183808364C06A
:1025E000FE01E155FF4F608171818281938120E07E
:1025F0003FEF4FE757E40E94110318160CF043C059
:10260000FE01ED54FF4F608171818281938120E052
:1026100030E040E251E40E941702DC01CB018E0160
:1026200003551F4FBC01CD010E944100DC01CB01CD
:10263000F801918380831FC0FE01E555FF4F89E1BA
:1026400090E091838083FE01E555FF4F8081918169
:102650000197F1F7FE01E555FF4F91838083DE017D
:10266000A355BF4FFE01E355FF4F80819181019734
:1026700011969C938E93FE01E355FF4F80819181CB
:102680000097D1F628C08E0103551F4FFE01E1557A
:10269000FF4F60817181828193810E944100DC0142
:1026A000CB01F80191838083DE01A755BF4FFE0166
:1026B000E355FF4F8081918111969C938E93FE018B
:1026C000E755FF4F808191810197F1F7FE01E755B2
:1026D000FF4F91838083FE01EB53FF4F8081992749
:1026E00087FD9095019799230CF4E2C0FE01EB530E
:1026F000FF4F8081992787FD909501978031910543
:102700000CF0D6C0C753DF4F1882C95CD040FE0121
:10271000EA53FF4F8081882331F4F1E0C753DF4F44
:10272000F883C95CD040FE01EB53FF4F8081982FA6
:102730009150C753DF4F8881C95CD040692F0E94F8
:10274000FC1084E40E94AB0FFE01EB55FF4F80E0CC
:1027500090E0AAEFB3E480839183A283B3838E01D8
:102760000F551F4FFE01EB55FF4F60817181828134
:10277000938120E030E04AE753E40E941702DC0135
:10278000CB01F80180839183A283B383FE01EF55CF
:10279000FF4F608171818281938120E030E040E8C9
:1027A0005FE30E947103882344F4FE01E156FF4F6A
:1027B00081E090E09183808364C0FE01EF55FF4F7C
:1027C000608171818281938120E03FEF4FE757E480
:1027D0000E94110318160CF043C0FE01EB55FF4F89
:1027E000608171818281938120E030E040E251E498
:1027F0000E941702DC01CB018E0101561F4FBC0164
:10280000CD010E944100DC01CB01F801918380835E
:102810001FC0FE01E356FF4F89E190E09183808362
:10282000FE01E356FF4F808191810197F1F7FE0190
:10283000E356FF4F91838083DE01A156BF4FFE0117
:10284000E156FF4F80819181019711969C938E9361
:10285000FE01E156FF4F808191810097D1F628C09B
:102860008E0101561F4FFE01EF55FF4F60817181B0
:10287000828193810E944100DC01CB01F8019183A8
:102880008083DE01A556BF4FFE01E156FF4F8081D8
:10289000918111969C938E93FE01E556FF4F8081A6
:1028A00091810197F1F7FE01E556FF4F91838083F7
:1028B000FE01EB53FF4F808188230CF4C8C0FE015A
:1028C000EB53FF4F808180310CF0C1C0FE01EA5311
:1028D000FF4F8081FE01EB53FF4F9081692F0E94D3
:1028E000FC108FE40E94AB0FFE01E956FF4F80E021
:1028F00090E0AAEFB3E480839183A283B3838E0137
:102900000D561F4FFE01E956FF4F60817181828194
:10291000938120E030E04AE753E40E941702DC0193
:10292000CB01F80180839183A283B383FE01ED562E
:10293000FF4F608171818281938120E030E040E827
:102940005FE30E947103882344F4FE01EF56FF4FBA
:1029500081E090E09183808364C0FE01ED56FF4FDB
:10296000608171818281938120E03FEF4FE757E4DE
:102970000E94110318160CF043C0FE01E956FF4FE8
:10298000608171818281938120E030E040E251E4F6
:102990000E941702DC01CB018E010F561F4FBC01B4
:1029A000CD010E944100DC01CB01F80191838083BD
:1029B0001FC0FE01E157FF4F89E190E091838083C2
:1029C000FE01E157FF4F808191810197F1F7FE01F0
:1029D000E157FF4F91838083DE01AF56BF4FFE0169
:1029E000EF56FF4F80819181019711969C938E93B2
:1029F000FE01EF56FF4F808191810097D1F627C0ED
:102A00008E010F561F4FFE01ED56FF4F6081718101
:102A1000828193810E944100DC01CB01F801918306
:102A20008083DE01A357BF4FFE01EF56FF4F808129
:102A300091818D939C93FE01E357FF4F808191819B
:102A40000197F1F7FE01E357FF4F91838083FE0169
:102A5000E757FF4F80E090E0AAEFB3E480839183D3
:102A6000A283B3838E010B571F4FFE01E757FF4F21
:102A7000608171818281938120E030E04AE753E4F4
:102A80000E941702DC01CB01F80180839183A283AD
:102A9000B383FE01EB57FF4F608171818281938187
:102AA00020E030E040E85FE30E947103882344F4B3
:102AB000FE01ED57FF4F81E090E09183808364C079
:102AC000FE01EB57FF4F608171818281938120E08D
:102AD0003FEF4FE757E40E94110318160CF043C074
:102AE000FE01E757FF4F608171818281938120E071
:102AF00030E040E251E40E941702DC01CB018E017C
:102B00000D571F4FBC01CD010E944100DC01CB01DC
:102B1000F801918380831FC0FE01EF57FF4F89E1C9
:102B200090E091838083FE01EF57FF4F8081918178
:102B30000197F1F7FE01EF57FF4F91838083DE018C
:102B4000AD57BF4FFE01ED57FF4F80819181019737
:102B500011969C938E93FE01ED57FF4F80819181DA
:102B60000097D1F627C08E010D571F4FFE01EB577E
:102B7000FF4F60817181828193810E944100DC015D
:102B8000CB01F80191838083DE01A158BF4FFE0184
:102B9000ED57FF4F808191818D939C93FE01E15809
:102BA000FF4F808191810197F1F7FE01E158FF4FBE
:102BB00091838083FE01E558FF4F80E090E0AAEF0B
:102BC000B3E480839183A283B3838E0109581F4F9E
:102BD000FE01E558FF4F608171818281938120E081
:102BE00030E04AE753E40E941702DC01CB01F80110
:102BF00080839183A283B383FE01E958FF4F6081F4
:102C000071818281938120E030E040E85FE30E949F
:102C10007103882344F4FE01EB58FF4F81E090E0FC
:102C20009183808364C0FE01E958FF4F6081718108
:102C30008281938120E03FEF4FE757E40E94110328
:102C400018160CF043C0FE01E558FF4F60817181FA
:102C50008281938120E030E040E251E40E9417023B
:102C6000DC01CB018E010B581F4FBC01CD010E942E
:102C70004100DC01CB01F801918380831FC0FE017C
:102C8000ED58FF4F89E190E091838083FE01ED587C
:102C9000FF4F808191810197F1F7FE01ED58FF4FC1
:102CA00091838083DE01AB58BF4FFE01EB58FF4F8D
:102CB00080819181019711969C938E93FE01EB5830
:102CC000FF4F808191810097D1F627C08E010B586C
:102CD0001F4FFE01E958FF4F60817181828193810E
:102CE0000E944100DC01CB01F80191838083DE0169
:102CF000AF58BF4FFE01EB58FF4F808191818D93FC
:102D00009C93FE01EF58FF4F808191810197F1F76D
:102D1000FE01EF58FF4F9183808381E00E945A0E9D
:102D2000FE01E359FF4F80E090E0A0E0B0E4808333
:102D30009183A283B3838E0107591F4FFE01E3598C
:102D4000FF4F608171818281938120E030E04AE70A
:102D500053E40E941702DC01CB01F80180839183C8
:102D6000A283B383FE01E759FF4F608171818281A5
:102D7000938120E030E040E85FE30E947103882304
:102D800044F4FE01E959FF4F81E090E09183808394
:102D900064C0FE01E759FF4F608171818281938198
:102DA00020E03FEF4FE757E40E94110318160CF0A4
:102DB00043C0FE01E359FF4F60817181828193819D
:102DC00020E030E040E251E40E941702DC01CB0138
:102DD0008E0109591F4FBC01CD010E944100DC0149
:102DE000CB01F801918380831FC0FE01EB59FF4F97
:102DF00089E190E091838083FE01EB59FF4F808150
:102E000091810197F1F7FE01EB59FF4F9183808388
:102E1000DE01A959BF4FFE01E959FF4F8081918121
:102E2000019711969C938E93FE01E959FF4F808183
:102E300091810097D1F628C08E0109591F4FFE01DC
:102E4000E759FF4F60817181828193810E94410027
:102E5000DC01CB01F80191838083DE01AD59BF4FC6
:102E6000FE01E959FF4F8081918111969C938E93C9
:102E7000FE01ED59FF4F808191810197F1F7FE012D
:102E8000ED59FF4F91838083CE018A539F4FC553E5
:102E9000DF4F99838883CB5CD040C353DF4F1882C8
:102EA000CD5CD040FE01EA53FF4F8081882331F48E
:102EB00091E0C353DF4F9883CD5CD040C353DF4FC5
:102EC0008881CD5CD040C553DF4FE881F981CB5C70
:102ED000D0408083DE01AB53BF4FFE01EB53FF4F69
:102EE00080818F5F8C9327CAFE01EB53FF4F808157
:102EF000992787FD9095039799230CF4E2C0FE0172
:102F0000EB53FF4F8081992787FD90950397803180
:102F100091050CF0D6C0C853DF4F1882C85CD04072
:102F2000FE01EA53FF4F8081882331F491E0C853BA
:102F3000DF4F9883C85CD040FE01EB53FF4F808188
:102F4000982F9350C853DF4F8881C85CD040692FB9
:102F50000E94FC1081E40E94AB0FFE01E15AFF4F7A
:102F600080E090E0AAEFB3E480839183A283B383EF
:102F70008E01055A1F4FFE01E15AFF4F608171819A
:102F80008281938120E030E04AE753E40E941702F7
:102F9000DC01CB01F80180839183A283B383FE011E
:102FA000E55AFF4F608171818281938120E030E09A
:102FB00040E85FE30E947103882344F4FE01E75A6E
:102FC000FF4F81E090E09183808364C0FE01E55A69
:102FD000FF4F608171818281938120E03FEF4FE755
:102FE00057E40E94110318160CF043C0FE01E15A89
:102FF000FF4F608171818281938120E030E040E267
:1030000051E40E941702DC01CB018E01075A1F4FC9
:10301000BC01CD010E944100DC01CB01F80191838C
:1030200080831FC0FE01E95AFF4F89E190E0918340
:103030008083FE01E95AFF4F808191810197F1F76A
:10304000FE01E95AFF4F91838083DE01A75ABF4FEB
:10305000FE01E75AFF4F80819181019711969C9361
:103060008E93FE01E75AFF4F808191810097D1F640
:1030700028C08E01075A1F4FFE01E55AFF4F60819D
:103080007181828193810E944100DC01CB01F801B2
:1030900091838083DE01AB5ABF4FFE01E75AFF4F99
:1030A0008081918111969C938E93FE01EB5AFF4F84
:1030B000808191810197F1F7FE01EB5AFF4F9183D7
:1030C0008083FE01EB53FF4F8081992787FD909508
:1030D000029799230CF4D1C0FE01EB53FF4F80817E
:1030E000992787FD90950297803191050CF0C5C016
:1030F000FE01EA53FF4F2081FE01EB53FF4F808119
:10310000982F9250822F692F0E94FC1082E40E9417
:10311000AB0FFE01EF5AFF4F80E090E0AAEFB3E45F
:1031200080839183A283B3838E01035B1F4FFE01D3
:10313000EF5AFF4F608171818281938120E030E0FE
:103140004AE753E40E941702DC01CB01F8018083B7
:103150009183A283B383FE01E35BFF4F60817181A2
:103160008281938120E030E040E85FE30E947103B8
:10317000882344F4FE01E55BFF4F81E090E09183FA
:10318000808364C0FE01E35BFF4F608171818281B7
:10319000938120E03FEF4FE757E40E941103181698
:1031A0000CF043C0FE01EF5AFF4F608171818281B4
:1031B000938120E030E040E251E40E941702DC01FC
:1031C000CB018E01055B1F4FBC01CD010E94410068
:1031D000DC01CB01F801918380831FC0FE01E75B16
:1031E000FF4F89E190E091838083FE01E75BFF4F11
:1031F000808191810197F1F7FE01E75BFF4F918399
:103200008083DE01A55BBF4FFE01E55BFF4F808140
:103210009181019711969C938E93FE01E55BFF4F80
:10322000808191810097D1F628C08E01055B1F4FE8
:10323000FE01E35BFF4F60817181828193810E9477
:103240004100DC01CB01F80191838083DE01A95BA1
:10325000BF4FFE01E55BFF4F8081918111969C93EA
:103260008E93FE01E95BFF4F808191810197F1F719
:10327000FE01E95BFF4F91838083FE01EB53FF4F1B
:103280008081992787FD9095019799230CF4B3C00D
:10329000FE01EB53FF4F8081992787FD90950197A1
:1032A000803191050CF0A7C0C953DF4F1882C75C6D
:1032B000D040FE01EA53FF4F8081882331F4F1E0D2
:1032C000C953DF4FF883C75CD040FE01EB53FF4F7B
:1032D0008081982F9150C953DF4F8881C75CD040BF
:1032E000692F0E94FC1084E40E94AB0FFE01ED5B8D
:1032F000FF4F80E090E0AAEFB3E480839183A28344
:10330000B3838E01015C1F4FFE01ED5BFF4F6081B7
:1033100071818281938120E030E04AE753E40E948A
:103320001702DC01CB01F80180839183A283B38370
:10333000FE01FF96608171818281938120E030E0FF
:1033400040E85FE30E94710388232CF481E090E061
:103350009EAF8DAF46C0FE01FF9660817181828174
:10336000938120E03FEF4FE757E40E9411031816C6
:1033700064F5FE01ED5BFF4F608171818281938175
:1033800020E030E040E251E40E941702DC01CB0172
:10339000BC01CD010E944100DC01CB019EAF8DAF8D
:1033A0000FC089E190E09CAF8BAF8BAD9CAD0197D6
:1033B000F1F79CAF8BAF8DAD9EAD01979EAF8DAFFA
:1033C0008DAD9EAD009769F716C0FE01FF96608136
:1033D0007181828193810E944100DC01CB019EAF0B
:1033E0008DAF8DAD9EAD9AAF89AF89AD9AAD019786
:1033F000F1F79AAF89AFFE01EB53FF4F808188232D
:103400000CF487C0FE01EB53FF4F808180310CF03C
:1034100080C0FE01EA53FF4F8081FE01EB53FF4F56
:103420009081692F0E94FC108FE40E94AB0F80E016
:1034300090E0AAEFB3E48DAB9EABAFABB8AF6DA994
:103440007EA98FA998AD20E030E04AE753E40E94BE
:103450001702DC01CB0189AB9AABABABBCAB69A962
:103460007AA98BA99CA920E030E040E85FE30E94A4
:10347000710388232CF481E090E098AB8FA73FC0C4
:1034800069A97AA98BA99CA920E03FEF4FE757E4EF
:103490000E94110318164CF56DA97EA98FA998AD4D
:1034A00020E030E040E251E40E941702DC01CB0151
:1034B000BC01CD010E944100DC01CB0198AB8FA77C
:1034C0000FC089E190E09EA78DA78DA59EA50197CD
:1034D000F1F79EA78DA78FA598A9019798AB8FA705
:1034E0008FA598A9009769F714C069A97AA98BA933
:1034F0009CA90E944100DC01CB0198AB8FA78FA54E
:1035000098A99CA78BA78BA59CA50197F1F79CA7D1
:103510008BA780E090E0AAEFB3E48FA398A7A9A7B8
:10352000BAA76FA178A589A59AA520E030E04AE75F
:1035300053E40E941702DC01CB018BA39CA3ADA333
:10354000BEA36BA17CA18DA19EA120E030E040E84C
:103550005FE30E94710388232CF481E090E09AA33A
:1035600089A33FC06BA17CA18DA19EA120E03FEF6C
:103570004FE757E40E94110318164CF56FA178A588
:1035800089A59AA520E030E040E251E40E941702AC
:10359000DC01CB01BC01CD010E944100DC01CB016B
:1035A0009AA389A30FC089E190E098A38F8F8F8D94
:1035B00098A10197F1F798A38F8F89A19AA10197FC
:1035C0009AA389A389A19AA1009769F714C06BA156
:1035D0007CA18DA19EA10E944100DC01CB019AA398
:1035E00089A389A19AA19E8F8D8F8D8D9E8D019724
:1035F000F1F79E8F8D8F80E090E0AAEFB3E4898F82
:103600009A8FAB8FBC8F698D7A8D8B8D9C8D20E0CE
:1036100030E04AE753E40E941702DC01CB018D8BB6
:103620009E8BAF8BB88F6D897E898F89988D20E0B6
:1036300030E040E85FE30E94710388232CF481E0CE
:1036400090E09C8B8B8B3FC06D897E898F89988D94
:1036500020E03FEF4FE757E40E94110318164CF5A6
:10366000698D7A8D8B8D9C8D20E030E040E251E4B5
:103670000E941702DC01CB01BC01CD010E94410078
:10368000DC01CB019C8B8B8B0FC089E190E09A8B86
:10369000898B89899A890197F1F79A8B898B8B8914
:1036A0009C8901979C8B8B8B8B899C89009769F7F0
:1036B00014C06D897E898F89988D0E944100DC013C
:1036C000CB019C8B8B8B8B899C89988B8F878F856B
:1036D00098890197F1F7988B8F8781E00E945A0EA5
:1036E00080E090E0A0E0B0E48B879C87AD87BE8748
:1036F0006B857C858D859E8520E030E04AE753E42C
:103700000E941702DC01CB018F839887A987BA87B3
:103710006F81788589859A8520E030E040E85FE315
:103720000E94710388232CF481E090E09E838D83B6
:103730003FC06F81788589859A8520E03FEF4FE70C
:1037400057E40E94110318164CF56B857C858D8516
:103750009E8520E030E040E251E40E941702DC0147
:10376000CB01BC01CD010E944100DC01CB019E8355
:103770008D830FC089E190E09C838B838B819C813A
:103780000197F1F79C838B838D819E8101979E83A6
:103790008D838D819E81009769F714C06F81788534
:1037A00089859A850E944100DC01CB019E838D832F
:1037B0008D819E819A83898389819A810197F1F70E
:1037C0009A838983FE01EB53FF4F8081843069F532
:1037D000CE018A539F4FC253DF4F99838883CE5CBB
:1037E000D040C053DF4F1882C05DD040FE01EA5385
:1037F000FF4F8081882331F491E0C053DF4F9883DD
:10380000C05DD040C053DF4F8881C05DD040C253FF
:10381000DF4FE881F981CE5CD0408083FE01EB531D
:10382000FF4F83E080830C949B11FE01EA53FF4F0E
:10383000CF52DF4FF983E883C15DD040CD52DF4FD7
:103840001882C35DD040FE01EA53FF4F8081882378
:1038500031F4F1E0CD52DF4FF883C35DD040CD525B
:10386000DF4F8881C35DD040CF52DF4FE881F981BF
:10387000C15DD0408083DE01AB53BF4FFE01EB53EF
:10388000FF4F808181508C932FCB2F923F924F928C
:103890005F926F927F928F929F92AF92BF92CF92E0
:1038A000DF92EF92FF920F931F93CF93DF93CDB7E9
:1038B000DEB7CA1BDB0B0FB6F894DEBF0FBECDBF61
:1038C00009942A88398848885F846E847D848C8432
:1038D0009B84AA84B984C884DF80EE80FD800C813B
:1038E0001B81AA81B981CE0FD11D0FB6F894DEBF1E
:0C38F0000FBECDBFED010895F894FFCF8E
:0838FC000000000000000000C4
:00000001FF
