:100000000C942A000C9447000C9447000C94470071
:100010000C94E70A0C941B0A0C9447000C94810A78
:100020000C94B40A0C94E8090C944E0A0C94B5098B
:100030000C9447000C9447000C9447000C94470024
:100040000C9447000C9447000C9447000C94470014
:100050000C94470011241FBECFE5D8E0DEBFCDBF12
:1000600010E0A0E6B0E0ECEAF7E102C005900D92E6
:10007000A236B107D9F710E0A2E6B0E001C01D92A8
:10008000A637B107E1F70E94A00B0C94D40B0C9497
:100090000000DF93CF93CDB7DEB727970FB6F89464
:1000A000DEBF0FBECDBF8C836D8381E08B838C81DF
:1000B0008695869586958A838C81877089838C81C5
:1000C000813208F0E1C08A81282F30E03F832E83FF
:1000D0008E819F818130910509F447C02E813F8137
:1000E000223031052CF48E819F81009771F0CEC0B3
:1000F0002E813F812230310509F467C08E819F81B6
:100100008330910509F491C0C1C08D818130A1F483
:10011000ABE3B0E0EBE3F0E08081482F8981282F4A
:1001200030E081E090E0022E02C0880F991F0A940F
:10013000E2F7842B8C93AAC08D81882309F0A6C096
:10014000ABE3B0E0EBE3F0E08081482F8981282F1A
:1001500030E081E090E0022E02C0880F991F0A94DF
:10016000E2F7809584238C9391C08D818130A1F436
:10017000A8E3B0E0E8E3F0E08081482F8981282FF0
:1001800030E081E090E0022E02C0880F991F0A94AF
:10019000E2F7842B8C937AC08D81882309F076C096
:1001A000A8E3B0E0E8E3F0E08081482F8981282FC0
:1001B00030E081E090E0022E02C0880F991F0A947F
:1001C000E2F7809584238C9361C08D818130A1F406
:1001D000A5E3B0E0E5E3F0E08081482F8981282F96
:1001E00030E081E090E0022E02C0880F991F0A944F
:1001F000E2F7842B8C934AC08D81882309F046C096
:10020000A5E3B0E0E5E3F0E08081482F8981282F65
:1002100030E081E090E0022E02C0880F991F0A941E
:10022000E2F7809584238C9331C08D818130A1F4D5
:10023000A2E3B0E0E2E3F0E08081482F8981282F3B
:1002400030E081E090E0022E02C0880F991F0A94EE
:10025000E2F7842B8C931AC08D818823B9F4A2E332
:10026000B0E0E2E3F0E08081482F8981282F30E080
:1002700081E090E0022E02C0880F991F0A94E2F7F5
:10028000809584238C9302C083E08B838B81279697
:100290000FB6F894DEBF0FBECDBFCF91DF910895AA
:1002A000DF93CF93CDB7DEB728970FB6F894DEBFB4
:1002B0000FBECDBF8C837E836D8381E08B838C8169
:1002C000813208F079C08C818695869586958A83DF
:1002D0008C81877089838A81282F30E038872F832B
:1002E0004F8158854130510559F18F819885823071
:1002F000910534F42F8138852115310569F05EC0F0
:100300004F8158854230510579F18F81988583302E
:10031000910509F43DC052C0E9E3F0E08081282F47
:1003200030E08981882F90E0A90102C0559547955A
:100330008A95E2F7CA018170ED81FE8180833EC01B
:10034000E6E3F0E08081282F30E08981882F90E07B
:10035000A90102C0559547958A95E2F7CA018170B7
:10036000ED81FE8180832AC0E3E3F0E08081282FC5
:1003700030E08981882F90E0A90102C0559547950A
:100380008A95E2F7CA018170ED81FE81808316C0F3
:10039000E0E3F0E08081282F30E08981882F90E031
:1003A000A90102C0559547958A95E2F7CA01817067
:1003B000ED81FE81808302C082E08B838B81289651
:1003C0000FB6F894DEBF0FBECDBFCF91DF91089579
:1003D000DF93CF9300D000D00F92CDB7DEB78A83E2
:1003E0006B8381E089838A81853098F58A81282F03
:1003F00030E03D832C838C819D8181309105D1F04B
:100400002C813D81223031052CF48C819D81009717
:1004100061F021C02C813D812230310581F08C8139
:100420009D818330910581F016C0EBE3F0E08B8174
:10043000808311C0E8E3F0E08B8180830CC0E5E3AA
:10044000F0E08B81808307C0E2E3F0E08B81808362
:1004500002C083E0898389810F900F900F900F90E5
:100460000F90CF91DF910895DF93CF9300D000D00C
:1004700000D0CDB7DEB78A837C836B8381E089832C
:100480008A818530D8F58A81282F30E03E832D83FC
:100490008D819E8181309105E1F02D813E81223058
:1004A00031052CF48D819E81009761F029C02D814A
:1004B0003E8122303105A1F08D819E8183309105EE
:1004C000B1F01EC0EBE3F0E08081EB81FC81808322
:1004D00017C0E8E3F0E08081EB81FC81808310C0ED
:1004E000E5E3F0E08081EB81FC81808309C0E2E3F9
:1004F000F0E08081EB81FC81808302C082E089830F
:10050000898126960FB6F894DEBF0FBECDBFCF917E
:10051000DF910895DF93CF9300D000D000D0CDB706
:10052000DEB78C8381E08B838C81813208F077C0C9
:100530008C818695869586958A838C818770898340
:100540008A81282F30E03E832D838D819E818130EA
:10055000910549F12D813E81223031052CF48D81A8
:100560009E81009761F05DC02D813E812230310572
:1005700071F18D819E8183309105E9F152C0ABE329
:10058000B0E0EBE3F0E08081482F8981282F30E054
:1005900081E090E0022E02C0880F991F0A94E2F7D2
:1005A00084278C933EC0ABE3B0E0EBE3F0E08081C6
:1005B000482F8981282F30E081E090E0022E02C090
:1005C000880F991F0A94E2F784278C932AC0ABE323
:1005D000B0E0EBE3F0E08081482F8981282F30E004
:1005E00081E090E0022E02C0880F991F0A94E2F782
:1005F00084278C9316C0ABE3B0E0EBE3F0E080819E
:10060000482F8981282F30E081E090E0022E02C03F
:10061000880F991F0A94E2F784278C9302C082E026
:100620008B838B8126960FB6F894DEBF0FBECDBFAD
:10063000CF91DF910895DF93CF93CDB7DEB72797A2
:100640000FB6F894DEBF0FBECDBF8C836D8383E001
:100650008B838C81803210F01B82DFC08D818230D1
:1006600018F081E08B83D9C08C8187708A838C815C
:1006700086958695869589838981282F30E03F83EA
:100680002E838E819F818130910509F443C02E8194
:100690003F81223031052CF48E819F81009771F0CB
:1006A000BCC02E813F812230310509F45FC08E81AC
:1006B0009F818330910509F485C0AFC08D81813061
:1006C000A1F4AAE3B0E0EAE3F0E08081482F8A8158
:1006D000282F30E081E090E0022E02C0880F991FA1
:1006E0000A94E2F7842B8C9398C0AAE3B0E0EAE383
:1006F000F0E08081482F8A81282F30E081E090E06F
:10070000022E02C0880F991F0A94E2F78095842375
:100710008C9383C08D818130A1F4A7E3B0E0E7E33F
:10072000F0E08081482F8A81282F30E081E090E03E
:10073000022E02C0880F991F0A94E2F7842B8C9333
:100740006CC0A7E3B0E0E7E3F0E08081482F8A8146
:10075000282F30E081E090E0022E02C0880F991F20
:100760000A94E2F7809584238C9357C08D81813061
:10077000A1F4A4E3B0E0E4E3F0E08081482F8A81B3
:10078000282F30E081E090E0022E02C0880F991FF0
:100790000A94E2F7842B8C9340C0A4E3B0E0E4E336
:1007A000F0E08081482F8A81282F30E081E090E0BE
:1007B000022E02C0880F991F0A94E2F780958423C5
:1007C0008C932BC08D818130A1F4A1E3B0E0E1E3F3
:1007D000F0E08081482F8A81282F30E081E090E08E
:1007E000022E02C0880F991F0A94E2F7842B8C9383
:1007F00014C0A1E3B0E0E1E3F0E08081482F8A81FA
:10080000282F30E081E090E0022E02C0880F991F6F
:100810000A94E2F7809584238C938B8127960FB6F8
:10082000F894DEBF0FBECDBFCF91DF910895DF9367
:10083000CF93CDB7DEB72F970FB6F894DEBF0FBEBC
:10084000CDBF8C836D8383E08B838D81853018F0E1
:1008500082E08B8323C38C81803210F01B821EC305
:100860008C818695869586958A838C81877089830D
:100870008A81282F30E03F872E878E859F858130A3
:10088000910509F4D4C02E853F85223031052CF422
:100890008E859F85009771F001C32E853F8522309C
:1008A000310509F481C18E859F858330910509F456
:1008B00039C2F4C28D81282F30E03D872C878C858A
:1008C0009D8581309105B9F02C853D85223031051B
:1008D0002CF48C859D850097A1F1E0C22C853D8587
:1008E0002230310509F454C08C859D8583309105F3
:1008F00009F475C0D3C2AAE3B0E0EAE3F0E0808176
:10090000482F8981282F30E081E090E002C0880FD5
:10091000991F2A95E2F7842B8C93ABE3B0E0EBE3CD
:10092000F0E08081482F8981282F30E081E090E03D
:10093000022E02C0880F991F0A94E2F7842B8C9331
:10094000ADC2AAE3B0E0EAE3F0E08081482F8981FC
:10095000282F30E081E090E002C0880F991F2A958F
:10096000E2F7842B8C93ABE3B0E0EBE3F0E0808123
:10097000482F8981282F30E081E090E0022E02C0CC
:10098000880F991F0A94E2F7809584238C9386C27E
:10099000AAE3B0E0EAE3F0E08081482F8981282FC4
:1009A00030E081E090E002C0880F991F2A95E2F7BD
:1009B000809584238C93ABE3B0E0EBE3F0E080819F
:1009C000482F8981282F30E081E090E0022E02C07C
:1009D000880F991F0A94E2F7842B8C935FC2AAE3D5
:1009E000B0E0EAE3F0E08081482F8981282F30E0F1
:1009F00081E090E002C0880F991F2A95E2F7809568
:100A000084238C93ABE3B0E0EBE3F0E08081482FEC
:100A10008981282F30E081E090E0022E02C0880F0B
:100A2000991F0A94E2F7809584238C9337C28D81B5
:100A3000282F30E03B872A878A859B858130910566
:100A4000B9F02A853B85223031052CF48A859B85B7
:100A50000097A1F123C22A853B852230310509F494
:100A600054C08A859B858330910509F475C016C2F0
:100A7000A7E3B0E0E7E3F0E08081482F8981282FE9
:100A800030E081E090E002C0880F991F2A95E2F7DC
:100A9000842B8C93A8E3B0E0E8E3F0E08081482F5A
:100AA0008981282F30E081E090E0022E02C0880F7B
:100AB000991F0A94E2F7842B8C93F0C1A7E3B0E06E
:100AC000E7E3F0E08081482F8981282F30E081E042
:100AD00090E002C0880F991F2A95E2F7842B8C932F
:100AE000A8E3B0E0E8E3F0E08081482F8981282F77
:100AF00030E081E090E0022E02C0880F991F0A9436
:100B0000E2F7809584238C93C9C1A7E3B0E0E7E3C3
:100B1000F0E08081482F8981282F30E081E090E04B
:100B200002C0880F991F2A95E2F7809584238C9341
:100B3000A8E3B0E0E8E3F0E08081482F8981282F26
:100B400030E081E090E0022E02C0880F991F0A94E5
:100B5000E2F7842B8C93A2C1A7E3B0E0E7E3F0E0D7
:100B60008081482F8981282F30E081E090E002C009
:100B7000880F991F2A95E2F7809584238C93A8E328
:100B8000B0E0E8E3F0E08081482F8981282F30E051
:100B900081E090E0022E02C0880F991F0A94E2F7CC
:100BA000809584238C937AC18D81282F30E03987FA
:100BB00028878885998581309105B9F02885398500
:100BC000223031052CF4888599850097A1F166C102
:100BD000288539852230310509F455C088859985E5
:100BE0008330910509F476C059C1A4E3B0E0E4E391
:100BF000F0E08081482F8981282F30E081E090E06B
:100C000002C0880F991F2A95E2F7842B8C93A5E3E5
:100C1000B0E0E5E3F0E08081482F8981282F30E0C3
:100C200081E090E0022E02C0880F991F0A94E2F73B
:100C3000842B8C9333C1A4E3B0E0E4E3F0E0808143
:100C4000482F8981282F30E081E090E002C0880F92
:100C5000991F2A95E2F7809584238C93A5E3B0E051
:100C6000E5E3F0E08081482F8981282F30E081E0A2
:100C700090E0022E02C0880F991F0A94E2F7809537
:100C800084238C930BC1A4E3B0E0E4E3F0E0808123
:100C9000482F8981282F30E081E090E002C0880F42
:100CA000991F2A95E2F7809584238C93A5E3B0E001
:100CB000E5E3F0E08081482F8981282F30E081E052
:100CC00090E0022E02C0880F991F0A94E2F7842B4D
:100CD0008C93E4C0A4E3B0E0E4E3F0E08081482F2B
:100CE0008981282F30E081E090E002C0880F991FB1
:100CF0002A95E2F7809584238C93A5E3B0E0E5E3A1
:100D0000F0E08081482F8981282F30E081E090E059
:100D1000022E02C0880F991F0A94E2F7809584235F
:100D20008C93BCC08D81282F30E03F832E838E8131
:100D30009F8181309105B9F02E813F8122303105AC
:100D40002CF48E819F810097A1F1A8C02E813F8154
:100D50002230310509F454C08E819F818330910582
:100D600009F475C09BC0A1E3B0E0E1E3F0E080814D
:100D7000482F8981282F30E081E090E002C0880F61
:100D8000991F2A95E2F7842B8C93A2E3B0E0E2E36B
:100D9000F0E08081482F8981282F30E081E090E0C9
:100DA000022E02C0880F991F0A94E2F7842B8C93BD
:100DB00075C0A1E3B0E0E1E3F0E08081482F8981D4
:100DC000282F30E081E090E002C0880F991F2A951B
:100DD000E2F7842B8C93A2E3B0E0E2E3F0E08081C1
:100DE000482F8981282F30E081E090E0022E02C058
:100DF000880F991F0A94E2F7809584238C934EC044
:100E0000A1E3B0E0E1E3F0E08081482F8981282F61
:100E100030E081E090E002C0880F991F2A95E2F748
:100E2000809584238C93ABE3B0E0EBE3F0E080812A
:100E3000482F8981282F30E081E090E0022E02C007
:100E4000880F991F0A94E2F7842B8C9327C0A1E3A3
:100E5000B0E0E1E3F0E08081482F8981282F30E085
:100E600081E090E002C0880F991F2A95E2F78095F3
:100E700084238C93A2E3B0E0E2E3F0E08081482F8A
:100E80008981282F30E081E090E0022E02C0880F97
:100E9000991F0A94E2F7809584238C938B812F9677
:100EA0000FB6F894DEBF0FBECDBFCF91DF9108958E
:100EB000DF93CF93CDB7DEB7EAE3F0E08EEF808328
:100EC000EBE3F0E081E08083E7E3F0E08FEF808305
:100ED000E8E3F0E08FEF8083E4E3F0E08FEF8083DE
:100EE000E5E3F0E01082E1E3F0E08FEF8083E2E3FE
:100EF000F0E08FEF8083CF91DF910895DF93CF9360
:100F000000D000D000D0CDB7DEB79C838B838B811F
:100F10009C81009711F482E08A83EB81FC818781B8
:100F2000282F30E03E832D838D819E818130910575
:100F3000C1F12D813E812230310509F462C08D81DD
:100F40009E81009709F089C0E3E5F0E08081898304
:100F50008981877B8983EB81FC8183819481282F20
:100F6000EB81FC8185819681922F982B8981892B39
:100F70008983E3E5F0E089818083A9E5B0E0E9E5D4
:100F8000F0E02081EB81FC819181EB81FC81828109
:100F9000892B822B8C93EB81FC818081809365006F
:100FA0005CC0EFE4F0E080818983EB81FC81858186
:100FB0009681982F977E8981892B8983EB81FC818B
:100FC00083819481982F8981892B8983EFE4F0E0D4
:100FD00089818083EEE4F0E080818983EB81FC816C
:100FE00085819681982F9C7F8981892B8983EB81CC
:100FF000FC81808180936600EEE4F0E0898180834B
:101000002CC0E5E4F0E0808189838981877B898336
:10101000EB81FC8183819481282FEB81FC81858188
:101020009681922F982B8981892B8983E5E4F0E0C2
:1010300089818083A9E5B0E0E9E5F0E02081EB81DA
:10104000FC819181EB81FC818281892B822B8C93A5
:10105000EB81FC818081809367008A8126960FB6A0
:10106000F894DEBF0FBECDBFCF91DF910895DF931F
:10107000CF93CDB7DEB727970FB6F894DEBF0FBE7C
:10108000CDBF8B837D836C838B81282F30E03F83A2
:101090002E838E819F8181309105A1F12E813F8128
:1010A000223031052CF48E819F81009769F075C044
:1010B0002E813F8122303105E1F18E819F81833085
:1010C000910509F44DC069C08C819D818F3F9105C8
:1010D00021F018F081E08A8360C0ECE5F0E08C81BB
:1010E0008083E3E5F0E0808189838981887F89833B
:1010F000909165008981892B8983E3E5F0E08981FE
:1011000080834BC0EAE4F0E08C819D8191838083F1
:10111000EEE4F0E0808189838981887F89839091E2
:1011200066008981892B8983EEE4F0E089818083E0
:1011300034C0E8E4F0E08C819D8191838083EEE40B
:10114000F0E0808189838981887F8983909166001E
:101150008981892B8983EEE4F0E0898180831DC039
:101160008C819D818F3F910521F018F081E08A8369
:1011700014C0E3E4F0E08C818083E5E4F0E080815A
:1011800089838981887F8983909167008981892BF0
:101190008983E5E4F0E0898180838A8127960FB610
:1011A000F894DEBF0FBECDBFCF91DF910895DF93DE
:1011B000CF9300D000D000D0CDB7DEB78A837C8338
:1011C0006B8319828A81282F30E03E832D838D81A5
:1011D0009E8181309105D1F02D813E8122303105F3
:1011E0002CF48D819E81009761F022C02D813E817B
:1011F0002230310591F08D819E8183309105A1F0DF
:1012000017C0ECE5F0E08B81808312C0EAE4F0E0E7
:101210008B819C81918380830BC0E8E4F0E08B811B
:101220009C819183808304C0E3E4F0E08B81808320
:10123000898126960FB6F894DEBF0FBECDBFCF9141
:10124000DF910895DF93CF9300D0CDB7DEB79A83B7
:101250008983E6E4F0E089819A81918380830F900D
:101260000F90CF91DF910895DF93CF9300D00F922D
:10127000CDB7DEB789838981282F30E03B832A836D
:101280008A819B818130910589F02A813B812230BE
:101290003105A1F08A819B810097B9F4A3E5B0E004
:1012A000E3E5F0E08081887F8C930FC0AEE4B0E08E
:1012B000EEE4F0E08081887F8C9307C0A5E4B0E085
:1012C000E5E4F0E08081887F8C930F900F900F9081
:1012D000CF91DF910895DF93CF9300D000D0CDB7A9
:1012E000DEB79B838A836C8319828A819B810097F6
:1012F00069F08C81882F90E0880F991FFC01E859D4
:10130000FF4F8A819B819183808302C082E0898321
:1013100089810F900F900F900F90CF91DF910895DA
:10132000DF93CF9300D000D0CDB7DEB79B838A8305
:101330006C8319828A819B81009769F08C81882F48
:1013400090E0880F991FFC01E259FF4F8A819B8131
:101350009183808302C082E0898389810F900F90FE
:101360000F900F90CF91DF9108951F920F920FB6BB
:101370000F9211242F933F934F935F936F937F931B
:101380008F939F93AF93BF93EF93FF93DF93CF938D
:10139000CDB7DEB78091680090916900009729F081
:1013A000E0916800F09169000995CF91DF91FF917C
:1013B000EF91BF91AF919F918F917F916F915F91CD
:1013C0004F913F912F910F900FBE0F901F90189546
:1013D0001F920F920FB60F9211242F933F934F93AA
:1013E0005F936F937F938F939F93AF93BF93EF938D
:1013F000FF93DF93CF93CDB7DEB780916A009091D2
:101400006B00009729F0E0916A00F0916B0009955C
:10141000CF91DF91FF91EF91BF91AF919F918F910C
:101420007F916F915F914F913F912F910F900FBEE0
:101430000F901F9018951F920F920FB60F921124C4
:101440002F933F934F935F936F937F938F939F93CC
:10145000AF93BF93EF93FF93DF93CF93CDB7DEB7F7
:1014600080916C0090916D00009729F0E0916C00E4
:10147000F0916D000995CF91DF91FF91EF91BF91B0
:10148000AF919F918F917F916F915F914F913F911C
:101490002F910F900FBE0F901F9018951F920F92D3
:1014A0000FB60F9211242F933F934F935F936F9337
:1014B0007F938F939F93AF93BF93EF93FF93DF93AC
:1014C000CF93CDB7DEB780916E0090916F000097FB
:1014D00029F0E0916E00F0916F000995CF91DF91B6
:1014E000FF91EF91BF91AF919F918F917F916F91FC
:1014F0005F914F913F912F910F900FBE0F901F90D2
:1015000018951F920F920FB60F9211242F933F93AD
:101510004F935F936F937F938F939F93AF93BF93FB
:10152000EF93FF93DF93CF93CDB7DEB78091700039
:1015300090917100009729F0E0917000F091710096
:101540000995CF91DF91FF91EF91BF91AF919F915D
:101550008F917F916F915F914F913F912F910F905C
:101560000FBE0F901F9018951F920F920FB60F92FB
:1015700011242F933F934F935F936F937F938F9398
:101580009F93AF93BF93EF93FF93DF93CF93CDB729
:10159000DEB78091720090917300009729F0E0917E
:1015A0007200F09173000995CF91DF91FF91EF9157
:1015B000BF91AF919F918F917F916F915F914F916B
:1015C0003F912F910F900FBE0F901F9018951F9273
:1015D0000F920FB60F9211242F933F934F935F9367
:1015E0006F937F938F939F93AF93BF93EF93FF93EB
:1015F000DF93CF93CDB7DEB78091740090917500E3
:10160000009729F0E0917400F09175000995CF9151
:10161000DF91FF91EF91BF91AF919F918F917F915A
:101620006F915F914F913F912F910F900FBE0F904F
:101630001F901895DF93CF93CDB7DEB72D970FB6D8
:10164000F894DEBF0FBECDBF9B878A8719825CC02E
:101650008B85282F30E03D872C878C859D858130B8
:10166000910519F12C853D85223031052CF48C85AE
:101670009D85009761F045C02C853D852230310560
:1016800019F18C859D858330910569F13AC01986E1
:1016900080E490E098878F8380E390E09E838D8341
:1016A00082E08A831C821B822CC081E0898789E0CA
:1016B00090E098878F8380EC90E09E838D8382E01A
:1016C0008A831C821B821DC082E0898789E090E0AA
:1016D00098878F8380E390E09E838D8382E08A8366
:1016E0001C821B820EC083E0898780E490E098878B
:1016F0008F8380E290E09E838D8382E08A831C82C8
:101700001B8289818F5F89838981882309F4A0CF17
:101710002D960FB6F894DEBF0FBECDBFCF91DF91EF
:101720000895DF93CF9300D00F92CDB7DEB79A83A1
:1017300089836B830F900F900F90CF91DF91089565
:10174000DF93CF9300D000D0CDB7DEB70E9458070B
:1017500081E090E09A83898381E090E09A83898395
:101760008B819C8122E08030920758F489819A8194
:10177000009739F0EBE3F0E082E080831A8219826F
:10178000EBCF8B819C8122E08030920728F3898106
:101790009A81009709F381E090E09A838983EBE3D3
:0C17A000F0E084E08083D8CFF894FFCF05
:0217AC000A0031
:00000001FF
