:100000000C942A000C9447000C9447000C94470071
:100010000C9426120C945A110C9447000C94C011A5
:100020000C94F3110C9427110C948D110C94F41072
:100030000C9447000C9447000C9447000C94470024
:100040000C9447000C9447000C9447000C94470014
:100050000C94470011241FBECFE5D8E0DEBFCDBF12
:1000600011E0A0E6B0E0E6E8F7E202C005900D92EC
:10007000AA36B107D9F711E0AAE6B1E001C01D9296
:10008000AE37B107E1F70E944D130C94C1130C94E5
:100090000000EF92FF920F931F937B018C0120E0F1
:1000A00030E040E05FE40E94C50388238CF0C80183
:1000B000B70120E030E040E05FE40E94C1010E940F
:1000C00053049B01AC01205030404040504806C0D2
:1000D000C801B7010E9453049B01AC01B901CA01D8
:1000E0001F910F91FF90EF900895A0E0B0E0EBE733
:1000F000F0E00C948A13DC012B01FA019C91923000
:1001000008F439C1EB018881823008F433C194309E
:1001100069F4843009F02FC111969C91119789815F
:10012000981709F428C1A0E6B0E025C1843009F48D
:1001300021C18230A9F4923009F01DC19A01AD01AC
:1001400088E0EA010990AE01E90109929E0181501F
:10015000C1F7E201898111969C918923818308C1AD
:10016000923009F407C112962D903C901397EB0141
:100170008A819B811496AD90BD90CD90DC901797AD
:10018000EC80FD800E811F819101281B390BB90184
:1001900037FF04C066277727621B730B6032710537
:1001A0000CF061C0121613066CF537014801062EDB
:1001B00004C096948794779467940A94D2F721E0C8
:1001C00030E040E050E004C0220F331F441F551FB1
:1001D0006A95D2F721503040404050402E213F21B7
:1001E00040235123211531054105510521F021E01E
:1001F00030E040E050E079018A01E628F72808293C
:1002000019293CC0232BD1F1260E371E350146019A
:10021000062E04C096948794779467940A94D2F734
:1002200021E030E040E050E004C0220F331F441FC3
:10023000551F6A95D2F721503040404050402A2146
:100240003B214C215D21211531054105510521F04E
:1002500021E030E040E050E059016A01A628B728CB
:10026000C828D9280BC0821593052CF01C01AA249C
:10027000BB24650103C0EE24FF24870111969C91E5
:10028000D20111968C91981709F445C0992339F041
:10029000A80197012A193B094C095D0906C0A6016E
:1002A00095012E193F09400B510B57FD08C01182D3
:1002B0003382228224833583468357831DC081E0A5
:1002C00081833382228288279927DC01821B930B4A
:1002D000A40BB50B84839583A683B7830DC0220F2F
:1002E000331F441F551F24833583468357838281E0
:1002F000938101979383828324813581468157813D
:10030000DA01C9010197A109B1098F5F9F4FAF4F72
:10031000BF4328F30BC0918333822282EA0CFB1C7B
:100320000C1D1D1DE482F5820683178383E0808304
:10033000248135814681578157FF1AC0C901AA27F8
:1003400097FDA095BA2F81709070A070B0705695EF
:10035000479537952795822B932BA42BB52B848318
:100360009583A683B7838281938101969383828349
:10037000DF0101C0D201CD01CDB7DEB7E2E10C94BF
:10038000A613A0E2B0E0E7ECF1E00C9496136983C9
:100390007A838B839C832D833E834F835887E9E048
:1003A000EE2EF12CEC0EFD1ECE010196B7010E943F
:1003B00044068E010F5E1F4FCE010596B8010E94C4
:1003C00044068A8991E089278A8BC701B801AE016A
:1003D000475E5F4F0E9475000E946F05A096E6E0A1
:1003E0000C94B213A0E2B0E0E8EFF1E00C949613A5
:1003F00069837A838B839C832D833E834F835887C5
:10040000F9E0EF2EF12CEC0EFD1ECE010196B701A6
:100410000E9444068E010F5E1F4FCE010596B80163
:100420000E944406C701B801AE01475E5F4F0E94BB
:1004300075000E946F05A096E6E00C94B213A0E24E
:10044000B0E0E5E2F2E00C948A1369837A838B834F
:100450009C832D833E834F835887CE010196BE0136
:10046000675F7F4F0E944406CE010596BE016F5E16
:100470007F4F0E9444069985923088F089898230A6
:10048000C8F0943019F4823051F404C0843029F457
:10049000923081F480E690E0C6C0923049F420E0CA
:1004A0009A858A89981321E02A87CE010996BBC0D4
:1004B000823049F420E09A858A89981321E02A8BBA
:1004C000CE014196B0C02D843E844F8458886D88FB
:1004D0007E888F88988CEE24FF248701AA24BB2471
:1004E000650140E050E060E070E0E0E0F0E0C10174
:1004F00081709070892BE9F0E60CF71C081D191D1E
:100500009A01AB012A0D3B1D4C1D5D1D80E090E062
:10051000A0E0B0E0E614F7040805190520F481E036
:1005200090E0A0E0B0E0BA01A901480F591F6A1F8E
:100530007B1FAA0CBB1CCC1CDD1C97FE08C081E0F5
:1005400090E0A0E0B0E0A82AB92ACA2ADB2A3196B6
:10055000E032F10549F0660C771C881C991C569412
:10056000479437942794C3CFFA85EA892B893C892D
:100570008B859C85280F391F2E5F3F4F17C0CA01FE
:1005800081709070892B61F016950795F794E79428
:1005900080E090E0A0E0B0E8E82AF92A0A2B1B2BC3
:1005A00076956795579547952F5F3F4F77FDE7CF36
:1005B0000CC0440F551F661F771F17FD4160EE0CDE
:1005C000FF1C001F111F21503040403090E05907A0
:1005D00090E0690790E4790760F32B8F3C8FDB0193
:1005E000CA018F779070A070B07080349105A1051A
:1005F000B10561F447FD0AC0E114F10401051105DC
:1006000029F0405C5F4F6F4F7F4F40781A8EFE1786
:1006100011F081E08A8F4D8F5E8F6F8F78A383E01A
:10062000898FCE0149960E946F05A096E2E10C9455
:10063000A613A8E1B0E0EFE1F3E00C949213698314
:100640007A838B839C832D833E834F835887B9E0C5
:10065000EB2EF12CEC0EFD1ECE010196B7010E948F
:1006600044068E010F5E1F4FCE010596B8010E9411
:1006700044062985223008F47EC03989323010F4CE
:10068000B8017CC08A859A8989278A87243011F02D
:10069000223031F4231709F06EC060E670E06EC0BE
:1006A000343039F41D861E861F86188A1C861B86E8
:1006B00004C0323021F484E08987B7015FC02B8504
:1006C0003C858B899C89281B390B3C872B87ED84C3
:1006D000FE840F851889AD88BE88CF88D88CEA142F
:1006E000FB040C051D0540F4EE0CFF1C001F111F40
:1006F000215030403C872B8720E030E040E050E044
:1007000080E090E0A0E0B0E460E070E0EA14FB0478
:100710000C051D0540F0282B392B4A2B5B2BEA18C2
:10072000FB080C091D09B695A79597958795EE0CC2
:10073000FF1C001F111F6F5F7F4F6F31710531F775
:10074000DA01C9018F779070A070B0708034910584
:10075000A105B10561F427FD0AC0E114F10401050A
:10076000110529F0205C3F4F4F4F5F4F20782D87B8
:100770003E874F87588BBE01675F7F4FCB010E943A
:100780006F056896EAE00C94AE13A8E1B0E0EBECDC
:10079000F3E00C94961369837A838B839C832D8377
:1007A0003E834F83588789E0E82EF12CEC0EFD1E26
:1007B000CE010196B7010E9444068E010F5E1F4FC5
:1007C000CE010596B8010E9444068985823040F02A
:1007D0008989823028F0C701B8010E94BC0601C097
:1007E0008FEF6896E6E00C94B213A8E0B0E0EBEF70
:1007F000F3E00C9493139B01AC0183E08983DA014D
:10080000C9018827B7FD83959927AA27BB27B82E4A
:10081000211531054105510519F482E089833AC05B
:100820008823A9F0203080E0380780E0480780E87E
:10083000580729F460E070E080E09FEC30C0EE24BF
:10084000FF248701E21AF30A040B150B02C0790199
:100850008A018EE1C82ED12CDC82CB82ED82FE8211
:100860000F831887C801B7010E9420050197181649
:10087000190684F4082E04C0EE0CFF1C001F111F83
:100880000A94D2F7ED82FE820F831887C81AD90A1C
:10089000DC82CB82BA82CE0101960E946F05289637
:1008A000E9E00C94AF13ACE0B0E0E9E5F4E00C94BF
:1008B0009A1369837A838B839C83CE010196BE0150
:1008C0006B5F7F4F0E9444068D81823061F18230E0
:1008D00050F1843021F48E81882351F12EC02F8174
:1008E000388537FD20C06E812F3131051CF066231D
:1008F000F9F023C08EE190E0821B930B29853A85A5
:100900004B855C8504C056954795379527958A9504
:10091000D2F76623B1F050954095309521953F4F21
:100920004F4F5F4F0EC020E030E040E050E009C084
:100930002FEF3FEF4FEF5FE704C020E030E040E0F3
:1009400050E8B901CA012C96E2E00C94B613A8E075
:10095000B0E0EDEAF4E00C9492137B018C01611598
:1009600071058105910519F482E0898360C083E0F7
:1009700089838EE1C82ED12CDC82CB82ED82FE826F
:100980000F831887C801B7010E942005FC01319729
:10099000F7FF3BC0222733272E1B3F0B570168016F
:1009A000022E04C0D694C794B794A7940A94D2F7A1
:1009B00040E050E060E070E081E090E0A0E0B0E076
:1009C00004C0880F991FAA1FBB1F2A95D2F7019751
:1009D000A109B1098E219F21A023B1230097A10570
:1009E000B10521F041E050E060E070E04A295B2968
:1009F0006C297D294D835E836F8378878EE190E03B
:100A00008E1B9F0B9C838B8312C0309781F00E2E20
:100A100004C0EE0CFF1C001F111F0A94D2F7ED82D8
:100A2000FE820F831887CE1ADF0ADC82CB821A82FD
:100A3000CE0101960E946F052896EAE00C94AE1351
:100A4000EF92FF920F931F937B018C0180E0E816D9
:100A500080E0F80681E0080780E0180788F48FEF4F
:100A6000E816F1040105110531F028F088E090E066
:100A7000A0E0B0E017C080E090E0A0E0B0E012C0DD
:100A800080E0E81680E0F80680E0080781E01807BB
:100A900028F088E190E0A0E0B0E004C080E190E0C0
:100AA000A0E0B0E020E230E040E050E0281B390B4D
:100AB0004A0B5B0B04C016950795F794E7948A954B
:100AC000D2F7F701E859FF4F8081281B310941090E
:100AD0005109C9011F910F91FF90EF900895DF9286
:100AE000EF92FF920F931F93FC01E480F580068143
:100AF0001781D1808081823048F480E090E0A0E1CD
:100B0000B0E0E82AF92A0A2B1B2BA5C0843009F48F
:100B10009FC0823021F4EE24FF24870105C0E11438
:100B2000F1040105110519F4E0E0F0E096C06281DE
:100B300073819FEF623879070CF05BC022E83FEFCA
:100B4000261B370B2A3131052CF020E030E040E045
:100B500050E02AC0B801A701022E04C0769567951F
:100B6000579547950A94D2F781E090E0A0E0B0E075
:100B700004C0880F991FAA1FBB1F2A95D2F701979F
:100B8000A109B1098E219F21A023B1230097A105BE
:100B9000B10521F081E090E0A0E0B0E09A01AB0166
:100BA000282B392B4A2B5B2BDA01C9018F779070E8
:100BB000A070B07080349105A105B10539F427FF0C
:100BC00009C0205C3F4F4F4F5F4F04C0215C3F4F37
:100BD0004F4F5F4FE0E0F0E02030A0E03A07A0E0A8
:100BE0004A07A0E45A0710F0E1E0F0E079018A0139
:100BF00027C06038710564F5FB01E158FF4FD8014B
:100C0000C7018F779070A070B07080349105A105F6
:100C1000B10539F4E7FE0DC080E490E0A0E0B0E05B
:100C200004C08FE390E0A0E0B0E0E80EF91E0A1FD8
:100C30001B1F17FF05C016950795F794E79431968B
:100C400087E016950795F794E7948A95D1F705C044
:100C5000EE24FF248701EFEFF0E06E2F6795662703
:100C60006795902F9F77D794DD24D7948E2F869504
:100C7000492F462B582F5D29B701CA011F910F91AB
:100C8000FF90EF90DF900895FC01DB0140815181DE
:100C90002281622F6F7770E0221F2227221F93810B
:100CA000892F880F822B282F30E0991F9927991FB1
:100CB00011969C93119721153105A9F54115510500
:100CC0006105710511F482E037C082E89FEF139649
:100CD0009C938E9312979A01AB0167E0220F331F0A
:100CE000441F551F6A95D1F783E08C930DC0220FE6
:100CF000331F441F551F12968D919C911397019796
:100D000013969C938E931297203080E0380780E0F2
:100D1000480780E4580758F314962D933D934D935C
:100D20005C93179708952F3F310579F441155105CC
:100D30006105710519F484E08C93089564FF03C084
:100D400081E08C9312C01C9210C02F573040139634
:100D50003C932E93129783E08C9387E0440F551FAA
:100D6000661F771F8A95D1F7706414964D935D9333
:100D70006D937C93179708951F93DC01FB019C9161
:100D8000923008F447C08081823008F443C0943028
:100D900051F411961C91843099F58181682F70E08F
:100DA000611B71093FC0843021F0923031F48230F0
:100DB000B9F18181882389F12DC011961C91119779
:100DC0008230F1F081811817D9F412962D913C915F
:100DD0001397828193818217930794F0281739071C
:100DE000BCF014968D919D910D90BC91A02D248105
:100DF000358146815781281739074A075B0718F460
:100E0000112341F00AC082179307A407B50740F4E5
:100E1000112319F061E070E005C06FEF7FEF02C0B1
:100E200060E070E0CB011F910895DF93CF930F92A4
:100E3000CDB7DEB7E7E2F0E080E48083E6E2F0E001
:100E40008BE88083E0E5F0E08081E0E5F0E010826F
:100E50000F90CF91DF910895DF93CF930F92CDB78D
:100E6000DEB78983A6E2B0E0E6E2F0E08081806848
:100E70008C930F90CF91DF910895DF93CF93CDB7EF
:100E8000DEB7A6E2B0E0E6E2F0E0808180648C9319
:100E9000CF91DF910895DF93CF9300D0CDB7DEB728
:100EA0000E946D078823E1F30E947A07E4E2F0E0F4
:100EB0008081282F30E0E5E2F0E08081882F90E00B
:100EC000982F8827822B932B9A83898389819A81F3
:100ED0000F900F90CF91DF910895DF93CF93CDB70F
:100EE000DEB7E6E2F0E0808182958F708170CF916D
:100EF000DF910895DF93CF93CDB7DEB7A6E2B0E0E0
:100F0000E6E2F0E0808180618C93CF91DF910895DB
:100F1000DF93CF93CDB7DEB727970FB6F894DEBF38
:100F20000FBECDBF8C836D8381E08B838C818695D2
:100F3000869586958A838C81877089838C8181329E
:100F400008F0E1C08A81282F30E03F832E838E8114
:100F50009F818130910509F447C02E813F81223065
:100F600031052CF48E819F81009771F0CEC02E81C7
:100F70003F812230310509F467C08E819F81833023
:100F8000910509F491C0C1C08D818130A1F4ABE31A
:100F9000B0E0EBE3F0E08081482F8981282F30E03A
:100FA00081E090E0022E02C0880F991F0A94E2F7B8
:100FB000842B8C93AAC08D81882309F0A6C0ABE353
:100FC000B0E0EBE3F0E08081482F8981282F30E00A
:100FD00081E090E0022E02C0880F991F0A94E2F788
:100FE000809584238C9391C08D818130A1F4A8E3F6
:100FF000B0E0E8E3F0E08081482F8981282F30E0DD
:1010000081E090E0022E02C0880F991F0A94E2F757
:10101000842B8C937AC08D81882309F076C0A8E355
:10102000B0E0E8E3F0E08081482F8981282F30E0AC
:1010300081E090E0022E02C0880F991F0A94E2F727
:10104000809584238C9361C08D818130A1F4A5E3C8
:10105000B0E0E5E3F0E08081482F8981282F30E07F
:1010600081E090E0022E02C0880F991F0A94E2F7F7
:10107000842B8C934AC08D81882309F046C0A5E358
:10108000B0E0E5E3F0E08081482F8981282F30E04F
:1010900081E090E0022E02C0880F991F0A94E2F7C7
:1010A000809584238C9331C08D818130A1F4A2E39B
:1010B000B0E0E2E3F0E08081482F8981282F30E022
:1010C00081E090E0022E02C0880F991F0A94E2F797
:1010D000842B8C931AC08D818823B9F4A2E3B0E0ED
:1010E000E2E3F0E08081482F8981282F30E081E021
:1010F00090E0022E02C0880F991F0A94E2F78095B3
:1011000084238C9302C083E08B838B8127960FB658
:10111000F894DEBF0FBECDBFCF91DF910895DF936E
:10112000CF93CDB7DEB728970FB6F894DEBF0FBECA
:10113000CDBF8C837E836D8381E08B838C818132F4
:1011400008F079C08C818695869586958A838C81F6
:10115000877089838A81282F30E038872F834F81D9
:1011600058854130510559F18F819885823091051C
:1011700034F42F8138852115310569F05EC04F8127
:1011800058854230510579F18F81988583309105DA
:1011900009F43DC052C0E9E3F0E08081282F30E03F
:1011A0008981882F90E0A90102C0559547958A95BD
:1011B000E2F7CA018170ED81FE8180833EC0E6E3E3
:1011C000F0E08081282F30E08981882F90E0A9010C
:1011D00002C0559547958A95E2F7CA018170ED8165
:1011E000FE8180832AC0E3E3F0E08081282F30E095
:1011F0008981882F90E0A90102C0559547958A956D
:10120000E2F7CA018170ED81FE81808316C0E0E3C0
:10121000F0E08081282F30E08981882F90E0A901BB
:1012200002C0559547958A95E2F7CA018170ED8114
:10123000FE81808302C082E08B838B8128960FB66B
:10124000F894DEBF0FBECDBFCF91DF910895DF933D
:10125000CF9300D000D00F92CDB7DEB78A836B83D7
:1012600081E089838A81853098F58A81282F30E052
:101270003D832C838C819D8181309105D1F02C811F
:101280003D81223031052CF48C819D81009761F0E5
:1012900021C02C813D812230310581F08C819D81DE
:1012A0008330910581F016C0EBE3F0E08B81808301
:1012B00011C0E8E3F0E08B8180830CC0E5E3F0E04F
:1012C0008B81808307C0E2E3F0E08B81808302C0E2
:1012D00083E0898389810F900F900F900F900F907A
:1012E000CF91DF910895DF93CF9300D000D000D04D
:1012F000CDB7DEB78A837C836B8381E089838A8163
:101300008530D8F58A81282F30E03E832D838D816A
:101310009E8181309105E1F02D813E8122303105A1
:101320002CF48D819E81009761F029C02D813E8132
:1013300022303105A1F08D819E8183309105B1F07D
:101340001EC0EBE3F0E08081EB81FC81808317C05D
:10135000E8E3F0E08081EB81FC81808310C0E5E36D
:10136000F0E08081EB81FC81808309C0E2E3F0E062
:101370008081EB81FC81808302C082E08983898146
:1013800026960FB6F894DEBF0FBECDBFCF91DF918A
:101390000895DF93CF9300D000D000D0CDB7DEB753
:1013A0008C8381E08B838C81813208F077C08C81C3
:1013B0008695869586958A838C81877089838A81B4
:1013C000282F30E03E832D838D819E8181309105D1
:1013D00049F12D813E81223031052CF48D819E8191
:1013E000009761F05DC02D813E812230310571F1A1
:1013F0008D819E8183309105E9F152C0ABE3B0E06D
:10140000EBE3F0E08081482F8981282F30E081E0F4
:1014100090E0022E02C0880F991F0A94E2F78427F9
:101420008C933EC0ABE3B0E0EBE3F0E08081482F6B
:101430008981282F30E081E090E0022E02C0880FE1
:10144000991F0A94E2F784278C932AC0ABE3B0E09B
:10145000EBE3F0E08081482F8981282F30E081E0A4
:1014600090E0022E02C0880F991F0A94E2F78427A9
:101470008C9316C0ABE3B0E0EBE3F0E08081482F43
:101480008981282F30E081E090E0022E02C0880F91
:10149000991F0A94E2F784278C9302C082E08B8321
:1014A0008B8126960FB6F894DEBF0FBECDBFCF91CD
:1014B000DF910895DF93CF93CDB7DEB727970FB6AF
:1014C000F894DEBF0FBECDBF8C836D8383E08B832A
:1014D0008C81803210F01B82DFC08D81823018F049
:1014E00081E08B83D9C08C8187708A838C818695BB
:1014F0008695869589838981282F30E03F832E83C6
:101500008E819F818130910509F443C02E813F81F6
:10151000223031052CF48E819F81009771F0BCC080
:101520002E813F812230310509F45FC08E819F8179
:101530008330910509F485C0AFC08D818130A1F45D
:10154000AAE3B0E0EAE3F0E08081482F8A81282F07
:1015500030E081E090E0022E02C0880F991F0A94CB
:10156000E2F7842B8C9398C0AAE3B0E0EAE3F0E0C2
:101570008081482F8A81282F30E081E090E0022E80
:1015800002C0880F991F0A94E2F7809584238C93F8
:1015900083C08D818130A1F4A7E3B0E0E7E3F0E000
:1015A0008081482F8A81282F30E081E090E0022E50
:1015B00002C0880F991F0A94E2F7842B8C936CC0A9
:1015C000A7E3B0E0E7E3F0E08081482F8A81282F8D
:1015D00030E081E090E0022E02C0880F991F0A944B
:1015E000E2F7809584238C9357C08D818130A1F4DC
:1015F000A4E3B0E0E4E3F0E08081482F8A81282F63
:1016000030E081E090E0022E02C0880F991F0A941A
:10161000E2F7842B8C9340C0A4E3B0E0E4E3F0E075
:101620008081482F8A81282F30E081E090E0022ECF
:1016300002C0880F991F0A94E2F7809584238C9347
:101640002BC08D818130A1F4A1E3B0E0E1E3F0E0B3
:101650008081482F8A81282F30E081E090E0022E9F
:1016600002C0880F991F0A94E2F7842B8C9314C050
:10167000A1E3B0E0E1E3F0E08081482F8A81282FE8
:1016800030E081E090E0022E02C0880F991F0A949A
:10169000E2F7809584238C938B8127960FB6F8947C
:1016A000DEBF0FBECDBFCF91DF910895DF93CF9303
:1016B000CDB7DEB72F970FB6F894DEBF0FBECDBF04
:1016C0008C836D8383E08B838D81853018F082E07D
:1016D0008B8323C38C81803210F01B821EC38C81CC
:1016E0008695869586958A838C81877089838A8181
:1016F000282F30E03F872E878E859F85813091058A
:1017000009F4D4C02E853F85223031052CF48E8516
:101710009F85009771F001C32E853F8522303105EA
:1017200009F481C18E859F858330910509F439C202
:10173000F4C28D81282F30E03D872C878C859D85D4
:1017400081309105B9F02C853D85223031052CF48E
:101750008C859D850097A1F1E0C22C853D852230C6
:10176000310509F454C08C859D858330910509F4B9
:1017700075C0D3C2AAE3B0E0EAE3F0E08081482F6D
:101780008981282F30E081E090E002C0880F991F06
:101790002A95E2F7842B8C93ABE3B0E0EBE3F0E027
:1017A0008081482F8981282F30E081E090E0022E4F
:1017B00002C0880F991F0A94E2F7842B8C93ADC264
:1017C000AAE3B0E0EAE3F0E08081482F8981282F86
:1017D00030E081E090E002C0880F991F2A95E2F77F
:1017E000842B8C93ABE3B0E0EBE3F0E08081482FF7
:1017F0008981282F30E081E090E0022E02C0880F1E
:10180000991F0A94E2F7809584238C9386C2AAE3F9
:10181000B0E0EAE3F0E08081482F8981282F30E0B2
:1018200081E090E002C0880F991F2A95E2F7809529
:1018300084238C93ABE3B0E0EBE3F0E08081482FAE
:101840008981282F30E081E090E0022E02C0880FCD
:10185000991F0A94E2F7842B8C935FC2AAE3B0E04D
:10186000EAE3F0E08081482F8981282F30E081E091
:1018700090E002C0880F991F2A95E2F78095842393
:101880008C93ABE3B0E0EBE3F0E08081482F8981FB
:10189000282F30E081E090E0022E02C0880F991FCF
:1018A0000A94E2F7809584238C9337C28D81282F88
:1018B00030E03B872A878A859B8581309105B9F086
:1018C0002A853B85223031052CF48A859B8500973B
:1018D000A1F123C22A853B852230310509F454C089
:1018E0008A859B858330910509F475C016C2A7E3EC
:1018F000B0E0E7E3F0E08081482F8981282F30E0D5
:1019000081E090E002C0880F991F2A95E2F7842BAE
:101910008C93A8E3B0E0E8E3F0E08081482F898170
:10192000282F30E081E090E0022E02C0880F991F3E
:101930000A94E2F7842B8C93F0C1A7E3B0E0E7E3CD
:10194000F0E08081482F8981282F30E081E090E00D
:1019500002C0880F991F2A95E2F7842B8C93A8E385
:10196000B0E0E8E3F0E08081482F8981282F30E063
:1019700081E090E0022E02C0880F991F0A94E2F7DE
:10198000809584238C93C9C1A7E3B0E0E7E3F0E03E
:101990008081482F8981282F30E081E090E002C0CB
:1019A000880F991F2A95E2F7809584238C93A8E3EA
:1019B000B0E0E8E3F0E08081482F8981282F30E013
:1019C00081E090E0022E02C0880F991F0A94E2F78E
:1019D000842B8C93A2C1A7E3B0E0E7E3F0E0808121
:1019E000482F8981282F30E081E090E002C0880FE5
:1019F000991F2A95E2F7809584238C93A8E3B0E0A1
:101A0000E8E3F0E08081482F8981282F30E081E0F1
:101A100090E0022E02C0880F991F0A94E2F7809589
:101A200084238C937AC18D81282F30E039872887D1
:101A30008885998581309105B9F0288539852230CE
:101A400031052CF4888599850097A1F166C1288518
:101A500039852230310509F455C088859985833050
:101A6000910509F476C059C1A4E3B0E0E4E3F0E0E5
:101A70008081482F8981282F30E081E090E002C0EA
:101A8000880F991F2A95E2F7842B8C93A5E3B0E089
:101A9000E5E3F0E08081482F8981282F30E081E064
:101AA00090E0022E02C0880F991F0A94E2F7842B5F
:101AB0008C9333C1A4E3B0E0E4E3F0E08081482FED
:101AC0008981282F30E081E090E002C0880F991FC3
:101AD0002A95E2F7809584238C93A5E3B0E0E5E3B3
:101AE000F0E08081482F8981282F30E081E090E06C
:101AF000022E02C0880F991F0A94E2F78095842372
:101B00008C930BC1A4E3B0E0E4E3F0E08081482FC4
:101B10008981282F30E081E090E002C0880F991F72
:101B20002A95E2F7809584238C93A5E3B0E0E5E362
:101B3000F0E08081482F8981282F30E081E090E01B
:101B4000022E02C0880F991F0A94E2F7842B8C930F
:101B5000E4C0A4E3B0E0E4E3F0E08081482F8981B1
:101B6000282F30E081E090E002C0880F991F2A956D
:101B7000E2F7809584238C93A5E3B0E0E5E3F0E001
:101B80008081482F8981282F30E081E090E0022E6B
:101B900002C0880F991F0A94E2F7809584238C93E2
:101BA000BCC08D81282F30E03F832E838E819F81A2
:101BB00081309105B9F02E813F81223031052CF41E
:101BC0008E819F810097A1F1A8C02E813F81223094
:101BD000310509F454C08E819F818330910509F449
:101BE00075C09BC0A1E3B0E0E1E3F0E08081482F45
:101BF0008981282F30E081E090E002C0880F991F92
:101C00002A95E2F7842B8C93A2E3B0E0E2E3F0E0C4
:101C10008081482F8981282F30E081E090E0022EDA
:101C200002C0880F991F0A94E2F7842B8C9375C029
:101C3000A1E3B0E0E1E3F0E08081482F8981282F23
:101C400030E081E090E002C0880F991F2A95E2F70A
:101C5000842B8C93A2E3B0E0E2E3F0E08081482F94
:101C60008981282F30E081E090E0022E02C0880FA9
:101C7000991F0A94E2F7809584238C934EC0A1E3C8
:101C8000B0E0E1E3F0E08081482F8981282F30E047
:101C900081E090E002C0880F991F2A95E2F78095B5
:101CA00084238C93ABE3B0E0EBE3F0E08081482F3A
:101CB0008981282F30E081E090E0022E02C0880F59
:101CC000991F0A94E2F7842B8C9327C0A1E3B0E01C
:101CD000E1E3F0E08081482F8981282F30E081E026
:101CE00090E002C0880F991F2A95E2F7809584231F
:101CF0008C93A2E3B0E0E2E3F0E08081482F898199
:101D0000282F30E081E090E0022E02C0880F991F5A
:101D10000A94E2F7809584238C938B812F960FB6DB
:101D2000F894DEBF0FBECDBFCF91DF910895DF9352
:101D3000CF93CDB7DEB7EAE3F0E08EEF8083EBE33D
:101D4000F0E081E08083E7E3F0E08FEF8083E8E379
:101D5000F0E08FEF8083E4E3F0E08FEF8083E5E352
:101D6000F0E01082E1E3F0E08FEF8083E2E3F0E067
:101D70008FEE8083CF91DF910895DF93CF9300D0D2
:101D800000D000D0CDB7DEB79C838B838B819C8144
:101D9000009711F482E08A83EB81FC818781282FF0
:101DA00030E03E832D838D819E8181309105C1F18C
:101DB0002D813E812230310509F462C08D819E81E2
:101DC000009709F089C0E3E5F0E08081898389818B
:101DD000877B8983EB81FC8183819481282FEB8130
:101DE000FC8185819681922F982B8981892B89830B
:101DF000E3E5F0E089818083A9E5B0E0E9E5F0E082
:101E00002081EB81FC819181EB81FC818281892B96
:101E1000822B8C93EB81FC81808180936D015CC06F
:101E2000EFE4F0E080818983EB81FC8185819681FC
:101E3000982F977E8981892B8983EB81FC8183810F
:101E40009481982F8981892B8983EFE4F0E089813F
:101E50008083EEE4F0E080818983EB81FC818581E1
:101E60009681982F9C7F8981892B8983EB81FC81C6
:101E7000808180936E01EEE4F0E0898180832CC044
:101E8000E5E4F0E0808189838981877B8983EB8128
:101E9000FC8183819481282FEB81FC81858196814F
:101EA000922F982B8981892B8983E5E4F0E0898141
:101EB0008083A9E5B0E0E9E5F0E02081EB81FC81D9
:101EC0009181EB81FC818281892B822B8C93EB8128
:101ED000FC81808180936F018A8126960FB6F894E9
:101EE000DEBF0FBECDBFCF91DF910895DF93CF93BB
:101EF000CDB7DEB727970FB6F894DEBF0FBECDBFC4
:101F00008B837D836C838B81282F30E03F832E83EE
:101F10008E819F8181309105A1F12E813F812230F8
:101F200031052CF48E819F81009769F075C02E8158
:101F30003F8122303105E1F18E819F81833091050F
:101F400009F44DC069C08C819D818F3F910521F0BE
:101F500018F081E08A8360C0ECE5F0E08C8180833A
:101F6000E3E5F0E0808189838981887F898390918E
:101F70006D018981892B8983E3E5F0E08981808384
:101F80004BC0EAE4F0E08C819D8191838083EEE494
:101F9000F0E0808189838981887F898390916E01B7
:101FA0008981892B8983EEE4F0E08981808334C0C4
:101FB000E8E4F0E08C819D8191838083EEE4F0E0A1
:101FC000808189838981887F898390916E0189814D
:101FD000892B8983EEE4F0E0898180831DC08C81A8
:101FE0009D818F3F910521F018F081E08A8314C014
:101FF000E3E4F0E08C818083E5E4F0E08081898394
:102000008981887F898390916F018981892B898358
:10201000E5E4F0E0898180838A8127960FB6F89401
:10202000DEBF0FBECDBFCF91DF910895DF93CF9379
:1020300000D000D000D0CDB7DEB78A837C836B831D
:1020400019828A81282F30E03E832D838D819E81E5
:1020500081309105D1F02D813E81223031052CF463
:102060008D819E81009761F022C02D813E812230BA
:10207000310591F08D819E8183309105A1F017C0CB
:10208000ECE5F0E08B81808312C0EAE4F0E08B8124
:102090009C81918380830BC0E8E4F0E08B819C817C
:1020A0009183808304C0E3E4F0E08B8180838981A5
:1020B00026960FB6F894DEBF0FBECDBFCF91DF914D
:1020C0000895DF93CF9300D0CDB7DEB79A8389838D
:1020D000E6E4F0E089819A81918380830F900F90EC
:1020E000CF91DF910895DF93CF9300D00F92CDB7BA
:1020F000DEB789838981282F30E03B832A838A8158
:102100009B818130910589F02A813B812230310504
:10211000A1F08A819B810097B9F4A3E5B0E0E3E5E3
:10212000F0E08081887F8C930FC0AEE4B0E0EEE4F5
:10213000F0E08081887F8C9307C0A5E4B0E0E5E4FF
:10214000F0E08081887F8C930F900F900F90CF915B
:10215000DF910895DF93CF9300D000D0CDB7DEB7E5
:102160009B838A836C8319828A819B81009769F0A3
:102170008C81882F90E0880F991FFC01E059FE4F59
:102180008A819B819183808302C082E089838981D7
:102190000F900F900F900F90CF91DF910895DF93E4
:1021A000CF9300D000D0CDB7DEB79B838A836C83FA
:1021B00019828A819B81009769F08C81882F90E039
:1021C000880F991FFC01EA58FE4F8A819B819183F9
:1021D000808302C082E0898389810F900F900F90E5
:1021E0000F90CF91DF9108951F920F920FB60F922B
:1021F00011242F933F934F935F936F937F938F930C
:102200009F93AF93BF93EF93FF93DF93CF93CDB79C
:10221000DEB78091700190917101009729F0E091F3
:102220007001F09171010995CF91DF91FF91EF91CC
:10223000BF91AF919F918F917F916F915F914F91DE
:102240003F912F910F900FBE0F901F9018951F92E6
:102250000F920FB60F9211242F933F934F935F93DA
:102260006F937F938F939F93AF93BF93EF93FF935E
:10227000DF93CF93CDB7DEB7809172019091730158
:10228000009729F0E0917201F09173010995CF91C7
:10229000DF91FF91EF91BF91AF919F918F917F91CE
:1022A0006F915F914F913F912F910F900FBE0F90C3
:1022B0001F9018951F920F920FB60F9211242F9313
:1022C0003F934F935F936F937F938F939F93AF93BE
:1022D000BF93EF93FF93DF93CF93CDB7DEB780919A
:1022E000740190917501009729F0E0917401F091CB
:1022F00075010995CF91DF91FF91EF91BF91AF915A
:102300009F918F917F916F915F914F913F912F910D
:102310000F900FBE0F901F9018951F920F920FB63F
:102320000F9211242F933F934F935F936F937F935B
:102330008F939F93AF93BF93EF93FF93DF93CF93CD
:10234000CDB7DEB78091760190917701009729F0A3
:10235000E0917601F09177010995CF91DF91FF919E
:10236000EF91BF91AF919F918F917F916F915F910D
:102370004F913F912F910F900FBE0F901F90189586
:102380001F920F920FB60F9211242F933F934F93EA
:102390005F936F937F938F939F93AF93BF93EF93CD
:1023A000FF93DF93CF93CDB7DEB780917801909103
:1023B0007901009729F0E0917801F0917901099570
:1023C000CF91DF91FF91EF91BF91AF919F918F914D
:1023D0007F916F915F914F913F912F910F900FBE21
:1023E0000F901F9018951F920F920FB60F92112405
:1023F0002F933F934F935F936F937F938F939F930D
:10240000AF93BF93EF93FF93DF93CF93CDB7DEB737
:1024100080917A0190917B01009729F0E0917A01F7
:10242000F0917B010995CF91DF91FF91EF91BF91E1
:10243000AF919F918F917F916F915F914F913F915C
:102440002F910F900FBE0F901F9018951F920F9213
:102450000FB60F9211242F933F934F935F936F9377
:102460007F938F939F93AF93BF93EF93FF93DF93EC
:10247000CF93CDB7DEB780917C0190917D0100971D
:1024800029F0E0917C01F0917D010995CF91DF91D8
:10249000FF91EF91BF91AF919F918F917F916F913C
:1024A0005F914F913F912F910F900FBE0F901F9012
:1024B0001895DF93CF93CDB7DEB761970FB6F89439
:1024C000DEBF0FBECDBF9F878E87EE85FF858081E3
:1024D000882F90E0AA2797FDA095BA2FBC01CD01C7
:1024E0000E94F503DC01CB01BC01CD012AE939E9E9
:1024F00049E251E40E941F02DC01CB01BC01CD0185
:1025000020E030E844E054E40E94F201DC01CB0119
:10251000BC01CD010E945304DC01CB0189839A8365
:10252000AB83BC831D8249C0EE85FF858181282F46
:1025300030E0398B288B88899989009731F0288978
:10254000398921303105D1F031C081E08D878AE1B0
:1025500090E09C878B8780E890E09A87898782E06B
:102560008E8318861F82CE0106960E94BD0E298199
:102570003A8181E0B9010E94760F18C081E08D8711
:102580008AE190E09C878B8780E390E09A87898737
:1025900082E08E8318861F82CE0106960E94BD0EB1
:1025A00029813A8182E0B9010E94760F80E29EE49F
:1025B0000E9461108D818F5F8D838D81882309F446
:1025C000B3CF61960FB6F894DEBF0FBECDBFCF91EB
:1025D000DF910895DF93CF93CDB7DEB729970FB67C
:1025E000F894DEBF0FBECDBF8D837F836E838E8157
:1025F0009F81CC01A0E0B0E0BC01CD010E94A70406
:10260000DC01CB01BC01CD012AE939E949E251E401
:102610000E941F02DC01CB01BC01CD0120E030E8AB
:1026200044E054E40E94F201DC01CB01BC01CD0185
:102630000E944900DC01CB0189839A83AB83BC8370
:102640008D81882F90E0880F991FFC01E759FE4F7C
:102650008081282F30E039872887888599850097E1
:1026600031F0288539852130310541F00DC02981AF
:102670003A8181E0B9010E94161006C029813A8191
:1026800082E0B9010E94161029960FB6F894DEBFB9
:102690000FBECDBFCF91DF910895DF93CF9300D0D0
:1026A00000D000D0CDB7DEB71C821B821E821D82F7
:1026B0000E94970ECE0105960E9459120E9415079E
:1026C0000E943D070E944B079C838B838B819C81DA
:1026D000CC01A0E0B0E0BC01CD010E94A704DC0168
:1026E000CB01BC01CD0126E636E646EB50E40E9464
:1026F0001903DC01CB01BC01CD010E944900DC01C2
:10270000CB019A83898329813A8180E0B9010E94B3
:10271000EA12D6CF2F923F924F925F926F927F92A2
:102720008F929F92AF92BF92CF92DF92EF92FF92E1
:102730000F931F93CF93DF93CDB7DEB7CA1BDB0B8D
:102740000FB6F894DEBF0FBECDBF09942A88398832
:1027500048885F846E847D848C849B84AA84B98439
:10276000C884DF80EE80FD800C811B81AA81B98145
:10277000CE0FD11D0FB6F894DEBF0FBECDBFED0159
:062780000895F894FFCF5C
:102786000000000000000000000102020303030332
:1027960004040404040404040505050505050505EB
:1027A60005050505050505050606060606060606CB
:1027B60006060606060606060606060606060606B3
:1027C600060606060606060607070707070707079B
:1027D6000707070707070707070707070707070783
:1027E6000707070707070707070707070707070773
:1027F6000707070707070707070707070707070763
:10280600070707070707070708080808080808084A
:102816000808080808080808080808080808080832
:102826000808080808080808080808080808080822
:102836000808080808080808080808080808080812
:102846000808080808080808080808080808080802
:1028560008080808080808080808080808080808F2
:1028660008080808080808080808080808080808E2
:1028760008080808080808080808080808080808D2
:0A28860008080808080808080A00FE
:00000001FF
